:020000040800F2
:100000000000022079310108BDD10008D13101087A
:10001000BFD10008C1D10008C3D100080000000012
:10002000000000000000000000000000C5D1000832
:10003000C7D1000800000000C9D10008CBD10008DA
:10004000D1310108D1310108D1310108D131010884
:10005000D1310108D1310108D1310108D131010874
:10006000D1310108D1310108D1310108D5D10008C1
:10007000E5D10008F5D10008D1310108D1310108DE
:10008000D1310108D131010805D20008D131010870
:10009000D1310108D1310108D1310108D131010834
:1000A000D1310108D1310108D1310108D131010824
:1000B000D1310108D1310108D1310108D131010814
:1000C000D1310108D1310108D1310108D131010804
:1000D000D1310108D1310108D1310108D1310108F4
:1000E000D1310108D131010800000000D1310108EF
:1000F000D1310108D1310108D1310108D1310108D4
:10010000D1310108D1310108D1310108D1310108C3
:10011000D1310108D1310108D1310108D1310108B3
:10012000D1310108D1310108D1310108D1310108A3
:10013000D1310108D1310108D1310108D131010893
:1001400000000000000000000000000000000000AF
:10015000D1310108D1310108D1310108D131010873
:10016000D1310108D1310108D1310108D131010863
:10017000D1310108D1310108D1310108000000005E
:10018000D1310108D1310108D1310108D131010843
:10019000D1310108D1310108D1310108D131010833
:1001A000D1310108D1310108D1310108D131010823
:1001B000D1310108D1310108D131010815D200082F
:1001C00025D20008D131010835D2000845D20008F7
:1001D000D131010855D20008D1310108D1310108CF
:1001E000D1310108D1310108D1310108D1310108E3
:1001F000D1310108D1310108D1310108D1310108D3
:10020000D1310108D1310108D1310108D1310108C2
:10021000D1310108D1310108D1310108D1310108B2
:10022000D1310108D1310108D131010800000000AD
:10023000D1310108D131010800000000D13101089D
:10024000D131010865D2000875D20008D13101080A
:10025000D1310108D1310108D1310108D131010872
:10026000D1310108D1310108D1310108D131010862
:10027000D1310108D1310108D1310108000000005D
:10028000D1310108D1310108D1310108000000004D
:0802900000000000D13101085B
:1002A00010B5054C237833B9044B13B10448AFF3B0
:1002B00000800123237010BDB40F00200000000057
:1002C000BC58010808B5034B1BB103490348AFF301
:1002D000008008BD00000000B80F0020BC580108D5
:1002E000104B1B780BB90120704710B504464FF432
:1002F0007A70B0FBF3F30C4A1068B0FBF3F001F036
:100300009FF868B90F2C01D901200AE0002221468C
:100310004FF0FF3001F042F8024B5C60002000E03B
:10032000012010BD000000205C00002010B503205B
:1003300001F022F805F0B0F80F498B69C3F30323ED
:100340000E4AD35C03F01F03D8400D4B18608B6935
:1003500003F00F03D35C03F01F03D840094B186070
:100360000020FFF7BDFF10B10124204610BD044658
:100370000CF012FFF9E700BF00440258F45D0108D9
:100380005C00002060000020034B1B78034A1168CA
:100390000B441360704700BF00000020E8100020ED
:1003A000014B1868704700BFE810002038B50446BC
:1003B000FFF7F6FF0546B4F1FF3F02D0044B1B7870
:1003C0001C44FFF7EDFF401BA042FAD338BD00BF2D
:1003D00000000020014B1868000C70470010005C02
:1003E00008B5806B0CF081F908BD704770470000BC
:1003F000F8B5044603681D685E68A649A64A93429C
:1004000018BF8B4240D1A54B9F6807F01F0715F01E
:10041000020F10D016F0020F0DD0636D13F0100F05
:1004200003D1636D43F400636365204600F0E6FE8C
:10043000236802221A6015F0040F02D016F0040F90
:1004400005D115F0080F4FD016F0080F4CD0636D92
:1004500013F0100F03D1636D43F4007363652368D9
:10046000DA6812F4406F39D18B4A93420ED01A46A3
:1004700093420ED0052F14BF002101214FB141B985
:10048000092F06D0D26805E0854BBDE7A2F5807242
:10049000EEE7DA6812F4005F20D11A6812F0080F54
:1004A0001CD09A6812F0040F10D15A6822F00C0286
:1004B0005A60636D23F480736365636D13F4805F2A
:1004C0000CD1636D43F00103636507E0636D43F096
:1004D00010036365A36D43F00103A36520460CF090
:1004E00003F923680C221A6015F0200F02D016F0D1
:1004F000200F05D115F0400F63D016F0400F60D0EB
:10050000636D13F0100F03D1636D43F40053636503
:100510002368DA6C12F4C07F19D10121DA6812F471
:10052000406F16D101205C4A934214D01A46934280
:1005300014D0062F14BF4FF0000C4FF0010C6FB118
:10054000BCF1000F0AD1072F08D0D26807E00021C4
:10055000E4E70020E7E7A2F58072E8E7DA6831B95E
:1005600012F0007F27D130B312F4005F23D1196855
:1005700011F0400F1FD012F4001F1CD19A6812F026
:10058000080F10D15A6822F060025A60636D23F49C
:1005900080536365636D13F4807F0CD1636D43F00A
:1005A0000103636507E0636D43F010036365A36DAA
:1005B00043F00103A365204600F01CFE236860227F
:1005C0001A6015F0800F02D016F0800F36D115F4A6
:1005D000807F02D016F4807F3BD115F4007F02D0DB
:1005E00016F4007F41D115F0100F20D016F0100F37
:1005F0001DD0236B6BB1002F45D023682549264AB7
:10060000934218BF8B423CD1244B9B6813F4404F5C
:100610000AD0636D43F480636365A36D43F0020306
:10062000A3652046FFF7E2FE236810221A6015F446
:10063000806F02D016F4806F34D1F8BD636D43F43F
:10064000803363652046FFF7D0FE236880221A605E
:10065000BDE7636D43F400336365204600F0CCFDD5
:1006600023684FF480721A60B7E7636D43F4802308
:100670006365204600F0C1FD23684FF400721A60E4
:10068000B1E7074BC1E72368DB6813F0030FCBD05A
:10069000BFE700BF002002400021024000230240CB
:1006A00000630258636D43F480436365A36D43F0B8
:1006B0000803A36523684FF480621A60204600F0A7
:1006C0009AFDBAE708B5836B5A6D12F0500F31D11D
:1006D0005A6D42F400725A651A68116811F0080FD9
:1006E00014D0D16811F4406F20D1D26812F4005FA9
:1006F0001CD15A6D22F480725A655A6D12F4805FD3
:1007000014D15A6D42F001025A650FE0D26812F01E
:10071000030F0BD15A6D22F480725A655A6D12F490
:10072000805F03D15A6D42F001025A6518460BF002
:10073000DBFF08BD5A6D12F0100F03D1DB6CDB6CD0
:100740009847F6E71846FFF751FEF2E708B5806BC9
:10075000436D43F040034365836D43F004038365B9
:10076000FFF744FE08BD0000F0B482B00022019201
:1007700090F85020012A00F03B820346012280F8C5
:1007800050200468A26812F004020AD0426D42F0C0
:10079000200242650120002283F8502002B0F0BC04
:1007A00070470868C0F31305002D50D1C0F3846072
:1007B00001258540E0692843E0611F684E680D68A7
:1007C0003037300A800000F00C003C5806F01F065D
:1007D0004FF01F0C0CFA06FC24EA0C04C5F38465E8
:1007E000B5402C433C501868846814F0040F37D08F
:1007F0000124856815F0080F34D001252C4365D1FC
:100800000F688C6800F11405780E800000F0040079
:100810002E58C7F304574FF0070C0CFA07FC26EAD2
:100820000C06BC4034432C50A948006800F07040CE
:10083000B0F1805F18D01C68E06810F0100F67D12D
:100840004869E468C4F382046400A04013E090FAAD
:10085000A0F0B0FA80F000F01F0001258540A9E764
:100860000024C6E70025C9E748691C68E468C4F3AA
:1008700082046400A0400D69042D57D01F680E68E3
:10088000603757F8254004F0004406F0F84630433E
:10089000204347F8250018680E694C7E012C3FD094
:1008A0001546603050F8264024F000442C4340F8B0
:1008B00026401D680C69087E012834D0286920F480
:1008C000F04004F01F04A24002432A6118688268C5
:1008D00012F0010F40F088810A68CD68D0F8C0405E
:1008E000C2F3130624EA060405F01806794DF54014
:1008F0002A40C2F313022243C0F8C020C868764AD7
:10090000904247D00A68002AC0F2E880002042E7FF
:100910004869E468A40804F004046400A040AAE75D
:100920004FF00045BDE74FF40062C7E71868026E5C
:1009300002F0F8420C68B2EB846F1CD01868426E6B
:1009400002F0F8420C68B2EB846F19D01868826E1E
:1009500002F0F8420C68B2EB846F16D01868C26ED1
:1009600002F0F8420C68B2EB846FAFD1C26E22F095
:100970000042C266AAE7026E22F000420266DDE78C
:10098000426E22F000424266E0E7826E22F00042B0
:100990008266E3E71D680A68C2F3130696BB900EF1
:1009A000013000F01F0009288CBF00200120002822
:1009B00052D09EBB940E0134A40604F0F844B6BB9A
:1009C000900E013000F01F070120B8400443C6BB61
:1009D000920E013202F01F0202EB42021205224384
:1009E0008C681435500E800000F004002E58C2F3BD
:1009F00004520727974026EA070604FA02F2324318
:100A00002A507FE792FAA2F0B0FA80F0013000F0AD
:100A10001F0009288CBF00200120C8E792FAA2F429
:100A2000B4FA84F40134A40604F0F844C7E792FA57
:100A3000A2F0B0FA80F0013000F01F070120B840AA
:100A4000C4E792FAA2F2B2FA82F2013202F01F0275
:100A500002EB42021205C2E7CEB9940E0134A4069D
:100A600004F0F844E6B9900E013000F01F070120B1
:100A7000B8400443F6B9900E013000F01F0000EBBF
:100A800040021E3A120542F000722243A8E792FA91
:100A9000A2F4B4FA84F40134A40604F0F844E1E7C3
:100AA00092FAA2F0B0FA80F0013000F01F070120A6
:100AB000B840DEE792FAA2F0B0FA80F0013000F020
:100AC0001F0000EB40021E3A120542F00072DCE704
:100AD0000010005CFFFF0F000000FF471968454849
:100AE000454CA14218BF81420CBF0120002021D1FA
:100AF000424DAC6804F0E07610B33E48806810F0D8
:100B0000010F19D001203C4FBF6817F0010F15D01D
:100B1000012738430CBF0120002000285ED0384850
:100B2000824218D03748824236D03748824244D079
:100B3000002030E6354DDCE70020E4E70027E8E759
:100B40003348806810F0010F03D0012080F00100CD
:100B5000E3E70020FAE714F4000FE3D12C4A9142B6
:100B600001D0002017E646F40002A96821F0E071E8
:100B70000A43AA60274A126892092749A1FB021278
:100B800092095200019202E0019A013A0192019AFF
:100B9000002AF9D10020FEE514F0807FC5D11C4A5F
:100BA000914201D00020F6E546F08072A96821F05C
:100BB000E0710A43AA600020EDE514F4800F15D11E
:100BC000134A914201D00020E5E546F48002A9686D
:100BD00021F0E0710A43AA600020DCE55A6D42F082
:100BE00020025A650120D6E50020D4E50020D2E598
:100BF0000220D3E5002002400021024000230240F1
:100C0000000084CB000052C70000B8CF0063025838
:100C1000006002585C000020632D3E0538B5036873
:100C20009A6812F0010F52D199682A4A114209D0EC
:100C3000436D43F010034365836D43F00103836507
:100C4000012045E004469968234A0A4042F0010227
:100C50009A60FFF7A5FB054623682049204A934286
:100C600018BF8B420DD102F50072926802F01F028C
:100C70001B498B4207D0194699420CD05AB100202B
:100C800026E0184AF1E7A1F58071F5E7FFF788FB48
:100C9000401B02280FD823681A6812F0010F14D1E4
:100CA0009A6812F0010FF1D199680B4A0A4042F09C
:100CB00001029A60EAE7636D43F010036365A36D78
:100CC00043F00103A365012002E0002000E00020C2
:100CD00038BD00BF3F000080C0FFFF7F0020024002
:100CE0000021024000630258F8B504683D4E3E4DB5
:100CF000AC4218BFB4421ED105F50075AD6805F0D1
:100D00001F05A46814F0040F67D190F85040012C1F
:100D100066D0012380F85030052D14BF0024012433
:100D2000002D08BF1C4644B9092D06D0002380F8C9
:100D30005030012352E02D4DE0E716460F460446A1
:100D4000FFF76CFF0346002843D1626D284B134028
:100D500043F4807363652368234A934233D01A4671
:100D6000934200D01DB9636D23F480136365636DF6
:100D700013F4805F2AD0A36D23F00603A365E36C10
:100D80001C4ADA63E36C1C4A1A64E36C1B4ADA649B
:100D900023681C221A60002384F8503022685368AC
:100DA00043F010035360216833463A464031E06C0B
:100DB00000F0BEFF034621688868114A024042F0F5
:100DC00004028A600AE0A2F58072C9E70023A365E5
:100DD000D5E7002284F8502000E002231846F8BD31
:100DE0000223FBE70020024000210240006302587A
:100DF000FEF0FFFFC5060008E10300084D070008EC
:100E0000C0FFFF7F38B5054603685149514A9342F8
:100E100018BF8B4223D1504B9B6813F4403F14BF43
:100E2000012300234BB304F06BFD04466B68B3F55C
:100E3000003F1CD0B3F5403F1DD0B3F5803F16D026
:100E4000FFF7C8FA41F20303984256D8434B9C423D
:100E50004DD92A68936843F48073936038BD404B42
:100E60009B6813F4403F14BF01230023DAE71B0CF7
:100E7000B4FBF3F4E4E78408E2E74FF4002005F064
:100E8000F3FD04466B68B3F5C01F16D00BD9B3F55C
:100E9000101F28D01DD8B3F5E01F22D0B3F5001FD6
:100EA000CED14409CCE7B3F5402F06D00AD8B3F52C
:100EB000802F02D0B3F5002FC2D19B0C5B00B4FB96
:100EC000F3F4BDE7B3F5801FF7D0B3F5A01FB7D19A
:100ED000F3E7B3F5201F08D0B3F5301FB0D1040AF3
:100EE000AEE70409ACE78409AAE7C409A8E72A68C1
:100EF000936823F480739360B0E76408194B9C42B5
:100F00000FD9194B2344194A934210D9184B234443
:100F1000184A934213D92A68936843F44073936044
:100F20009CE72A68936823F44073936096E72A68E5
:100F3000936823F4407343F4807393608EE72A68C8
:100F4000936823F4407343F40073936086E700BF13
:100F5000002002400021024000230240002D310108
:100F600000630258105E5F00EFA1A0FF0F5E5F00FC
:100F7000DF4341FF1FBCBE0030B583B000230193A7
:100F8000002800F01C810446436DE3B123689A6891
:100F900012F0005F03D099688A4A0A409A60236879
:100FA0009A6812F0805F1BD19968874A0A4042F024
:100FB00080529A60854B1B689B09854AA2FB0323DC
:100FC0009B09019309E009F03BFA0023A36584F82B
:100FD0005030DBE7019B013B0193019B002BF9D1D2
:100FE00023689A6812F0805F40F09D80626D42F045
:100FF00010026265A26D42F00102A26501259A68A5
:1010000012F0040F00F091800121626D12F0100FB8
:1010100040F0CD80002940F0CA80626D22F48172D8
:1010200042F0020262659A6812F0010F21D169490B
:10103000694A934218BF8B420CBF012300237AD127
:101040008A6812F0010F72D001226349896811F099
:10105000010F6ED001210A430CBF0122002242B1D0
:10106000002B73D05D4963688A6822F47C121343B5
:101070008B60FFF7AFF941F20303984202D9A368EE
:10108000102B65D0627D236B43EA4233A268134381
:10109000227F43EA0243227F012A64D0626A22B19E
:1010A00002F47872A16A0A4313432168C8684C4A63
:1010B00002401343CB6023689A6812F0040F57D0A4
:1010C00001219A6812F0080F54D001220A431BD163
:1010D000217DE26A42EA8131D868424A02400A43ED
:1010E000DA6094F83830012B46D02268136923F077
:1010F000010313612268136923F07043616B0B4392
:1011000013612046FFF77EFEE368012B46D022687C
:10111000136B23F00F031363636D23F0030343F09A
:101120000103636548E0002569E700216DE70022BF
:101130008BE700218FE72C4A926812F0010F03D051
:10114000012282F001028AE70022FAE727498AE7B2
:10115000617D226B42EA41321343227F43EA02431C
:1011600043F00C0397E7226A013A43EA424395E7CA
:101170000021A6E70022A9E7206802691C4B134062
:10118000E26B511E226C42EA0142616C0A43A16C7F
:101190000A43134343F001030361ABE721680B6B80
:1011A00023F00F03A269013A13430B63B4E7636DA5
:1011B00043F0100363650125284603B030BD0125C7
:1011C000FAE700BFC0FFFF5FC0FFFF6F5C000020B9
:1011D000632D3E0500200240002102400023024012
:1011E00003C0F0FFFCBFFFFF00600258006302581D
:1011F0001EF800FC7047704770477047704700004A
:1012000090F85020012A00F0AA8030B49AB003462A
:10121000012280F8502002685248824243D00020C8
:1012200001900198002842D0806810F0040F47D048
:101230000124906810F0040F40F08280002C7FD1D0
:10124000484C4948824218BFA2423BD100F5007089
:101250000A68002A47D0826822F440424C68224340
:1012600082601A683F4D404CA24218BFAA422FD15B
:10127000AA6812F0010F27D001243B4A926812F0AD
:10128000010F23D0012222430CBF01220022002A99
:1012900061D08468354A22400C68896821430A433A
:1012A0008260002051E000F580700190B9E75A6D2E
:1012B00042F020025A65002283F85020012047E0C6
:1012C0000024B6E72A48C3E70024D6E70022DAE77D
:1012D000284A926812F0010F03D0012282F0010225
:1012E000D5E70022FAE7816821F44041816019685E
:1012F0001C4D1D4CA14218BFA94217D1A96811F07D
:10130000010F11D001241849896811F0010F00D094
:10131000012222430CBF01220022F2B18168134A4C
:101320000A408260002010E01446ECE71149896809
:1013300011F0010F00D00122B2FA82F25209ECE75B
:101340005A6D42F020025A650120002283F8502095
:101350001AB030BC70470020F7E70020F5E7022004
:10136000704700BF0020024000210240E0F0FFFF74
:1013700000630258006002580649CB6823F4E0631A
:101380001B041B0C000200F4E0600343024A1A43F2
:10139000CA60704700ED00E00000FA0530B4154B5C
:1013A000DB68C3F30223C3F10704042C28BF042421
:1013B0001D1D062D14D9033B4FF0FF3505FA04F42B
:1013C00021EA0401994005FA03F322EA03031943D1
:1013D000002807DB0901C9B2074B195430BC70471C
:1013E0000023E9E700F00F000901C9B2034B1954CB
:1013F000F4E700BF00ED00E000E400E014ED00E0E1
:10140000002807DB00F01F02400901239340024A35
:1014100042F82030704700BF00E100E000280CDBFC
:1014200000F01F024009012393402030034A42F894
:101430002030BFF34F8FBFF36F8F704700E100E0A4
:101440000138B0F1807F0AD2064B5860064AF0217D
:1014500082F823100020986007221A60704701204C
:10146000704700BF10E000E000ED00E0BFF35F8FC9
:10147000044A536A23F480335362034B00225A60B8
:10148000704700BF00ED00E090ED00E040F001008B
:10149000054B5860054A536A43F480335362BFF3E7
:1014A0004F8FBFF36F8F704790ED00E000ED00E0CD
:1014B0004278134B9A60037823B9114B0022DA600B
:1014C0001A61704743680E4AD360017BC37A1B06DA
:1014D00043EA0173817A43EAC143417B43EA814392
:1014E000817B43EA4143C17B43EA0143417A43EABA
:1014F0000123017A43EA410301780B4313617047EA
:1015000090ED00E0F0B4876D446E856E6560C46E4A
:1015100014B1046F456F656004683C4E3C4DAC42AD
:1015200018BFB44252D01835AC424FD01835AC4237
:101530004CD01835AC4249D01835AC4246D018359D
:10154000AC4243D01835AC4240D005F55675AC429C
:101550003CD01835AC4239D01835AC4236D01835AD
:10156000AC4233D01835AC4230D01835AC422DD017
:101570001835AC422AD01835AC4227D0254E264D1E
:10158000AC4218BFB44211D0244DAC420ED0143539
:10159000AC420BD01435AC4208D01435AC4205D067
:1015A0001435AC4202D01435AC4223D1C46D04F0E2
:1015B0001F050124AC407C60046863608368402B95
:1015C0001FD0036899600368DA6013E0C46D04F00B
:1015D0001F053F24AC40BC6005682C6824F48024BF
:1015E0002C60046863608368402B05D003689960B1
:1015F0000368DA60F0BC704703689A600368D960DA
:10160000F8E703689A600368D960F3E710000240C6
:1016100028000240085402581C5402583054025802
:1016200002682849284B9A4218BF8A422FD01833A3
:101630009A422CD018339A4229D018339A4226D095
:1016400018339A4223D018339A4220D018339A4242
:101650001DD003F556739A4219D018339A4216D00A
:1016600018339A4213D018339A4210D018339A4242
:101670000DD018339A420AD018339A4207D0183343
:101680009A4204D022F0FF028265806D704710B448
:10169000D3B2103B0D49A1FB03131B0903F0070153
:1016A0000B4C615CC165032B06D80A4B1340836564
:1016B000806D5DF8044B7047064B1340043383651F
:1016C000F6E700BF1000024028000240ABAAAAAA19
:1016D000D858010800FCFFFF83699BB9836A012B7E
:1016E0000AD01BB1022B01D000207047C36A13F04F
:1016F000807F2ED100207047C36AB3F1C07F2AD00B
:1017000000207047B3F5005F06D0836A022B2AD908
:10171000032B16D000207047836A032B03D8DFE821
:1017200003F01C041C0A00207047C36A13F0807F7A
:1017300015D100207047C36AB3F1C07F11D00020DB
:101740007047C36A13F0807F01D0012070470020EA
:101750007047012070470120704701207047012029
:10176000704701207047012070470000036822493C
:10177000224A934218BF8B4228D01432934225D07C
:101780001432934222D0143293421FD01432934227
:101790001CD01432934219D01432934216D0DAB2CC
:1017A000103A1749A1FB0212120916491944A82937
:1017B0001FD9154B13449B000366144B436602F07C
:1017C0001F02012303FA02F282667047DBB2083B74
:1017D0000F4AA2FB03231B090E4A1A449200026619
:1017E0000D4A426603F01F03012202FA03F38366E7
:1017F00070470832DDE700BF085402581C540258F5
:10180000ABAAAAAAF0FBFDBF00820010800802402C
:10181000CDCCCCCC009600168058025801794A1ED7
:10182000072A2CD830B40368154D164CA34218BFB4
:10183000AB4218D01434A34215D01434A34212D0B2
:101840001434A3420FD01434A3420CD01434A34256
:1018500009D01434A34206D00B4B0B449B00C36643
:101860000A4B036705E00A4B0B449B00C366094B18
:101870000367012303FA02F2426730BC70477047E6
:10188000085402581C5402583F820010400902407C
:101890003F9600164059025870B50446FEF780FD89
:1018A000002C00F0448105462368A249A24A9342D5
:1018B00018BF8B420CBF0122002250D030318B4226
:1018C0004DD018318B424AD018318B4247D0183155
:1018D0008B4244D018318B4241D018318B423ED0DC
:1018E00001F556718B423AD018318B4237D01831FE
:1018F0008B4234D018318B4231D018318B422ED0EC
:1019000018318B422BD018318B4228D018318B42A2
:1019100025D08A498A4A934218BF8B4200F0BF8083
:10192000884A934200F0BB801432934200F0B780A3
:101930001432934200F0B3801432934200F0AF802F
:101940001432934200F0AB801432934200F0A7802F
:1019500040236365032384F8353001204AE00021E9
:1019600084F83410022184F835107ABB764A934209
:101970002CD01832934229D01832934226D01832F4
:10198000934223D01832934220D0183293421DD074
:1019900002F55672934219D01832934216D018327B
:1019A000934213D01832934210D0183293420DD084
:1019B000183293420AD01832934207D01832934219
:1019C00004D01A6822F001021A6003E01A6822F0BB
:1019D00001021A6023681A6812F0010F0BD0FEF79B
:1019E000DFFC401B0528F5D920236365032384F819
:1019F0003530012070BD1A6854481040A168E26873
:101A00000A4321690A4361690A43A1690A43E169FA
:101A10000A43216A0A430243616A042934D01A60E6
:101A20002668756925F00705636A1D43042B07D1F5
:101A3000A36A1D43E36A1BB12046FFF74DFE40BB7E
:101A400075612046FFF7ECFDE36D03F01F023F23B5
:101A5000934083602046FFF789FEA368802B59D00E
:101A6000236E22791A60636EA26E5A606368013B2E
:101A7000072B52D90023E366236763670020606564
:101A8000012384F83530B5E7E16A206B01430A434E
:101A9000C5E740236365012084F83500AAE70022EA
:101AA00084F83420022284F835201A68284911402D
:101AB000A268402A06D0802A01D0002203E04FF419
:101AC000804200E01022E06842EAD002206942EA47
:101AD000D002606942EAD002A06942EAD002E0691D
:101AE00042EAD002206A42EA10120A431A602268CF
:101AF000184B1344184AA2FB03231B099B00E36500
:101B00002046FFF78DFDE36D03F01F020123934094
:101B100043609FE700236360A2E72046FFF77EFE55
:101B2000E36E00221A60236F626F5A60A6E70120FD
:101B300060E700BF1000024028000240085402582D
:101B40001C54025830540258400002403F8010FE9E
:101B50000F00FEFFF8ABFDA7CDCCCCCC002800F0E9
:101B6000DB8010B5044603686C496D4A934218BF88
:101B70008B422FD0183293422CD01832934229D066
:101B80001832934226D01832934223D0183293420F
:101B900020D0183293421DD002F55672934219D0CC
:101BA0001832934216D01832934213D0183293420F
:101BB00010D0183293420DD0183293420AD0183206
:101BC000934207D01832934204D01A6822F00102DF
:101BD0001A6003E01A6822F001021A6023684F4974
:101BE0004F4A934218BF8B4244D01832934241D09F
:101BF000183293423ED0183293423BD0183293426F
:101C000038D01832934235D01832934232D002F590
:101C1000567293422ED0183293422BD018329342F0
:101C200028D01832934225D01832934222D018324D
:101C300093421FD0183293421CD01832934219D0CD
:101C40003849394A934218BF8B4247D0374A9342AA
:101C500044D01432934241D0143293423ED01432D5
:101C600093423BD01432934238D01432934235D051
:101C7000012032E000221A6023685A6023689A60CB
:101C80002368DA6023681A61236821225A6120469A
:101C9000FFF7C6FCE36D03F01F023F239340836010
:101CA0002046FFF763FD236E23B100221A60636EA6
:101CB000A26E5A606368013B072B23D90020E066BF
:101CC00020676067E06320646064A064E06420656E
:101CD000606584F8350084F8340010BD00221A6075
:101CE00023685A6023689A602368DA6023681A615F
:101CF0002046FFF795FCE36D03F01F02012393409C
:101D00004360CDE72046FFF789FDE36E00221A60AD
:101D1000236F626F5A60D1E70120704710000240C4
:101D200028000240085402581C54025830540258EB
:101D3000002800F0F48070B5044690F834000128C3
:101D400000F0EF80012084F8340094F83500C0B230
:101D5000012807D0002384F834304FF40063636512
:101D6000012070BD022084F83500002060652068E5
:101D70006D4E6E4DA84218BFB0422FD01835A84204
:101D80002CD01835A84229D01835A84226D01835AD
:101D9000A84223D01835A84220D01835A8421DD01B
:101DA00005F55675A84219D01835A84216D0183531
:101DB000A84213D01835A84210D01835A8420DD02B
:101DC0001835A8420AD01835A84207D01835A842BD
:101DD00004D0056825F00105056003E0056825F0DD
:101DE000010505602046FFF78DFB23684E494F4AE9
:101DF000934218BF8B4238D01832934235D01832F4
:101E0000934232D0183293422FD0183293422CD0C2
:101E10001832934229D01832934226D002F55672D6
:101E2000934222D0183293421FD0183293421CD0D2
:101E30001832934219D01832934216D01832934276
:101E400013D01832934210D0183293420DD01A6832
:101E500022F00E0242F00A021A60236C93B122684B
:101E6000136843F0040313600CE01A6822F01E02AA
:101E700042F016021A60236C23B12268136843F003
:101E800008031360236E1A6812F4803F03D01A68A7
:101E900042F480721A60E36E1BB11A6842F48072D9
:101EA0001A6023682049214A934218BF8B4230D0E0
:101EB000183293422DD0183293422AD018329342CE
:101EC00027D01832934224D01832934221D01832AE
:101ED00093421ED002F5567293421AD018329342A2
:101EE00017D01832934214D01832934211D01832BE
:101EF00093420ED0183293420BD01832934208D03E
:101F00001832934205D01A6842F001021A6000208C
:101F100027E71A6842F001021A60002021E7012039
:101F2000704702201DE700BF100002402800024059
:101F3000002800F0E48008B5024690F83530DBB2A6
:101F4000022B03D080234365012008BD03686E483F
:101F50006E498B4218BF83420CBF0121002100F063
:101F60008E803030834200F08A801830834200F047
:101F700086801830834200F08280183083427ED001
:101F8000183083427BD01830834278D000F55670E9
:101F9000834274D01830834271D0183083426ED09F
:101FA000183083426BD01830834268D01830834297
:101FB00065D01830834262D0183083425FD01968F0
:101FC00021F00E0119601368A0F595604F498B420E
:101FD00018BF83422AD04E498B4227D018318B42FA
:101FE00024D018318B4221D018318B421ED01831A9
:101FF0008B421BD018318B4218D001F556718B42A1
:1020000014D018318B4211D018318B420ED01831B8
:102010008B420BD018318B4208D018318B4205D03F
:1020200018318B4202D018318B4263D1196821F0EC
:1020300001011960116E0B6823F480730B60906DC1
:10204000D36D03F01F0101238B404360536E916EEB
:102050005960D36E33B1196821F480711960136F20
:10206000516F5960002382F83430012382F83530F3
:10207000136D002B45D010469847002065E70420DB
:1020800082F8350081BB224A93422DD01832934208
:102090002AD01832934227D01832934224D01832D3
:1020A000934221D0183293421ED002F556729342C9
:1020B0001AD01832934217D01832934214D01832E3
:1020C000934211D0183293420ED0183293420BD063
:1020D0001832934208D01832934205D01A6822F081
:1020E00001021A60002030E71A6822F001021A602B
:1020F00000202AE7196821F0010119609AE7012000
:102100007047002021E700BF100002402800024075
:1021100040000240F0B583B0044600230193A24B77
:102120001D68A24BA3FB0535AD0A876D3E68D7F845
:1021300000C003689E499F48834218BF8B420CBF72
:102140000120002061D09C4A93425ED01832934215
:102150005BD01832934258D01832934255D018327F
:10216000934252D0183293424FD002F556729342A6
:102170004BD01832934248D01832934245D018328F
:10218000934242D0183293423FD0183293423CD00F
:102190001832934239D01832934236D08749884A50
:1021A000934218BF8B4212D0864A93420FD014320A
:1021B00093420CD01432934209D01432934206D089
:1021C0001432934203D01432934240F062821A6870
:1021D000E16D01F01F010420884010EA0C0F00F0AF
:1021E000A88212F0040F00F0A482786012F4004F6D
:1021F00000F05B8212F4803F40F05182A36C002B10
:1022000000F047822046984743E2E26D02F01F014A
:1022100008228A40324241D070BB674A93422BD099
:102220001832934228D01832934225D01832934264
:1022300022D0183293421FD0183293421CD002F59C
:102240005672934218D01832934215D018329342E6
:1022500012D0183293420FD0183293420CD0183259
:10226000934209D01832934206D01832934203D0D9
:102270001A68C2F3C00202E01A68C2F380026AB1AF
:102280001A6822F004021A60E36D03F01F020823AB
:102290009340BB60636D43F001036365E26D02F040
:1022A0001F0226FA02F313F0010F37D023684048CB
:1022B00040498B4218BF83422CD018318B4229D021
:1022C00018318B4226D018318B4223D018318B42E3
:1022D00020D018318B421DD018318B421AD001F515
:1022E00056718B4216D018318B4213D018318B4265
:1022F00010D018318B420DD018318B420AD01831D2
:102300008B4207D018318B4204D018318B4201D058
:102310001B6803E05B6913F0800F3BD1E36D03F0B2
:102320001F03042202FA03F3334251D022682048EB
:1023300020498A4218BF824246D018318A4243D08F
:1023400018318A4240D018318A423DD018318A4231
:102350003AD018318A4237D018318A4234D001F548
:1023600056718A4230D018318A422DD018318A42B3
:102370002AD018318A4227D018318A4224D0183105
:102380008A4221D018318A421ED018318A421BD08D
:1023900013681DE0012303FA02F2BA60636D43F093
:1023A00002036365BAE700BF5C000020B5814E1BE5
:1023B0001000024028000240400002400854025829
:1023C0001C54025830540258126812F0020F3DD1CA
:1023D000E36D03F01F03102202FA03F333425FD0D0
:1023E00022689B489B498A4218BF824234D01831E8
:1023F0008A4231D018318A422ED018318A422BD0ED
:1024000018318A4228D018318A4225D018318A42A0
:1024100022D001F556718A421ED018318A421BD053
:1024200018318A4218D018318A4215D018318A42A0
:1024300012D018318A420FD018318A420CD018318C
:102440008A4209D01268C2F3800208E0BB60636D63
:1024500043F004036365BBE71268C2F3C002FAB13C
:10246000BB6023681A6812F4802F0DD01B6813F428
:10247000002F04D1236C9BB12046984710E0A36C39
:1024800073B1204698470BE01A6812F4807F03D19D
:102490001A6822F008021A60236C0BB12046984794
:1024A000E36D03F01F03202202FA03F3334200F02E
:1024B0008E802268664867498A4218BF82422ED0C1
:1024C00018318A422BD018318A4228D018318A42DA
:1024D00025D018318A4222D018318A421FD01831B3
:1024E0008A421CD001F556718A4218D018318A42AE
:1024F00015D018318A4212D018318A420FD01831C3
:102500008A420CD018318A4209D018318A4206D04A
:1025100018318A4203D01268C2F3400202E0126806
:10252000C2F30012002A52D0BB6094F83530DBB2FF
:10253000042B0ED023681A6812F4802F35D01B6844
:1025400013F4002F2CD1636C002B40D02046984709
:102550003DE02268136823F0160313602268536974
:1025600023F080035361236CB3B12268136823F016
:1025700008031360E36D03F01F023F239340BB6029
:10258000002384F83430012384F83530236D002B88
:102590007FD0204698477CE0A36C002BE5D1E9E78B
:1025A000E36BA3B12046984711E01A6812F4807FCC
:1025B00009D11A6822F010021A60002384F834301E
:1025C000012384F83530E36B0BB120469847636DE7
:1025D000002B5ED0636D13F0010F56D0042384F8F6
:1025E000353023681A491B4A934218BF8B4233D0B7
:1025F0001832934230D0183293422DD01832934281
:102600002AD01832934227D01832934224D018325D
:10261000934221D002F5567293421DD01832934254
:102620001AD01832934217D01832934214D018326D
:10263000934211D0183293420ED0183293420BD0ED
:102640001832934208D01A6822F001021A6007E09B
:1026500010000240280002401A6822F001021A60AD
:10266000019B01330193AB4204D823681B6813F02C
:10267000010FF5D1002384F8343023681B6813F070
:10268000010F08D0032384F83530E36C0BB12046EA
:10269000984703B0F0BD012384F83530F5E7236C8B
:1026A000002BF6D020469847F3E712F0200F35D1E3
:1026B00023686449644A934218BF8B422AD0183277
:1026C000934227D01832934224D01832934221D01B
:1026D000183293421ED0183293421BD018329342C4
:1026E00018D002F55672934214D01832934211D08A
:1026F000183293420ED0183293420BD018329342C4
:1027000008D01832934205D01832934202D01832C2
:10271000934209D11A6822F008021A60236C002B38
:10272000B7D020469847B4E71A6822F004021A602E
:10273000F4E70220884010EA0C0F60D012F0020F7C
:102740005DD0786012F4004F0ED012F4803F05D1B6
:10275000636C002B9DD0204698479AE7E36B002BD3
:1027600097D02046984794E712F0200F3BD123687A
:102770003449354A934218BF8B422AD018329342CB
:1027800027D01832934224D01832934221D01832E5
:1027900093421ED0183293421BD01832934218D065
:1027A00002F55672934214D01832934211D0183267
:1027B00093420ED0183293420BD01832934208D075
:1027C0001832934205D01832934202D01832934205
:1027D00010D11A6822F014021A60002384F83430F1
:1027E000012384F83530E36B002B3FF452AF2046D1
:1027F00098474EE71A6822F00A021A60EDE70820AF
:1028000000FA01F111EA0C0F3FF443AF12F0080F88
:102810003FF43FAF1A6822F00E021A60E36D03F036
:102820001F03012202FA03F37B606265002384F830
:10283000343084F83520E36C002B3FF42AAF204677
:10284000984726E71000024028000240406D70477C
:10285000F0B482B000233AE0092400E00024B44040
:102860003C4302356F4E46F825406F4C2568D443F3
:1028700004EA05064F6817F4803F01D042EA0506D6
:10288000694D2E606E6804EA06054F6817F4003F34
:1028900001D042EA0605644E75604FF0B0452D68E0
:1028A00004EA05064F6817F4801F01D042EA0506C6
:1028B0004FF0B0452E606D682C404E6816F4001F36
:1028C00001D042EA05044FF0B042546001330A6877
:1028D00032FA03F400F0A28001249C402240F5D09B
:1028E0004D68122D18BF022D10D1DE08083650F8A1
:1028F00026C003F00705AF000F25BD402CEA050CEC
:102900000D69BD4045EA0C0540F8265006685F0099
:102910000325BD40ED4305EA060C4E6806F00306AC
:10292000BE4046EA0C0606604E6806F1FF3C112EDA
:1029300018BFBCF1010F01D9122E11D1866805EA2A
:10294000060CCE68BE4046EA0C068660466826EA5B
:10295000040C4E68C6F300149C4044EA0C04446026
:10296000C46825408C68BC402C43C4604C6814F09B
:10297000805FABD02D4CD4F8F45045F00205C4F87C
:10298000F450D4F8F44004F002040194019C9D0832
:10299000AE1C244C54F8267003F00304A6000F2448
:1029A000B44027EA0407224CA0423FF457AF04F595
:1029B0008064A04222D004F58064A04220D004F5B7
:1029C0008064A0421ED004F58064A0421CD004F5AF
:1029D0008064A0421AD004F58064A04218D004F5A7
:1029E0008064A04216D004F58064A04214D004F59F
:1029F0008064A0423FF430AF0A2430E701242EE780
:102A000002242CE703242AE7042428E7052426E7E8
:102A1000062424E7072422E7082420E702B0F0BCBC
:102A2000704700BF0004005880000058004402585E
:102A300000000258002331FA03F200F09780F0B54D
:102A40002CE0092600E0002606FA04F4AC4272D01D
:102A500005685C00032606FA04F42543056023FAA2
:102A600006F5083550F8256003F007074FEA870C94
:102A70000F2707FA0CF726EA070640F82560856855
:102A8000E44325408560456825EA02024260C26849
:102A90001440C460013331FA03F266D001229A4037
:102AA00012EA0107F6D04FEA930C0CF10205304C04
:102AB00054F8255003F00304A4000F2606FA04FE80
:102AC0000EEA05052B4EB042BDD006F58066B04239
:102AD00021D006F58066B0421FD006F58066B04270
:102AE0001DD006F58066B0421BD006F58066B04268
:102AF00019D006F58066B04217D006F58066B04260
:102B000015D006F58066B04213D006F58066B04257
:102B100097D00A2698E7012696E7022694E703262F
:102B200092E7042690E705268EE706268CE707261F
:102B30008AE7082688E70E4C0CF1020554F8256058
:102B400026EA0E0644F825600B4D2E68FC4326400D
:102B50002E606E6826406E604FF0B0452E682640AD
:102B60002E606E6834406C6072E7F0BD704700BF45
:102B70000004005800000258800000580369194200
:102B800001D1002070470120704712B9090481610A
:102B90007047816170470000F8B50668346A04F038
:102BA0000F07C4F34343C4F30A14022B2ED16CB3B2
:102BB00007EB8702D3000344596C39B3054622461C
:102BC000304606F0FDF9BA003A44D3002B445A6C63
:102BD00022445A64DA6C2244DA6406EB4713D3F8D1
:102BE00010150B4A0A408AB1D3F8002522F0804222
:102BF00042F00042C3F80025BB00D919CA002A449C
:102C000092F8503083F0010382F85030F8BD00BFD5
:102C10000000F81FF0B585B09DF828509DF82C6095
:102C2000BDF8307090F8B842012C41D0012480F8F2
:102C3000B8424FEA810C8C444FEACC0404444FF074
:102C4000000C84F83DC084F83830A4F8407084F853
:102C5000391084F83F6002F07F0C84F83AC012F01B
:102C6000800F1BD101EB810C4FEACC0404444FF0E0
:102C7000000C84F83BC0044601EB810C4FEACC0009
:102C8000204480F83C50029701960095206806F099
:102C90009FFA002384F8B83205B0F0BD01EB810C37
:102CA0004FEACC0404444FF0010C84F83BC0E2E747
:102CB0000220F1E790F8B832012B0BD010B5044692
:102CC000012380F8B832006806F00BFB002084F87E
:102CD000B80210BD02207047002845D0F0B58BB077
:102CE0000646046890F8B932002B38D0032386F8E2
:102CF000B932E36B13F4807F01D100233361306874
:102D000006F006F9344654F810CB6D460FCC0FC5CB
:102D10000FCC0FC594E8030085E80300371D97E842
:102D20000E00604606F0A8F80121306806F0F6F8BB
:102D3000344654F810CB6D460FCC0FC50FCC0FC5E1
:102D400094E8030085E8030097E80E00604606F06B
:102D5000B5F9012386F8B93200200BB0F0BD80F838
:102D6000B8320BF079F8C1E701207047F8B59DF84B
:102D70001870BDF820608D000D44EC00044484F808
:102D80003B2084F83F308FB98D000D44EC000444A3
:102D9000032584F842509DF8245084F83D50032BBD
:102DA00000F29580DFE803F00A8C2E5D01EB8105CF
:102DB000EC000444022584F84250F0E7012F08BFDC
:102DC000002A40F0848036B901EB8102D30003442D
:102DD000012283F8512001EB8102D300034493F8D0
:102DE00051303BB901EB8102D3000344002283F848
:102DF00042206CE001EB8102D3000344022283F8FD
:102E0000422064E0B2B901EB8102D300034493F89D
:102E100051303BB901EB8102D3000344002283F817
:102E2000422054E001EB8102D3000344022283F8E4
:102E300042204CE001EB8102D300034493F8503070
:102E40003BB901EB8102D3000344002283F8422006
:102E50003DE001EB8102D3000344022283F84220CB
:102E600035E0B2B901EB8102D300034493F851304D
:102E70003BB901EB8102D3000344002283F84220D6
:102E800025E001EB8102D3000344022283F84220B3
:102E90001DE001EB8102D300034493F850303BB9AD
:102EA00001EB8102D3000344002283F842200EE0AC
:102EB00001EB8102D3000344022283F8422006E0A2
:102EC00001EB8102D3000344002283F842208A00F0
:102ED0005418E3000344079C5C649E64002483F858
:102EE0005C40DC6483F8391083F85D401144CB000A
:102EF00003F13801027C0144006806F073FAF8BD62
:102F000030B583B005460468D4F840340193D4F852
:102F100040340093009B23F02E030093019B13F099
:102F2000020F07D0019B13F0010F25D1009B43F046
:102F300002030093019B13F0080F10D0009B43F095
:102F400008030093019B13F0040F2DD0AB69022BF3
:102F500015D0EB68012B22D028460AF0E4FF019B34
:102F600013F0200F03D0009B43F020030093009B3D
:102F7000C4F8403403B030BD0AF0C8FFD6E7019B67
:102F800003F4C023B3F5802F04D00121286806F094
:102F900033F8E1E70221286806F02EF8DCE74EF668
:102FA0006022C4F80424D7E728460AF0C2FFD6E717
:102FB000F8B506460D46076807EB411707F5A0640C
:102FC000A36813F0040F3CD00423A360E36843F02C
:102FD0000203E360A36813F4007F68D1A36813F0D1
:102FE000010F00F08D8033694BB1AA002A44D30051
:102FF00033449A6C2169C1F31201521ADA64AA00AF
:103000002A44D3003344012283F85D2000219965CE
:10301000A26093F83F20022A14BF002301238A42B2
:1030200008BF0123002B4ED1032A57D0AB005919FA
:10303000CA00324492F8503083F0010382F85030D5
:10304000F8BDA36813F0200F02D02023A360C1E7CE
:10305000A36813F0080F17D1A36813F4806FB9D0D9
:10306000E36843F00203E360006806F03AF91023D6
:10307000A36005EB8502D3003344082283F85D206A
:103080004FF48063A360A5E7E36843F00203E360C5
:1030900001EB8102D3000344052283F85D20102355
:1030A000A3600823A360006806F01BF992E7E368B9
:1030B00043F00203E3602946306806F012F94FF44A
:1030C0000073A360BCE7E36843F00203E3602946B2
:1030D000306806F006F91023A360A7E7D7F800359B
:1030E00043F00053C7F8003505EB8502D3003344A5
:1030F000012283F85C20294630460AF013FF95E749
:10310000A36813F0020F62D0E36823F00203E360C8
:1031100005EB8502D300334493F85D30012B20D0BA
:10312000052B32D0082B18BF062B3ED1AA002A440B
:10313000D30033449A6D01329A65032A2DD9AA002F
:103140002A44D300334400229A65042283F85C2089
:10315000D7F8003523F0804343F00043C7F800352B
:1031600006E005EB8502D3003344012283F85C209E
:103170000223A36005EB8502D300334493F85C205F
:10318000294630460AF0CEFE5AE705EB8502D30009
:103190003344052283F85C20EAE705EB8502D3007F
:1031A0003344022283F85C20D2E7032BE0D105EB05
:1031B0008502D3003344022283F85C20D7F800351F
:1031C00023F0804343F00043C7F80035D0E7A368FD
:1031D00013F0800F21D1A36813F0100F3FF430AF2C
:1031E00005EB8502D3001A46334493F83F30032B96
:1031F0002BD0022B14BF00220122002B14BF134638
:1032000001233BB105EB8502D300334400229A65CC
:1032100033694BB31023A36012E7E36843F0020362
:10322000E360AB005919CA003244916D01319165D8
:103230002B44DA003244062382F85D302946306898
:1032400006F04FF88023A360FAE605EB8502D30071
:10325000334400229A65E36843F00203E3602946A1
:10326000306806F03EF8D5E705EB8502D30033441D
:10327000032283F85D20E36843F00203E3602946FC
:10328000306806F02EF8C5E7F8B5036803EB411384
:1032900003F5A064A26812F0040F24D10E4605467F
:1032A000A26812F0200F25D02023A36001EB810239
:1032B000D3001A46034493F83D30012B19D18B00FB
:1032C0000244002182F83D103344DA000244022314
:1032D00082F85C30E36843F00203E3603146006843
:1032E00005F0FFFF05E00423A360E36843F0020359
:1032F000E360F8BDA26812F0400F34D1A26812F466
:10330000007F4AD1A26812F0010F51D1A26812F0D9
:10331000080F62D1A26812F0100F6FD08A000A4421
:10332000D300034400229A65032283F85D2093F8BA
:103330003D306BB901EB8102D300034493F83C307C
:1033400033B901EB8102D3000344012283F83D200D
:10335000E36843F00203E3603146286805F0C1FFEB
:103360001023A360C5E78B005918CA00024404214A
:1033700082F85D10012182F83D103344DA000244E6
:1033800000239365E36843F00203E360314600687D
:1033900005F0A7FF4023A360ABE7E36843F0020317
:1033A000E360006805F09DFF4FF40073A360A0E7A1
:1033B0008F007A18D300034400229A65E36843F033
:1033C0000203E360006805F08CFF0123A360B919D4
:1033D000C800284480F85D308BE70823A360E368C9
:1033E00043F00203E360006805F07BFF06EB860113
:1033F000C8002844052380F85D307AE7A26812F0FF
:10340000800F36D1A26812F4806F43D1A26812F007
:10341000020F3FF46EAFE26822F00202E26001EBBD
:103420008101CA001146024492F85D20012A45D06C
:10343000032A57D0042A69D0052A6FD0082A18BF5A
:10344000062A56D1282101FB06018A6D01328A65C0
:10345000032A69D90A4600219165042182F85C108B
:10346000D3F8002522F0804242F00042C3F8002544
:103470003FE0E36843F00203E360006805F031FFDA
:1034800006EB8601CB002B44062283F85D208023C7
:10349000A3602EE7E36843F00203E360006805F0F1
:1034A00020FF1023A3604FF48063A36006EB860126
:1034B000CB002B44082283F85D201AE70B46034417
:1034C000012283F85C2093F83F30023BDBB2934249
:1034D0000FD80B46034493F8512082F0010283F881
:1034E000512006E006EB8602D3000344022283F853
:1034F0005C200223A36006EB8602D3002B4493F8E2
:103500005C20314628460AF00DFDF2E606EB860205
:10351000D3000344022283F85C20EAE7282303FB5C
:10352000060383F85C20E4E7282202FB060202215E
:1035300082F85C1094E7F8B504460568284605F063
:1035400057FD012800D0F8BD206805F04DFD00288A
:10355000F9D0206805F048FD10F4001F03D023685F
:103560004FF400125A61206805F03EFD10F4801FF0
:1035700003D023684FF480125A61206805F034FDAF
:1035800010F0806F03D023684FF080625A6120688A
:1035900005F02AFD10F0020F02D0236802225A61C2
:1035A000206805F021FD10F0005F08D023684FF07F
:1035B00000525A61D5F8403413F0010F25D020682D
:1035C00005F012FD10F0807F27D1206805F00CFD7A
:1035D00010F0080F25D1206805F006FD10F0007FDF
:1035E00026D1206805F000FD10F0100FABD0226846
:1035F000936923F0100393612046FFF7CDFA226808
:10360000936943F0100393619DE720460AF084FC20
:103610000121206805F0F0FCD1E72046FFF770FC9F
:10362000D3E720460AF06CFC236808225A61D2E7EF
:10363000206805F051FE0746002604E0F1B220465E
:10364000FFF722FE0136A368B34212D906F00F033A
:1036500027FA03F313F0010FF4D005EB4613D3F868
:10366000003513F4004FE9D0F1B22046FFF7A0FC7B
:10367000E8E723684FF000725A61B2E738B590F876
:10368000B832012B0ED00446012580F8B8520068EC
:1036900005F038FC2946206805F0EDFC002084F890
:1036A000B80238BD0220FCE790F8B832012B0BD0ED
:1036B00010B50446012380F8B832006805F03EFFDB
:1036C000002084F8B80210BD0220704708B50068D9
:1036D00005F0B2FC08BD01EB8101CB00184490F865
:1036E0005C00704701EB8101CB001844C06C70474F
:1036F00008B5006805F067FD08BD08B5006805F06D
:1037000057FD08BD03689A6912F0020F01D000222C
:103710009A6203689A6912F0010F03D19A6942F024
:1037200001029A61704770B4039E05686868740D61
:1037300004F4806444F07F7444F4583444F47F7497
:1037400044F0030420EA0400C1F3090141EA024104
:10375000194331430143696070BC7047436B1D4A94
:10376000934217D01C4A934214D011F0040F2FD16A
:10377000002311F0010F01D043F0F20311F0020F0A
:1037800001D043F0F40301F01201122910D143F0EB
:1037900020030DE011F0040F0FD1002301F01102FE
:1037A000112A0CD001F0120112290BD012290CD0D1
:1037B00001680A6813430B607047B823EEE743F0D3
:1037C0009003EFE743F02003F0E743F04003EFE717
:1037D000B823CEE71D4800081D46000811F0010F70
:1037E00009D090F8413003F02803282B01D0F223B0
:1037F00002E0422300E0002311F0020F2CD010B4AD
:1038000043F0440490F8412002F02802282A18D0FE
:1038100043F0F40311F0040F01D043F0B80301F0BA
:103820001102112A0FD001F0120112290ED0122913
:103830000FD001680A6822EA03030B605DF8044BAD
:1038400070472346E6E743F09003ECE743F020039C
:10385000EDE743F04003ECE711F0040F01D043F033
:10386000B80301F01102112A0BD001F01201122944
:103870000AD012290BD001680A6822EA03030B6000
:10388000704743F09003F0E743F02003F1E743F083
:103890004003F0E770B504460D46164603689B6981
:1038A00013F0100F1CD023689A6912F0200F19D161
:1038B000B5F1FF3FF7D0FCF773FD801BA84201D89C
:1038C000002DF0D1636C43F020036364202384F85F
:1038D0004130002384F8423084F84030012020E059
:1038E00000201EE01022DA6123682025DD612046D9
:1038F000FFF708FF2268536823F0FF7323F48B332C
:1039000023F4FF7323F001035360636C43F004035B
:10391000636484F84150002384F8423084F84030D6
:10392000012070BD70B504460D46164623689B699C
:1039300013F0020F1DD1324629462046FFF7AAFF99
:10394000C8B9B5F1FF3FF1D0FCF72AFD801BA842B2
:1039500001D8002DEAD1636C43F020036364202377
:1039600084F84130002384F8423084F8403001204C
:1039700000E0002070BD0120FCE7F8B505460F46C9
:1039800016461C462B689B6937EA03030CBF0123CC
:103990000023B34218D1B4F1FF3FF3D0FCF700FD90
:1039A000069BC01AA04201D8002CEBD16B6C43F0EF
:1039B00020036B64202385F84130002385F84230D2
:1039C00085F84030012000E00020F8BD70B50546C4
:1039D0000C4616462B689B6913F0200F1AD132460D
:1039E00021462846FFF756FFB0B9FCF7D9FC801BEB
:1039F000A04201D8002CEDD16B6C43F020036B6426
:103A0000202385F84130002385F8423085F8403086
:103A1000012070BD0020FCE70120FAE7002857D004
:103A200010B5044690F84130002B41D0242384F88F
:103A300041302268136823F0010313606368226831
:103A400023F0706313612268936823F4004393604A
:103A5000E368012B31D0A368226843F404439360E8
:103A6000E368022B2FD0226851681A4B0B43536036
:103A70002268D36823F40043D36023696269134347
:103A8000A169226843EA0123D360E369216A2268BD
:103A90000B4313602268136843F001031360002096
:103AA0006064202384F84130206384F8420010BD14
:103AB00080F8403008F02AFDB8E7A368226843F494
:103AC00000439360CCE723684FF400625A60CAE772
:103AD00001207047008000022DE9F04383B090F888
:103AE0004150EDB2202D40F0A48090F84040012CD0
:103AF00000F0A480984617460E4604464FF0010990
:103B000080F84090FCF74CFC0546009019234A468B
:103B10004FF400412046FFF730FF002840F090802E
:103B2000212384F84130102384F842300023636459
:103B30006762A4F82A806363638D9BB2FF2B0AD966
:103B4000FF222285424B00934FF08073314620467E
:103B5000FFF7E9FD18E0628D92B222853C4B00939D
:103B60004FF00073D2B231462046FFF7DCFD0BE088
:103B7000628D92B22285002300934FF00073D2B27F
:103B800031462046FFF7CFFD638D9BB2002B33D02B
:103B90002A460A992046FFF7C5FE002852D1626ADC
:103BA000236812789A62636A01336362638D013B12
:103BB0009BB26385238D013B9BB22385628D92B2BC
:103BC000002AE1D0002BDFD100950A9B0022802142
:103BD0002046FFF7D2FE002836D1638D9BB2FF2B23
:103BE000C6D9FF222285002300934FF0807331460F
:103BF0002046FFF798FDC7E72A460A992046FFF7B7
:103C0000E5FE034610BB22682021D161206842688E
:103C100022F0FF7222F48B3222F4FF7222F00102B2
:103C2000426084F84110002284F8422084F8402049
:103C300000E00223184603B0BDE8F0830223F9E751
:103C40000123F7E70123F5E70123F3E70123F1E778
:103C500000200080F0B583B090F84140E4B2202C01
:103C600040F08C800468A46914F4004F40F08A800E
:103C700090F84040012C00F08780012480F84040FB
:103C8000212480F84140102480F8424000244464FC
:103C9000426243853D4BC3623D4B4363438D9BB2C0
:103CA000FF2B2CD9FF2303854FF0807615460F4656
:103CB0000446028D002A50D0836B2BB3354ADA6359
:103CC000836B354ADA64826B00231364826B13655D
:103CD0000268038D28322946806BFEF729F80546D5
:103CE00000B3202384F84130002284F84220636C22
:103CF00043F01003636484F8402001253FE0438DC6
:103D000003854FF00076D1E7202380F84130002270
:103D100080F84220436C43F08003436480F84020E5
:103D200001252CE094F828201C4B0093334639469B
:103D30002046FFF7F8FC638D228D9B1A9BB26385AA
:103D4000002384F8403011212046FFF707FD226848
:103D5000136843F48043136011E0114B43630F4B2E
:103D600000934FF00073D2B2FFF7DDFC002584F81A
:103D7000405001212046FFF7F1FC00E002252846D3
:103D800003B0F0BD0225FAE70225F8E70000FFFFC7
:103D90001D480008954A00085D4900080020008081
:103DA000A144000808B5036899691A68436B03B118
:103DB000984708BD7047704738B50446002380F81F
:103DC000423090F84130DBB2212B0FD0202380F815
:103DD000413012230363002545630221FFF7FEFCF7
:103DE00084F840502046FFF7E6FF38BD202380F8D6
:103DF000413011230363002545630121FFF7EEFCE9
:103E000084F840502046FFF7D5FFEEE77047704733
:103E100010B50446002380F8423090F84130DBB200
:103E2000292B05D090F84130DBB22A2B0FD010BDE2
:103E3000282380F84130212303630121FFF7CEFCC2
:103E4000002384F840302046FFF7E0FFEFE7282307
:103E500080F84130222303630221FFF7BFFC0023D7
:103E600084F840302046FFF7D2FFE0E77047F8B50E
:103E700090F8413003F02803282B06D0036808226D
:103E8000DA61002380F84030F8BD044603689E697B
:103E9000C6F300469A69120C02F0FE059A68C2F356
:103EA0000902DF6807F0FE07C168022921D185EA0F
:103EB000D21515F0060F10D1816C01318164816C2F
:103EC0000229E1D1002181640820D86184F84010E2
:103ED00031462046FFF7CAFFD6E70421FFF77EFCF4
:103EE000002384F840303A4631462046FFF7BEFFB3
:103EF000CAE70421FFF772FC002384F840302A4609
:103F000031462046FFF7B2FFBEE7704710B50446C2
:103F1000164BC36200230363202280F8412080F8FF
:103F20004230436311F0040F12D003685A6A436AA7
:103F30001A70436A01334362038D4BB1013B038521
:103F4000438D013B9BB24385436C43F004034364C0
:103F500007212046FFF742FC23681022DA61002384
:103F600084F840302046FFF7D0FF10BD0000FFFF6F
:103F7000704770477047704710B5044690F841305D
:103F8000002280F842203648E0626285626C11436C
:103F90006164283BDBB2022B22D803212046FFF7C5
:103FA0001DFC282384F84130002323632D4B6363D9
:103FB00023681A6812F4804F22D01A6822F48042D3
:103FC0001A60A36B5BB1284A1A65002384F840305D
:103FD000A06BFDF7ADFF10B1A06B036D984710BD4E
:103FE00007212046FFF7FAFB94F84130DBB2602B43
:103FF00002D0202384F84130002323636363D7E792
:104000001A6812F4004F14D01A6822F400421A60A1
:10401000E36B002BE3D0144A1A65002384F8403088
:10402000E06BFDF785FF0028D9D0E06B036D984762
:10403000D5E794F84130DBB2602B06D0002384F83A
:1040400040302046FFF796FFC9E7202384F841302F
:10405000002384F840302046FFF78DFFBFE700BF04
:104060000000FFFF65420008594B000870B5044688
:104070000D4603681E682022DA610721FFF7AEFBB8
:104080002268536843F4004353602268536823F066
:10409000FF7323F48B3323F4FF7323F00103536086
:1040A0002046FFF72FFB16F4804F6FD0A36BBBB3F6
:1040B0001B686949694A934218BF8B422DD0183258
:1040C00093422AD01832934227D01832934224D0F8
:1040D0001832934221D0183293421ED018329342A4
:1040E0001BD002F55672934217D01832934214D067
:1040F0001832934211D0183293420ED018329342A4
:104100000BD01832934208D01832934205D018329F
:10411000934202D05B689BB201E05B689BB263850F
:1041200015F0040F10D025F0040523685A6A636A5D
:104130001A70636A01336362238D2BB1013B2385BF
:10414000638D013B9BB26385638D9BB21BB1636C36
:1041500043F0040363640023236384F84230636301
:10416000636C002B51D1E36A13F5803F5BD194F867
:104170004130DBB2222B65D0202384F8413000236C
:1041800084F840302046FFF741FE5AE016F4004F15
:10419000C6D0E36B002BC3D01B682F492F4A934234
:1041A00018BF8B422DD0183293422AD01832934236
:1041B00027D01832934224D01832934221D018329B
:1041C00093421ED0183293421BD002F5567293428E
:1041D00017D01832934214D01832934211D01832AB
:1041E00093420ED0183293420BD01832934208D02B
:1041F0001832934205D01832934202D05B689BB2CA
:1042000001E05B689BB263858AE7616C2046FFF73B
:10421000B3FE94F84130DBB2282B12D12946204658
:10422000FFF774FE0DE02046FFF7F2FD0C4BE36252
:10423000202384F84130002384F840302046FFF7E3
:1042400064FE70BD202384F84130002384F84030A0
:104250002046FFF7DCFDF4E7100002402800024092
:104260000000FFFF70B51646C26A90F84030012B7F
:1042700000F0A38004460D46012380F8403011F081
:10428000100F45D016F0100F42D0438D9BB24BBBA0
:1042900090F84130DBB2282B11D094F84130DBB2DA
:1042A000292B12D023681022DA6115F0200F02D0DA
:1042B00016F0200F7CD1002084F8400070BDB2F1D0
:1042C000007FEAD1FFF722FEEFE712F5803FE9D049
:1042D00023681022DA612046FFF714FA2046FFF720
:1042E00097FDE2E703681021D961436C43F00403B2
:1042F0004364B2F1807F14BF00230123002A14BF5E
:104300001A460122002AD0D0416CFFF735FECCE7D7
:1043100015F0040F20D016F0040F1DD0638D9BB252
:104320007BB125F004052368596A636A1970636AD2
:1043300001336362238D013B2385638D013B9BB277
:104340006385638D9BB2002BAFD112F5803FACD05B
:104350002046FFF75DFDA8E715F0080F02D016F024
:10436000080F17D115F0020F9FD016F0020F9CD046
:10437000638D9BB29BB1626A236812789A62636A0A
:1043800001336362638D013B9BB26385238D013BE7
:1043900023858AE729462046FFF769FD85E7002A3D
:1043A00018BFB2F1807F80D12046FFF731FD7CE756
:1043B00029462046FFF75AFE7DE702207EE710B52A
:1043C000044603682022DA610268536823F0FF7311
:1043D00023F48B3323F4FF7323F001035360002392
:1043E00003634363A3F58033C36211F0100F06D05B
:1043F00003681022DA61436C43F0040343642046EF
:10440000FFF780F903212046FFF7E8F9626C94F882
:104410004130DBB2602B1BD0D2B994F84130DBB213
:10442000212B1AD094F84130DBB2222B14D1202357
:1044300084F8413094F84230DBB2402B27D000237F
:1044400084F8423084F840302046FFF7B4FC03E0A3
:10445000616C2046FFF790FD10BD202384F84130A9
:1044600094F84230DBB2402B08D0002384F842306D
:1044700084F840302046FFF79DFCEDE7002384F8E8
:10448000423084F840302046FFF772FDE4E7002315
:1044900084F8423084F840302046FFF76AFDDBE7BD
:1044A00090F84030012B00F0B78070B582B0044620
:1044B0000D461646012380F8403011F0100F02D04F
:1044C00012F0100F21D115F0040F28D016F0040FB0
:1044D00025D025F0040523685A6A636A1A70636A56
:1044E00001336362238D013B2385638D013B9BB2C6
:1044F000638515F0200F03D016F0200F40F0878061
:10450000002084F8400002B070BD03681022DA6118
:10451000436C43F004034364FFF7F4F8E9E715F054
:10452000020F11D016F0020F0ED0626A23681278C3
:104530009A62636A01336362238D013B2385638D35
:10454000013B9BB26385D4E715F0800F3FD016F096
:10455000400F3CD0638D9BB25BB3238D4BBB236874
:104560005968C1F30901638D9BB2FF2B0ED8628D90
:1045700092B22285E36A13F5803F11D0E36A0020EE
:104580000090D2B22046FFF7CEF8B2E7FF22228594
:10459000002300934FF080732046FFF7C4F8A8E78C
:1045A000002300934FF00073D2B22046FFF7BBF810
:1045B0009FE723685B6813F0007F03D12046FFF775
:1045C000FBFB96E740212046FFF7D6FC91E715F06C
:1045D000400F8ED016F0400F8BD0638D9BB28BB9FD
:1045E00023685A6812F0007F83D1E26A12F5803F97
:1045F00004D15A6842F480425A607AE72046FFF7B5
:10460000DBFB76E740212046FFF7B6FC71E7294641
:104610002046FFF7D4FE73E70220704770B5C56AE5
:1046200090F84030012B00F0F3800446012380F81D
:10463000403011F0100F00F0D38012F0100F00F096
:10464000CF80C2F380331BB912F4004F00F0C48056
:10465000E06B002841D012F4004F40D002686D4E4C
:104660006D48824218BFB2422FD0183082422CD0FF
:104670001830824229D01830824226D01830824227
:1046800023D01830824220D0183082421DD000F54D
:104690005670824219D01830824216D018308242A9
:1046A00013D01830824210D0183082420DD018300A
:1046B00082420AD01830824207D01830824204D099
:1046C0005268B2FA82F2520903E05268B2FA82F2F8
:1046D0005209002A40D1002002E0002000E0002022
:1046E000A26B002A3FD0002B3DD01368494E4A4AA6
:1046F000934218BFB34231D0183293422ED01832B1
:1047000093422BD01832934228D01832934225D0AE
:104710001832934222D0183293421FD002F55672BB
:1047200093421BD01832934218D01832934215D0BE
:104730001832934212D0183293420FD0183293425B
:104740000CD01832934209D01832934206D05B68DD
:10475000B3FA83F35B0905E00120C1E75B68B3FAB4
:1047600083F35B09B3B9A8B923681022DA61636CDB
:1047700043F004036364B5F1807F14BF0023012379
:10478000002D14BF1D460125B5B3616C2046FFF70F
:10479000F3FB31E094F84130DBB2282B08D094F8D9
:1047A0004130DBB2292B0AD023681022DA6123E0E2
:1047B000B5F1007FF3D12046FFF7A8FB1CE015F50B
:1047C000803FF1D023681022DA612046FEF79AFF7D
:1047D0002046FFF71DFB0FE003681022DA610BE0B3
:1047E00011F0080F02D012F0080F09D111F0200FBC
:1047F00002D012F0200F07D1002084F8400070BDD5
:104800002046FFF734FBF7E72046FFF72FFCF3E7DE
:104810000220F4E7100002402800024090F84030E7
:10482000012B00F0998010B582B00446012380F876
:10483000403011F0100F02D012F0100F31D111F0F2
:10484000800F5FD012F0400F5CD02268136823F015
:1048500040031360638D9BB2002B45D023685968D9
:10486000C1F30901638D9BB2FF2B2CD9FF23238554
:104870004FF0807394F82820002000902046FEF727
:1048800052FF638D228D9B1A9BB2638594F8413051
:10489000DBB2222B22D02268136843F480431360DA
:1048A0000CE003681022DA61436C43F004034364B4
:1048B0001221FEF753FF2046FEF724FF002084F864
:1048C000400002B010BD638D2385E36A13F5803F7D
:1048D00001D0E36ACEE74FF00073CBE7226813689C
:1048E00043F400431360E9E723685B6813F0007F3B
:1048F00003D12046FFF760FAE0E740212046FFF7AA
:104900003BFBDBE711F0400F1CD012F0400F19D039
:10491000638D9BB28BB923685A6812F0007FCDD1AA
:10492000E26A12F5803F04D15A6842F480425A602C
:10493000C4E72046FFF740FAC0E740212046FFF7D2
:104940001BFBBBE711F0200FB8D012F0200FB5D041
:104950002046FFF734FDB1E70220704738B5846B7D
:10496000A36B002B77D01B684849494A934218BF74
:104970008B422FD0183293422CD01832934229D038
:104980001832934226D01832934223D018329342E1
:1049900020D0183293421DD002F55672934219D09E
:1049A0001832934216D01832934213D018329342E1
:1049B00010D0183293420DD0183293420AD01832D8
:1049C000934207D01832934204D05B68B3FA83F362
:1049D0005B0903E05B68B3FA83F35B09002B3CD10E
:1049E0000025E36B002B40D01B682849284A9342DE
:1049F00018BF8B4233D01832934230D018329342D2
:104A00002DD0183293422AD01832934227D0183230
:104A1000934224D01832934221D002F55672934229
:104A20001DD0183293421AD01832934217D0183240
:104A3000934214D01832934211D0183293420ED0C0
:104A4000183293420BD01832934208D05B68B3FA05
:104A500083F35B0907E00025C3E70125C1E75B6835
:104A6000B3FA83F35B0903B10125FDF7EFFE0228DA
:104A700000D005B938BD2268536843F40043536041
:104A800010212046FFF778FAF4E700BF100002403B
:104A90002800024010B5846B2268136823F4804319
:104AA0001360638D9BB2ABB1238D616A194461625F
:104AB000638D9BB2FF2B12D9FF2323852268238DA0
:104AC0002832A06BFDF734F960B912212046FEF7B9
:104AD00045FE10BD12212046FEF740FEF9E7638D2A
:104AE0002385EBE710212046FFF746FAF1E710B5E2
:104AF00002689369116813F4807F09D011F0800F68
:104B000006D0446C44F0010444644FF48074D461D2
:104B100013F4806F0AD011F0800F07D0426C42F07E
:104B20000802426402684FF48064D46113F4007F89
:104B30000AD011F0800F07D0436C43F002034364A6
:104B400003684FF40072DA61416C11F00B0F00D171
:104B500010BDFFF711FAFBE708B5806B826B0023ED
:104B60001365C26B136590F84130DBB2602B02D045
:104B7000FFF700FA08BD202380F84130FFF7FBF96A
:104B8000F8E790F84130DBB2202B24D190F8403088
:104B9000012B22D0012380F84030242380F84130BB
:104BA0000268136823F0010313600268136823F49A
:104BB0008053136002681368194311600268136818
:104BC00043F001031360202380F84130002380F874
:104BD000403018467047022070470220704790F816
:104BE0004130DBB2202B22D190F84030012B20D075
:104BF000012380F84030242380F841300268136894
:104C000023F0010313600268136823F4706343EA1E
:104C1000012111600268136843F00103136020232F
:104C200080F84130002380F8403018467047022059
:104C3000704702207047C368016902680B43D36064
:104C4000436982691343C2691343026A1343426A88
:104C50001343C26A1343026B1343826A013A43EA65
:104C60008243816802680B4313614368B3F1804F4C
:104C70001BD0036800225A61436B93421BDB02681E
:104C80009BB21362836B002B20DB01680A6A42EA45
:104C900003430B624368B3F1804F24D00268DBB258
:104CA0009362036800225A6270470268136943F0F6
:104CB00040431361DDE70268536943F48023536185
:104CC000436B5B4202689BB21362DBE70268536985
:104CD00043F400235361836B5A4201680B6A43EA31
:104CE00002430B62D6E7036800229A62D9E738B51F
:104CF0000446FBF755FB44B30546002384F83C30DB
:104D0000022384F83D302268D36823F00103D36086
:104D10002368DB6813F0010F0BD0FBF741FB401B4E
:104D20000528F5D94023A366032384F83D300120EC
:104D30000AE02046FFF77FFF0020E06520666066FE
:104D4000A066012384F83D3038BD0120FCE7F0B4B3
:104D50000D46B1FA81F14909002808BF0121002957
:104D600061D1034690F83C1001295FD0012180F801
:104D70003C1090F83D10C9B201294FD1022180F8B2
:104D80003D10C76D2FB1AF4215D03C460020014603
:104D900015E03AB10120002283F83C20012283F87B
:104DA0003D2041E002685562C565002068611D66CE
:104DB00001225A66EFE70120EDE7646901315E6E7A
:104DC0008E4205D920B96669AE42F6D10120F4E7DA
:104DD0000028E0D1196E914203D012B1002631466D
:104DE0000FE04A696A611A6E55611D665A6E01329A
:104DF0005A66D0E77C696C617D615C6E01345C66EB
:104E000001265C6E8C4205D926B901319742F1D05A
:104E10007F69F6E7002EBED10120BCE7002280F8B2
:104E20003C20022000E00120F0BC70470220FBE79C
:104E3000034628B390F83C20012A23D0012280F8B1
:104E40003C2090F83D20D2B2012A07D00020002259
:104E500083F83C20012283F83D207047022280F82D
:104E60003D20C26D32B1016E31B1406E30B14A6148
:104E70000020ECE70120EAE70120E8E70120E6E76F
:104E80000120704702207047124BDB6813F0040FBB
:104E900007D1104BDB6803F00703834201D00120E8
:104EA000704710B50B4AD36823F007031843D0604E
:104EB000FBF776FA0446074B5B6813F4005F07D1F3
:104EC000FBF76EFA001BB0F57A7FF4D9032000E0FF
:104ED000002010BD00480258024AD36843F0807396
:104EE000D360704700480258002800F0CB8238B5E4
:104EF0000446036813F0010F25D0A94A136903F093
:104F00003803926A102B15D0182B0FD06368B3F5B5
:104F1000803F3FD0002B53D1A14B1A6822F480323E
:104F20001A601A6822F480221A6038E002F0030244
:104F3000022AEBD19A4B1B6813F4003F03D063683D
:104F4000002B00F0A182236813F0020F00F08E8086
:104F5000934A1369926A13F038035AD0182B55D02C
:104F6000E368002B00F0C8808D490A6822F019021E
:104F700013430B60FBF714FA0546894B1B6813F0CB
:104F8000040F40F0A180FBF70BFA401B0228F4D974
:104F900003207EE2824A136843F48033136063681F
:104FA0002BB3FBF7FDF905467D4B1B6813F4003F5F
:104FB000C9D1FBF7F5F9401B6428F5D9032068E255
:104FC000B3F5A02F09D0764B1A6822F480321A600C
:104FD0001A6822F480221A60E1E7714B1A6842F4E1
:104FE00080221A601A6842F480321A60D7E7FBF711
:104FF000D7F905466A4B1B6813F4003FA3D0FBF7B3
:10500000CFF9401B6428F5D9032042E212F0030FC8
:10501000A6D1634B1B6813F0040F03D0E368002B89
:1050200000F034825E4A136823F01903E1680B43F1
:105030001360FBF7B5F90546594B1B6813F0040FD5
:1050400006D1FBF7ADF9401B0228F5D9032020E279
:10505000FBF7C0F941F2030398422CD8504A536839
:1050600023F47C33216943EA01335360236813F04E
:10507000100F71D04A4A136903F03803926A082B63
:1050800052D0182B4CD0E369002B00F0A380444A87
:10509000136843F080031360FBF782F90546404B29
:1050A0001B6813F4807F7DD1FBF77AF9401B02283F
:1050B000F5D90320EDE13A4A536823F0FE43216914
:1050C00043EA01635360D1E7FBF784F941F203033C
:1050D000984208D8324A536823F47C33216943EA62
:1050E00001335360C2E72E4A536823F0FE4321691F
:1050F00043EA01635360B9E7294A136823F00103C7
:105100001360FBF74DF90546254B1B6813F0040FA0
:10511000ACD0FBF745F9401B0228F5D90320B8E1D4
:1051200002F00302012AAED11D4B1B6813F4807FED
:1051300004D0E369802B01D00120AAE1FBF74AF9F2
:1051400041F20303984222D8154A536823F0F843EA
:10515000216A43EA81635360236813F0080F61D02A
:105160006369002B4AD00E4A536F43F00103536723
:10517000FBF716F905460A4B5B6F13F0020F51D18E
:10518000FBF70EF9401B0228F5D9032081E1044A00
:10519000D36823F07C53216A43EA0163D360DBE7E1
:1051A00000440258FBF716F941F20303984208D86D
:1051B000AE4A536823F0F843216A43EA816353609F
:1051C000CAE7AA4AD36823F07C53216A43EA016301
:1051D000D360C1E7A54A136823F080031360FBF78F
:1051E000DFF80546A14B1B6813F4807FB4D0FBF7B2
:1051F000D7F8401B0228F5D903204AE19B4A536F98
:1052000023F001035367FBF7CBF80546974B5B6F21
:1052100013F0020F06D0FBF7C3F8401B0228F5D9A4
:10522000032036E1236813F0200F29D0A3699BB136
:105230008E4A136843F480531360FBF7B1F80546B8
:105240008A4B1B6813F4005F1AD1FBF7A9F8401BC7
:105250000228F5D903201CE1844A136823F4805303
:105260001360FBF79DF80546804B1B6813F4005F45
:1052700006D0FBF795F8401B0228F5D9032008E17A
:10528000236813F0040F21D1636A002B00F0008122
:10529000764A126902F03802182A00F0FB80022BCD
:1052A00075D0724A136823F080731360FBF778F8A7
:1052B00004466E4B1B6813F0007F00F0E180FBF7A3
:1052C0006FF8001B0228F4D90320E2E0684A136853
:1052D00043F480731360FBF763F80546644B1B6867
:1052E00013F4807F06D1FBF75BF8401B6428F5D9E7
:1052F0000320CEE0A368012B0AD00BBB5B4B1A6FD7
:1053000022F001021A671A6F22F004021A6704E001
:10531000564A136F43F001031367A36833B3FBF7D7
:105320003FF80546514B1B6F13F0020FACD1FBF752
:1053300037F8401B41F288339842F3D90320A8E0A4
:10534000052B09D0494B1A6F22F001021A671A6F18
:1053500022F004021A67E0E7444B1A6F42F004029D
:105360001A671A6F42F001021A67D6E7FBF718F8BE
:1053700005463E4B1B6F13F0020F85D0FBF710F86C
:10538000401B41F288339842F3D9032081E0374A29
:10539000136823F080731360FBF702F80546334B64
:1053A0001B6813F0007F06D0FAF7FAFF401B0228B3
:1053B000F5D903206DE02D4B996A2E4A0A40A16A67
:1053C000E06A41EA00110A439A62226B013AC2F391
:1053D0000802616B0139490289B20A43A16B0139A4
:1053E000090401F4FE010A43E16B0139090601F0E9
:1053F000FE410A431A63DA6A22F00102DA62596B4B
:105400001D4A0A40A16C42EAC1025A63DA6A22F0DC
:105410000C02216C0A43DA62DA6A22F00202616C41
:105420000A43DA62DA6A42F48032DA62DA6A42F411
:105430000032DA62DA6A42F48022DA62DA6A42F030
:105440000102DA621A6842F080721A60FAF7A8FF65
:105450000446064B1B6813F0007F0FD1FAF7A0FF3C
:10546000001B0228F5D9032013E000BF00440258B6
:10547000004802580CFCFFFF0700FFFF002008E077
:10548000002006E001207047012002E0012000E03A
:10549000002038BD0120FCE7724B1B6903F0380384
:1054A000102B00F0DB80182B10D00BB16E4870472A
:1054B0006C4B1B6813F0200F00F0D280694B18680A
:1054C000C0F3C100694B23FA00F07047654A916A46
:1054D00001F00301906AC0F30510D36A03F00103E1
:1054E000526BC2F3CC0203FB02F307EE903AF8EEE4
:1054F000677A002800F0B580012966D0F9B1022949
:1055000000F08F8007EE100AF8EE476A9FED586AA8
:1055100086EE267A534B1B6BC3F3080306EE903AD4
:10552000F8EE666A9FED536A67EE867A76EEA77AA2
:10553000F7EE006A77EEA67A27EE277A61E0494B0C
:105540001B6813F0200F23D046490A68C2F3C1023A
:10555000464BD34007EE103AF8EE476A07EE100AC2
:10556000B8EE476A86EE867A0B6BC3F3080306EE45
:10557000903AF8EE666A9FED3F6A67EE867A76EEBD
:10558000A77AF7EE006A77EEA67A27EE277A38E058
:1055900007EE100AF8EE476A9FED376A86EE267A24
:1055A000304B1B6BC3F3080306EE903AF8EE666AC5
:1055B0009FED306A67EE867A76EEA77AF7EE006A9C
:1055C00077EEA67A27EE277A1BE007EE100AF8EEB0
:1055D000476A9FED276A86EE267A224B1B6BC3F340
:1055E000080306EE903AF8EE666A9FED226A67EECF
:1055F000867A76EEA77AF7EE006A77EEA67A27EE3D
:10560000277A184B1B6BC3F34623013307EE903AFE
:10561000F8EE677AC7EE276AFCEEE67A17EE900A94
:10562000704707EE100AF8EE476A9FED146A86EE9F
:10563000267A0C4B1B6BC3F3080306EE903AF8EE88
:10564000666A9FED0C6A67EE867A76EEA77AF7EEC9
:10565000006A77EEA67A27EE277AD2E708487047E5
:10566000024870470044025800093D000090D003F2
:105670000024744A000000390024744C20BCBE4B46
:1056800040787D01002800F02C810346974A12687B
:1056900002F00F028A420CD29448026822F00F02F4
:1056A0000A430260026802F00F028A4201D0012020
:1056B000704770B51A6812F0040F0CD018698C4A44
:1056C000926902F07002904205D9894CA26922F0D9
:1056D00070021043A0611A6812F0080F0CD05869CC
:1056E000834AD26902F07002904205D9804CE26987
:1056F00022F070021043E0611A6812F0100F0CD013
:1057000098697B4AD26902F4E062904205D9784CEC
:10571000E26922F4E0621043E0611A6812F0200F9F
:105720000CD0D869724A126A02F07002904205D910
:105730006F4C226A22F07002104320621A6812F045
:10574000020F0CD0D8686A4A926902F00F029042A8
:1057500005D9674CA26922F00F021043A0611C46D4
:105760000D461B6813F0010F41D0614A936923F481
:105770007063A1680B4393616368022B0AD0032B0B
:1057800027D0012B2CD05A4A126812F0040F06D1F0
:105790000120A5E0126812F4003F00F0A4805449F3
:1057A0000A6922F0070213430B61FAF7F9FD064676
:1057B0004F4B1B6903F038036268B3EBC20F16D07E
:1057C000FAF7EEFD801B41F288339842F0D90320AE
:1057D00086E0474A126812F0007FE0D101207FE0A6
:1057E000434A126812F4807FD9D1012078E02368FF
:1057F00013F0020F0CD0E2683D4B9B6903F00F03DE
:105800009A4205D23A498B6923F00F031A438A6101
:10581000364B1B6803F00F03AB420CD9334A1368B5
:1058200023F00F032B431360136803F00F03AB4205
:1058300001D0012054E0236813F0040F0CD022693A
:105840002B4B9B6903F070039A4205D228498B6960
:1058500023F070031A438A61236813F0080F0CD0F9
:105860006269234BDB6903F070039A4205D2204939
:10587000CB6923F070031A43CA61236813F0100F39
:105880000CD0A2691A4BDB6903F4E0639A4205D29B
:105890001749CB6923F4E0631A43CA61236813F004
:1058A000200F0CD0E269124B1B6A03F070039A427E
:1058B00005D20F490B6A23F070031A430A62FFF7FF
:1058C000EBFD0B4B9B69C3F303230A4AD35C03F044
:1058D0001F03D840084B1860084B1868FAF700FD02
:1058E00070BD012070470120FAE700BF0020005280
:1058F00000440258F45D01085C0000200400002010
:1059000008B501F037FA064B9B6903F00F03054A0F
:10591000D35C03F01F03D840034B186008BD00BFE1
:1059200000440258F45D010860000020404B9B6A6F
:1059300003F00303032B79D070B50E4604463C4AAE
:10594000136823F080631360FAF72AFD0546384B8D
:105950001B6813F0006F06D0FAF722FD401B0228E7
:10596000F5D9032070BD324B9A6A22F47C3221684B
:1059700042EA01329A626268013AC2F30802A168FF
:105980000139490289B20A43E1680139090401F485
:10599000FE010A4321690139090601F0FE410A436B
:1059A0009A63DA6A22F0C00261690A43DA62DA6A4B
:1059B00022F02002A1690A43DA62DA6A22F01002B8
:1059C000DA62D96B1B4A0A40E16942EAC102DA6332
:1059D000DA6A42F01002DA62C6B91A46DB6A43F4A8
:1059E0000023D362124A136843F080631360FAF70E
:1059F000D7FC04460E4B1B6813F0006F14D1FAF766
:105A0000CFFC001B0228F5D90320ABE7012E05D0FF
:105A1000074AD36A43F40013D362E3E7044AD36A24
:105A200043F48013D362DDE700209BE70120704739
:105A3000004402580700FFFF404B9B6A03F003033A
:105A4000032B79D070B50E4604463C4A136823F008
:105A500080531360FAF7A4FC0546384B1B6813F01B
:105A6000005F06D0FAF79CFC401B0228F5D9032002
:105A700070BD324B9A6A22F07C72216842EA015270
:105A80009A626268013AC2F30802A16801394902C8
:105A900089B20A43E1680139090401F4FE010A43AD
:105AA00021690139090601F0FE410A431A64DA6AE4
:105AB00022F4406261690A43DA62DA6A22F400720F
:105AC000A1690A43DA62DA6A22F48072DA62596CF6
:105AD0001B4A0A40E16942EAC1025A64DA6A42F4A6
