:020000040800F2
:1000000000000220E1C3000805A8000807A80008B6
:1000100009A800080BA800080DA8000800000000AF
:100020000000000000000000000000000FA8000811
:1000300011A800080000000013A8000815A8000877
:1000400031C4000831C4000831C4000831C40008BC
:1000500031C4000831C4000831C4000831C40008AC
:1000600031C4000831C4000831C400081DA80008CC
:100070002DA800083DA8000831C4000831C40008BC
:1000800031C4000831C400084DA8000831C400087C
:1000900031C4000831C4000831C4000831C400086C
:1000A00031C4000831C4000831C4000831C400085C
:1000B00031C4000831C4000831C4000831C400084C
:1000C00031C4000831C4000831C4000831C400083C
:1000D00031C4000831C4000831C4000831C400082C
:1000E00031C4000831C400080000000031C4000819
:1000F00031C4000831C4000831C4000831C400080C
:1001000031C4000831C4000831C4000831C40008FB
:1001100031C4000831C4000831C4000831C40008EB
:1001200031C4000831C4000831C4000831C40008DB
:1001300031C4000831C4000831C4000831C40008CB
:1001400000000000000000000000000000000000AF
:1001500031C4000831C4000831C4000831C40008AB
:1001600031C4000831C4000831C4000831C400089B
:1001700031C4000831C4000831C400080000000088
:1001800031C4000831C4000831C4000831C400087B
:1001900031C4000831C4000831C4000831C400086B
:1001A00031C4000831C4000831C4000831C400085B
:1001B00031C4000831C4000831C4000831C400084B
:1001C00031C4000831C400085DA800086DA800080B
:1001D00031C400087DA8000831C4000831C40008FB
:1001E00031C4000831C4000831C4000831C400081B
:1001F00031C4000831C4000831C4000831C400080B
:1002000031C4000831C4000831C4000831C40008FA
:1002100031C4000831C4000831C4000831C40008EA
:1002200031C4000831C4000831C4000800000000D7
:1002300031C4000831C400080000000031C40008C7
:1002400031C4000831C4000831C4000831C40008BA
:1002500031C4000831C4000831C4000831C40008AA
:1002600031C4000831C4000831C4000831C400089A
:1002700031C4000831C4000831C400080000000087
:1002800031C4000831C4000831C400080000000077
:080290000000000031C4000869
:1002980010B5054C237833B9044B13B10448AFF3B8
:1002A80000800123237010BDB4020020000000006C
:1002B80044E300080C4B43B10C480D4910B5AFF3AB
:1002C80000800C48036823B910BD0A48036833B995
:1002D8007047094B002BF7D0BDE810401847064B74
:1002E800002BF5D0184700BF0000000044E30008C9
:1002F800B8020020B402002000000000104B1B7858
:100308000BB90120704710B504464FF47A70B0FB62
:10031800F3F30C4A1068B0FBF3F001F0E1F868B9A8
:100328000F2C01D9012010BD012221464FF0FF30CA
:1003380001F098F8024B5C60002010BD012010BD50
:10034800000000202402002010B5032001F078F8F6
:1003580003F032FE0F498B69C3F303230E4AD35CC3
:1003680003F01F03D8400D4B18608B6903F00F038F
:10037800D35C03F01F03D840094B18600020FFF737
:10038800BDFF10B10124204610BD04460AF024FA2E
:10039800F9E700BF004402587CE30008240200206B
:1003A80028020020034B1B78034A11680B44136092
:1003B800704700BF00000020A0030020014B186810
:1003C800704700BFA003002038B50446FFF7F6FFCA
:1003D8000546B4F1FF3F02D0044B1B781C44FFF7DD
:1003E800EDFF401B8442FAD838BD00BF0000002052
:1003F800014B1868000C70470010005C704708B586
:10040800806BFFF7FBFF08BD70477047F8B50446DF
:1004180003681D685E68A44AA449934218BF8B42CA
:1004280043D1A34B9F6807F01F0715F0020F10D0A8
:1004380016F0020F0DD0636D13F0100F03D1636D2A
:1004480043F400636365204600F036FF2368022208
:100458001A6015F0040F02D016F0040F05D115F03C
:10046800080F58D016F0080F55D0636D13F0100F11
:1004780003D1636D43F4007363652368DA6812F48B
:10048800406F14D10122002A3FD0874A934210D0EE
:100498001A469A4210D0052F14BF002101215FB1DE
:1004A80051B9092F08D0D26807E0824BBAE7002279
:1004B800E9E7A2F58072ECE7DA6812F4005F24D16C
:1004C8001A6812F0080F20D09A6812F0040F12D0A0
:1004D800012292B95A6822F00C025A60636D23F423
:1004E80080736365636D13F4805F0ED1636D43F0B1
:1004F8000103636509E00022EBE7636D43F0100335
:100508006365A36D43F00103A365204609F0C2FCAF
:1005180023680C221A6015F0200F02D016F0200F65
:1005280005D115F0400F67D016F0400F64D0636D09
:1005380013F0100F03D1636D43F400536365236810
:10054800DA6C12F4C07F16D10121DA6812F4406F18
:1005580013D14FF0010E544A934211D01A469A42D1
:1005680011D0062F14BF0020012067B158B9072FFA
:1005780009D0D26808E00021E7E74FF0000EEAE76B
:10058800A2F58072EBE7DA6841B912F0007F2DD14D
:10059800BEF1000F2AD012F4005F27D1196811F0BC
:1005A800400F23D012F4001F20D19A6812F0080FD0
:1005B80012D0012292B95A6822F060025A60636D23
:1005C80023F480536365636D13F4807F0ED1636DEC
:1005D80043F00103636509E00022EBE7636D43F034
:1005E80010036365A36D43F00103A365204600F083
:1005F8005FFE236860221A6015F0800F02D016F0A3
:10060800800F24D115F4807F02D016F4807F29D181
:1006180015F4007F02D016F4007F2FD115F0100FCB
:1006280050D016F0100F4DD0236B002B44D0002F64
:1006380032D023681C4A1D49934218BF8B4229D1E6
:100648001B4B9B6813F4404F43D1002335E0636D87
:1006580043F4803363652046FFF7D6FE2368802283
:100668001A60CFE7636D43F400336365204600F0FA
:1006780021FE23684FF480721A60C9E7636D43F462
:1006880080236365204600F016FE23684FF400724D
:100698001A60C3E7074BD4E72368DB6813F003034A
:1006A8000BD0012309E000BF0021024000200240D6
:1006B80000230240006302580123012B0BD023685A
:1006C80010221A6015F4806F02D016F4806F0ED1D4
:1006D800F8BD0123F1E7636D43F480636365A36D9F
:1006E80043F00203A3652046FFF78FFEE7E7636D3B
:1006F80043F480436365A36D43F00803A36523684F
:100708004FF480621A60204600F0D3FDE0E700BF96
:1007180008B5836B5A6D12F0500F35D15A6D42F4FB
:1007280000725A651A68116811F0080F18D0D1685C
:1007380011F4406F12D1012111B3D26812F4005F95
:100748001ED15A6D22F480725A655A6D12F4805F78
:1007580016D15A6D42F001025A6511E00021EBE70B
:10076800D26812F0030F0BD15A6D22F480725A65C9
:100778005A6D12F4805F03D15A6D42F001025A6536
:10078800184609F087FB08BD5A6D12F0100F03D107
:10079800DB6CDB6C984708BD1846FFF736FE08BDD2
:1007A80008B5806B436D43F040034365836D43F0A8
:1007B80004038365FFF729FE08BD0000F0B583B088
:1007C8000022019290F85020012A00F04D82034641
:1007D800012280F850200068826812F0040F00F0AF
:1007E800B0800125002D40F031820A68C2F313045D
:1007F800002C40F0A880C2F38462012404FA02F2BB
:10080800C4692243C2611F684E680C683037320AD7
:10081800920002F00C02B85806F01F064FF01F0EA7
:100828000EFA06FE20EA0E00C4F38464B4402043A6
:10083800B8501C68A26812F0040F00F08E800120E6
:10084800A26812F0080F00F08A80012280F00100EF
:1008580082F0010210424FD00F68886814347A0E73
:10086800920002F00402A658C7F304574FF0070E8F
:100878000EFA07FE26EA0E06B8403043A050AE4AEC
:10088800126802F07042B2F1805F6AD01868C268DC
:1008980012F0100F6DD14A69C068C0F382004000A1
:1008A80082400F69042F72D01C680E68603454F8B7
:1008B800270000F0004006F0F8463243024344F8AF
:1008C80027201A680E69487E01285AD028466032C7
:1008D80052F8264024F00044204342F826001C68C1
:1008E80008690A7E012A4FD0226922F4F04200F0FA
:1008F8001F008540154325611868826812F0010FB2
:1009080079D00122002A40F0AB810A68CD68D0F87E
:10091800C040C2F3130624EA060405F01806874D02
:10092800F5402A40C2F313022243C0F8C020C86829
:10093800834A904261D00A68002AC0F203810020ED
:1009480089E100254EE792FAA2F2B2FA82F202F0A9
:100958001F02012404FA02F252E7002070E7002285
:1009680074E74A691868C068C0F382004000824092
:1009780097E74A69C068800800F004004000824098
:100988008FE74FF00040A2E74FF40065ACE7186826
:10099800026E02F0F8420C68B2EB846F1CD0186843
:1009A800426E02F0F8420C68B2EB846F19D01868F6
:1009B800826E02F0F8420C68B2EB846F16D01868A9
:1009C800C26E02F0F8420C68B2EB846F94D1C26E2A
:1009D80022F00042C2668FE7026E22F000420266F1
:1009E800DDE7426E22F000424266E0E7826E22F0C6
:1009F80000428266E3E7002284E71C680A68C2F3C3
:100A0800130696BB900E013000F01F0009288CBF1A
:100A180000200120002852D09EBB900E0130800695
:100A280000F0F840B6BB950E013505F01F0701250B
:100A3800BD402843C6BB920E013202F01F0202EBF2
:100A48004202120502438D681434500E800000F0F3
:100A580004002658C2F304520727974026EA0706DF
:100A680005FA02F23243225065E792FAA2F0B0FA90
:100A780080F0013000F01F0009288CBF0020012001
:100A8800C8E792FAA2F0B0FA80F00130800600F0D0
:100A9800F840C7E792FAA2F5B5FA85F5013505F0F1
:100AA8001F070125BD40C4E792FAA2F2B2FA82F20A
:100AB800013202F01F0202EB42021205C2E7CEB970
:100AC800950E0135AD0605F0F845E6B9900E0130F2
:100AD80000F01F070120B8400543F6B9900E013019
:100AE80000F01F0000EB40021E3A120542F00072AF
:100AF8002A43A8E792FAA2F5B5FA85F50135AD06BD
:100B080005F0F845E1E792FAA2F0B0FA80F001307A
:100B180000F01F070120B840DEE792FAA2F0B0FA11
:100B280080F0013000F01F0000EB4000A0F11E0231
:100B3800120542F00072DBE70010005CFFFF0F00B7
:100B48000000FF4719684948494CA14218BF814233
:100B58000CBF0120002021D1464DAC6804F0E0769E
:100B680010B34248806810F0010F19D00120404F9F
:100B7800BF6817F0010F15D0012738430CBF0120BB
:100B8800002000285CD03C48824218D03B48824272
:100B980034D03B48824242D000205CE0394DDCE74B
:100BA8000020E4E70027E8E73748806810F0010FE5
:100BB80003D0012080F00100E3E70020FAE714F4F5
:100BC800000FE3D1304A914201D0002043E046F4BF
:100BD8000002A96821F0E0710A43AA602B4A126852
:100BE8002B49B2FBF1F25200019202E0019A013A5C
:100BF8000192019A002AF9D100202CE014F0807F9C
:100C0800C7D1214A914201D0002024E046F08072E9
:100C1800A96821F0E0710A43AA6000201BE014F4DF
:100C2800800F1FD1184A914201D0002013E046F4EA
:100C38008002A96821F0E0710A43AA6000200AE056
:100C48005A6D42F020025A65012004E05A6D42F0C4
:100C580020025A650120002283F8502003B0F0BD1D
:100C68000020F8E70020F6E70220F7E7002002401E
:100C78000021024000230240000084CB000052C73C
:100C88000000B8CF00630258006002582402002018
:100C9800400D030038B503689A6812F0010F10D0B0
:100CA8000122002A59D199682D4A11420BD0436D6F
:100CB80043F010034365836D43F00103836501200E
:100CC80038BD0022EDE704469968264A0A4042F0FA
:100CD80001029A60FFF772FB05462368224A2349FE
:100CE800934218BF8B420DD102F50072926802F050
:100CF8001F021D498B4207D0194699420ED06AB18E
:100D0800002038BD1A4AF1E7A1F58071F5E7002205
:100D18000EE0FFF753FB401B022812D823681A681D
:100D280012F0010F17D19A6812F0010FEFD00122CB
:100D3800002AEED199680B4A0A4042F001029A60F3
:100D4800E7E7636D43F010036365A36D43F00103A8
:100D5800A365012038BD002038BD002038BD00BF84
:100D68003F000080C0FFFF7F0021024000200240BA
:100D780000630258F8B504683D4D3E4EAC4218BFBA
:100D8800B4420DD105F50075AD6805F01F05A468DE
:100D980014F0040F06D0012434B102231846F8BD1C
:100DA800354DF1E70024F7E790F85030012B5DD07E
:100DB800012380F85030052D18BF002D06D0092DCD
:100DC80004D0002380F850300123E7E714460F468B
:100DD8000646FFF75FFF0346002843D1726D274B95
:100DE800134043F4807373653368214A934233D0C8
:100DF8001A469A4200D01DB9736D23F480137365A7
:100E0800736D13F4805F2AD0B36D23F00603B365C6
:100E1800F36C1B4ADA63F36C1A4A1A64F36C1A4AC5
:100E2800DA6433681C221A60002386F8503032686E
:100E3800536843F010035360316823463A46403103
:100E4800F06C00F071FF0346316888680F4A024071
:100E580042F004028A60A1E7A2F58072C9E7002384
:100E6800B365D5E7002286F8502097E7022395E777
:100E7800002102400020024000630258FEF0FFFFFC
:100E88001907000807040008A9070008C0FFFF7F2A
:100E980038B505460368514A5149934218BF8B42F9
:100EA80023D1504B9B6813F4403F14BF0123002308
:100EB8004BB303F0B5FA04466B68B3F5003F1CD09A
:100EC800B3F5403F1DD0B3F5803F16D0FFF790FA39
:100ED80041F20303984256D8434B9C424DD92A68A5
:100EE800936843F48073936038BD404B9B6813F458
:100EF800403F14BF01230023DAE71B0CB4FBF3F4D3
:100F0800E4E78408E2E74FF4002004F021FB0446FC
:100F18006B68B3F5C01F16D00BD9B3F5101F28D0D6
:100F28001DD8B3F5E01F22D0B3F5001FCED1440978
:100F3800CCE7B3F5402F06D00AD8B3F5802F02D0FE
:100F4800B3F5002FC2D19B0C5B00B4FBF3F4BDE7F3
:100F5800B3F5801FF7D0B3F5A01FB7D1F3E7B3F50A
:100F6800201F08D0B3F5301FB0D1040AAEE704093A
:100F7800ACE78409AAE7C409A8E72A68936823F4B8
:100F88008073936038BD6408194B9C420FD9194B84
:100F98002344194A934210D9184B2344184A9342C0
:100FA80013D92A68936843F44073936038BD2A685C
:100FB800936823F44073936038BD2A68936823F4D8
:100FC800407343F48073936038BD2A68936823F4B0
:100FD800407343F40073936038BD00BF00210240A2
:100FE8000020024000230240002D31010063025816
:100FF800105E5F00EFA1A0FF0F5E5F00DF4341FFBF
:101008001FBCBE0030B583B000230193002800F058
:1010180034810446436D03B323689A6812F0005F75
:1010280022D001221AB19968954A0A409A60236829
:101038009A6812F0805F19D00122FAB99968914A2A
:101048000A4042F080529A608F4B1B689B098F4A76
:10105800A2FB03239B0901930DE007F03FFF002348
:10106800A36584F85030D7E70022DBE70022E4E7E5
:10107800019B013B0193019B002BF9D123689A68DE
:1010880012F0805F00F0A9800122002A40F0A780BA
:10109800626D42F010026265A26D42F00102A26523
:1010A80001259A6812F0040F00F09B800121626DFF
:1010B80012F0100F40F0D980002940F0D680626D00
:1010C80022F4817242F0020262659A6812F0010FFE
:1010D80000F08980012212BB6D496E4A934218BF05
:1010E8008B420CBF0123002340F083808A6812F0F2
:1010F800010F7AD00121674A926812F0010F76D069
:1011080001220A430CBF0122002242B1002B7BD0EE
:10111800614963688A6822F47C1213438B60FFF785
:1011280067F941F20303984202D9A368102B6DD0E6
:10113800627D236B43EA4233A2681343227F43EA6A
:101148000243227F012A6CD0626A22B102F47872CB
:10115800A16A0A4313432168C868504A02401343EE
:10116800CB6023689A6812F0040F5FD001219A6857
:1011780012F0080F5CD0012281F0010182F0010217
:1011880011421BD0217DE26A42EA8132D868444983
:1011980001400A43DA6094F83830012B4AD02268BB
:1011A800136923F0010313612268136923F0704364
:1011B800616B0B4313612046FFF76AFEE368012B5E
:1011C8004AD02268136B23F00F031363636D23F077
:1011D800030343F0010363654CE0002255E7002553
:1011E8005FE7002163E7002275E7002183E700221B
:1011F80087E72C4A926812F0010F03D0012282F08F
:10120800010282E70022FAE7274982E7617D226B23
:1012180042EA41321343227F43EA024343F00C037C
:101228008FE7226A013A43EA42438DE700219EE7AD
:101238000022A1E7206802691C4B1340E26B511E93
:10124800226C42EA0142616C0A43A16C0A431343CF
:1012580043F001030361A7E721680B6B23F00F0339
:10126800A269013A13430B63B0E7636D43F01003BF
:1012780063650125284603B030BD0125FAE700BFA4
:10128800C0FFFF5FC0FFFF6F24020020632D3E05F3
:1012980000200240002102400023024003C0F0FF6A
:1012A800FCBFFFFF00600258006302581EF800FCF4
:1012B80070477047704770477047000090F850209B
:1012C800012A00F0B08030B49AB00346012280F8B9
:1012D800502002685548824247D00020019001986A
:1012E800002846D0806810F0040F4BD00124906885
:1012F80010F0040F48D00120002840F08580002C11
:1013080040F082804A48494C824218BFA2423DD1EF
:1013180000F500700A68002A49D0826822F4404229
:101328004C68224382601A68414C404DA24218BF63
:10133800AA4231D1AA6812F0010F29D001243C4AEF
:10134800926812F0010F25D0012222430CBF01221E
:101358000022002A63D08468364A22400C688968D3
:1013680021430A438260002053E000F58070019019
:10137800B5E75A6D42F020025A65002283F85020E2
:10138800012049E00024B2E70020B5E72A48C1E778
:101398000024D4E70022D8E7284A926812F0010F07
:1013A80003D0012282F00102D3E70022FAE7816824
:1013B80021F44041816019681D4C1C4DA14218BFA1
:1013C800A94217D1A96811F0010F11D001241849B9
:1013D800896811F0010F00D0012222430CBF0122BD
:1013E8000022F2B18168134A0A408260002010E0AE
:1013F8001446ECE71149896811F0010F00D0012269
:10140800B2FA82F25209ECE75A6D42F020025A65AC
:101418000120002283F850201AB030BC7047002009
:10142800F7E70020F5E70220704700BF00200240E0
:1014380000210240E0F0FFFF0063025800600258FC
:101448000649CB6823F4E0631B041B0C000200F47C
:10145800E0600343024A1A43CA60704700ED00E0A7
:101468000000FA0530B4144BDB68C3F30223C3F160
:101478000704042C28BF04241D1D062D13D9033B83
:10148800012505FA04F4013C2140994005FA03F3CB
:10149800013B13401943002807DB0901C9B2074B78
:1014A800195430BC70470023EAE700F00F00090127
:1014B800C9B2034B1954F4E700ED00E000E400E082
:1014C80014ED00E0002808DB420900F01F000123AA
:1014D80003FA00F0014B43F82200704700E100E0F6
:1014E8000138B0F1807F0AD2064B5860F021064AD5
:1014F80082F823100020986007221A6070470120A4
:10150800704700BF10E000E000ED00E0BFF35F8F20
:10151800044A536A23F4803353620022024B5A6010
:10152800704700BF00ED00E090ED00E040F00100E2
:10153800054B5860054A536A43F480335362BFF33E
:101548004F8FBFF36F8F704790ED00E000ED00E024
:101558004278134B9A60037823B9114B0022DA6062
:101568001A61704743680E4AD360017BC37A1B0631
:1015780043EA0173817A43EAC143417B43EA8143E9
:10158800817B43EA4143C17B43EA0143417A43EA11
:101598000123017A43EA410301780B431361704741
:1015A80090ED00E0F0B5876D446E856E6560C46EA1
:1015B80014B1046F456F65600468544D544EAC42D5
:1015C80018BFB4422ED01835AC4243D01835AC42BF
:1015D80042D01835AC4241D01835AC4240D018350D
:1015E800AC423FD01835AC423ED005F55675AC42FA
:1015F8003CD01835AC423BD01835AC423AD01835FF
:10160800AC4239D01835AC4238D01835AC4237D056
:101618001835AC4236D01835AC4201D0002502E06E
:10162800012500E00125002D33D0C46D04F01F050D
:101638003F24AC40BC6005682C6824F480242C60EE
:10164800046863608368402B1ED003689960036850
:10165800DA60F0BD0125E6E70125E4E70125E2E7C8
:101668000125E0E70125DEE70125DCE70125DAE7CA
:101678000125D8E70125D6E70125D4E70125D2E7DA
:101688000125D0E70125CEE703689A600368D96091
:10169800F0BD204EDFF880E0B44218BF744513D087
:1016A8001436B44222D01436B44221D01436B4428F
:1016B80020D01436B4421FD01436B4421ED014368B
:1016C800B44202D1012500E0012575B1C46D04F0D2
:1016D8001F050124AC407C60046863608368402B6C
:1016E8000ED0036899600368DA60F0BD0125ECE765
:1016F8000125EAE70125E8E70125E6E70125E4E712
:1017080003689A600368D960F0BD00BF28000240F2
:10171800100002401C540258085402580368384A02
:101728003849934218BF8B422ED01832934243D087
:101738001832934242D01832934241D01832934221
:1017480040D0183293423FD0183293423ED002F52F
:10175800567293423CD0183293423BD0183293428F
:101768003AD01832934239D01832934238D01832CE
:10177800934237D01832934236D01832934201D070
:10178800002202E0012200E001229AB310B4DAB28A
:10179800103A1D49A1FB0212120902F007011B4C65
:1017A800615CC165032A21D9194A1A40043282654D
:1017B800806D5DF8044B70470122E6E70122E4E7FB
:1017C8000122E2E70122E0E70122DEE70122DCE76D
:1017D8000122DAE70122D8E70122D6E70122D4E77D
:1017E8000122D2E70122D0E70122CEE7084A1A40B7
:1017F8008265DDE723F0FF038365806D704700BFD6
:101808002800024010000240ABAAAAAA60E3000820
:1018180000FCFFFF83699BB9836A012B0AD01BB1C7
:10182800022B01D000207047C36A13F0807F2ED1AD
:1018380000207047C36AB3F1C07F2AD000207047E8
:10184800B3F5005F06D0836A022B2AD9032B16D082
:1018580000207047836A032B03D8DFE803F01C04D9
:101868001C0A00207047C36A13F0807F15D100203E
:101878007047C36AB3F1C07F11D000207047C36AB4
:1018880013F0807F01D001207047002070470120AD
:1018980070470120704701207047012070470120E0
:1018A80070470120704700000368294A294993427C
:1018B80018BF8B4215D0143293422CD01432934265
:1018C8002BD0143293422AD01432934229D01432A6
:1018D800934228D01432934201D0002202E0012220
:1018E80000E001220ABBDAB2103A1B49A1FB02123E
:1018F80012091A491944A82900D80832184B134468
:101908009B000366174B436602F01F02012303FA8C
:1019180002F2826670470122E4E70122E2E701222F
:10192800E0E70122DEE70122DCE7DBB2083B0E4AF2
:10193800A2FB03231B090D4A1A44920002660C4AB3
:10194800426603F01F03012202FA03F3836670471D
:101958001C54025808540258ABAAAAAAF0FBFDBFAF
:101968000082001080080240CDCCCCCC0096001636
:101978008058025801794A1E072A2AD830B40368C9
:101988001D4C1E4DA34218BFAB4215D01434A342C0
:1019980020D01434A3421FD01434A3421ED01434D0
:1019A800A3421DD01434A3421CD01434A34201D046
:1019B800002302E0012300E00123ABB1104B0B44EC
:1019C8009B00C3660F4B0367012303FA02F24267C9
:1019D80030BC70470123F0E70123EEE70123ECE771
:1019E8000123EAE70123E8E7074B0B449B00C366A2
:1019F800064B0367E8E700BF1C5402580854025816
:101A08003F960016405902583F8200104009024094
:101A180070B50446FEF7D2FC002C00F08381054621
:101A28002368B249B24A934218BF8B420CBF0122C5
:101A380000222ED030318B4267D018318B4266D0CD
:101A480018318B4265D018318B4264D018318B42E3
:101A580063D018318B4262D001F556718B4260D049
:101A680018318B425FD018318B425ED018318B42CF
:101A78005DD018318B425CD018318B425BD0183165
:101A88008B425AD018318B4201D0002102E001214B
:101A980000E00121002900F0A480002184F834101E
:101AA800022184F83510002A49D1924A934246D03F
:101AB8001832934243D01832934240D0183293429E
:101AC8003DD0183293423AD01832934237D002F5BB
:101AD8005672934233D01832934230D01832934220
:101AE8002DD0183293422AD01832934227D0183278
:101AF800934224D01832934221D0183293421ED0F8
:101B08001A6822F001021A601DE00121C2E70121D2
:101B1800C0E70121BEE70121BCE70121BAE70121A5
:101B2800B8E70121B6E70121B4E70121B2E70121B5
:101B3800B0E70121AEE70121ACE70121AAE71A6865
:101B480022F001021A6023681A6812F0010F0BD004
:101B5800FEF734FC401B0528F5D9202363650323D1
:101B680084F83530012070BD1A6863491140A268B5
:101B7800E06802432069024360690243A0690243A6
:101B8800E0690243206A02430A43616A042913D0C8
:101B98001A602668756925F00705636A1D43042BDA
:101BA8000FD075612046FFF7B9FDE36D03F01F0202
:101BB8003F239340836066E0E16A206B01430A4358
:101BC800E6E7A36A1D43E36A002BEAD02046FFF745
:101BD80021FE0028E5D040236365012084F8350004
:101BE80070BD464A4648934218BF834213D0143208
:101BF800934262D01432934261D01432934260D03F
:101C0800143293425FD0143293425ED0143293421E
:101C180002D1012100E0012100295DD0002284F8D1
:101C28003420022284F835201A6836491140A26807
:101C3800402A4FD0802A4AD00022E06842EAD002E7
:101C4800206942EAD002606942EAD002A06942EA09
:101C5800D002E06942EAD002206A42EA10120A433E
:101C68001A602268284B1344284AA2FB03231B0945
:101C78009B00E3652046FFF751FDE36D03F01F026B
:101C88000123934043602046FFF70EFEA368802B94
:101C980029D0236E22791A60636EA26E5A60636837
:101CA800013B072B34D90023E366236763670020D1
:101CB8006065012384F8353070BD0121ACE701214E
:101CC800AAE70121A8E70121A6E70121A4E74FF42B
:101CD8008042B2E71022B0E740236365032384F80B
:101CE8003530012070BD00236360D2E71000024048
:101CF80028000240400002403F8010FE1C54025859
:101D0800085402580F00FEFFF8ABFDA7CDCCCCCC91
:101D18002046FFF72FFEE36E00221A60236F626FE2
:101D28005A60C4E7012070BD002800F0198170B521
:101D3800044690F83400012800F01481012084F84A
:101D4800340094F83500C0B2012807D0002384F885
:101D580034304FF400636365012070BD022084F8BD
:101D680035000020606520687F4D804EA84218BF6E
:101D7800B0422FD01835A8422CD01835A84229D007
:101D88001835A84226D01835A84223D01835A842BD
:101D980020D01835A8421DD005F55675A84219D08F
:101DA8001835A84216D01835A84213D01835A842BD
:101DB80010D01835A8420DD01835A8420AD01835C9
:101DC800A84207D01835A84204D0056825F00105B7
:101DD800056003E0056825F0010505602046FFF76A
:101DE800E1FB2368604A6149934218BF8B4231D0B6
:101DF8001832934200F085801832934200F08380B5
:101E08001832934200F08180183293427FD0183202
:101E180093427ED0183293427DD002F55672934297
:101E28007BD0183293427AD01832934279D0183244
:101E3800934278D01832934277D01832934276D0B2
:101E48001832934275D01832934201D0002202E032
:101E5800012200E00122002A6DD01A6822F01E0239
:101E680042F016021A60236C23B12268136843F00B
:101E780008031360236E1A6812F4803F03D01A68AF
:101E880042F480721A60E36E1BB11A6842F48072E1
:101E98001A602368344A3549934218BF8B4259D097
:101EA8001832934256D01832934253D01832934284
:101EB80050D0183293424DD0183293424AD018323B
:101EC800934247D002F55672934243D01832934258
:101ED80040D0183293423DD0183293423AD018324B
:101EE800934237D01832934234D01832934231D0CB
:101EF800183293422ED01A6842F001021A6000206C
:101F080070BD0122A7E70122A5E70122A3E701226C
:101F1800A1E701229FE701229DE701229BE7012219
:101F280099E7012297E7012295E7012293E7012229
:101F380091E701228FE71A6822F00E0242F00A02A6
:101F48001A60236C002B95D02268136843F00403B1
:101F580013608FE71A6842F001021A60002070BD12
:101F680001207047022070BD280002401000024086
:101F7800F0B583B00446002301939A4B1D689A4B31
:101F8800A3FB0535AD0A866D376830682368974925
:101F9800974A934218BF8B420CBF012200222ED0D1
:101FA80030318B4267D018318B4266D018318B4262
:101FB80065D018318B4264D018318B4263D0183108
:101FC8008B4262D001F556718B4260D018318B423A
:101FD8005FD018318B425ED018318B425DD01831FA
:101FE8008B425CD018318B425BD018318B425AD06F
:101FF80018318B4201D0002102E0012100E00121CB
:10200800002900F06382E16D01F01F000821814082
:102018000F425CD0002A48D1764A934245D0183204
:10202800934242D0183293423FD0183293423CD068
:102038001832934239D01832934236D002F556728C
:10204800934232D0183293422FD0183293422CD078
:102058001832934229D01832934226D0183293422C
:1020680023D01832934220D0183293421DD01A68D8
:10207800C2F3C0021CE00121C2E70121C0E701212F
:10208800BEE70121BCE70121BAE70121B8E7012138
:10209800B6E70121B4E70121B2E70121B0E7012148
:1020A800AEE70121ACE70121AAE71A68C2F3800272
:1020B8006AB11A6822F004021A60E36D03F01F0285
:1020C80008239340B360636D43F001036365E26DD9
:1020D80002F01F0227FA02F313F0010F42D023681F
:1020E800424843498B4218BF83420CBF012100215B
:1020F8002CD03030834229D01830834226D0183073
:10210800834223D01830834220D0183083421DD018
:10211800183083421AD000F55670834216D0183012
:10212800834213D01830834210D0183083420DD028
:10213800183083420AD01830834207D018308342BF
:1021480004D01830834201D01B6802E05969C1F3FA
:10215800C01139B1012303FA02F2B260636D43F092
:1021680002036365E26D02F01F02042303FA02F220
:1021780017424AD023681D481D498B4218BF834225
:102188000CBF0121002137D03030834234D01830C1
:10219800834231D0183083422ED0183083422BD05E
:1021A8001830834228D01830834225D000F5567065
:1021B800834221D0183083421ED0183083421BD06E
:1021C8001830834218D01830834215D01830834213
:1021D80012D0183083420FD0183083420CD01B68BD
:1021E8000DE000BF24020020B5814E1B1000024004
:1021F80028000240400002401968C1F3400121B1A3
:10220800B260636D43F004036365E36D03F01F037D
:10221800102202FA03F31F4259D02068A74AA8499E
:10222800904218BF88422ED0183290422BD01832D4
:10223800904228D01832904225D01832904222D0AD
:10224800183290421FD0183290421CD002F55672B4
:10225800904218D01832904215D01832904212D0BD
:10226800183290420FD0183290420CD01832904257
:1022780009D01832904206D01832904203D0026832
:10228800C2F3800202E00268C2F3C002FAB1B3608E
:1022980023681A6812F4802F0DD01B6813F4002FDE
:1022A80004D1236C9BB12046984710E0A36C73B10E
:1022B800204698470BE01A6812F4807F03D11A6809
:1022C80022F008021A60236C0BB120469847E36D90
:1022D80003F01F03202202FA03F31F4200F08E804E
:1022E8002068764A7649904218BF88422ED0183224
:1022F80090422BD01832904228D01832904225D0E4
:102308001832904222D0183290421FD01832904290
:102318001CD002F55672904218D01832904215D04F
:102328001832904212D0183290420FD01832904290
:102338000CD01832904209D01832904206D0183288
:10234800904203D00268C2F3400202E00268C2F37E
:102358000012002A52D0B36094F83530DBB2042B57
:102368000ED023681A6812F4802F35D01B6813F436
:10237800002F2CD1636C002B40D0204698473DE0BD
:102388002268136823F0160313602268536923F048
:1023980080035361236CB3B12268136823F00803E8
:1023A8001360E36D03F01F023F239340B3600023E3
:1023B80084F83430012384F83530236D002B7BD02A
:1023C8002046984778E0A36C002BE5D1E9E7E36B5A
:1023D800A3B12046984711E01A6812F4807F09D10A
:1023E8001A6822F010021A60002384F8343001239E
:1023F80084F83530E36B0BB120469847636D002BAA
:102408005AD0636D13F0010F52D0042384F835308D
:1024180023682A4A2A49934218BF8B422FD0183280
:1024280093422CD01832934229D01832934226D0A6
:102438001832934223D01832934220D01832934254
:102448001DD002F55672934219D01832934216D015
:102458001832934213D01832934210D01832934254
:102468000DD0183293420AD01832934207D018324E
:10247800934204D01A6822F001021A6003E01A6835
:1024880022F001021A60019B013301939D4204D39B
:1024980023681B6813F0010FF5D1002384F834304A
:1024A80023681B6813F0010F0CD0032384F8353020
:1024B800E36C0BB12046984703B0F0BD28000240FA
:1024C80010000240012384F83530F1E7A14DA24FF6
:1024D800AB4218BFBB4213D01435AB422BD01435D6
:1024E800AB422AD01435AB4229D01435AB4228D0A0
:1024F8001435AB4227D01435AB4202D1012100E09C
:1025080001210029D8D01F68E16D01F01F010425C1
:102518008D40284264D017F0040F61D0756017F41D
:10252800004F18D017F4803F0FD1A36C002BC3D0F5
:1025380020469847C0E70121E3E70121E1E70121AF
:10254800DFE70121DDE70121DBE7236C002BB3D0B6
:1025580020469847B0E717F0200F3AD123687F4A02
:102568007F49934218BF8B422FD0183293422CD008
:102578001832934229D01832934226D01832934207
:1025880023D01832934220D0183293421DD002F53E
:102598005672934219D01832934216D01832934289
:1025A80013D01832934210D0183293420DD01832FB
:1025B80093420AD01832934207D01832934204D07B
:1025C8001A6822F004021A6003E01A6822F008026E
:1025D8001A60236C002B3FF46FAF204698476BE7D7
:1025E80002258D40284262D017F0020F5FD0756037
:1025F80017F4004F10D017F4803F06D1636C002BFE
:102608003FF45AAF2046984756E7E36B002B3FF458
:1026180053AF204698474FE717F0200F40D1236863
:102628004E4A4F49934218BF8B422FD018329342DB
:102638002CD01832934229D01832934226D018321F
:10264800934223D01832934220D0183293421DD09F
:1026580002F55672934219D01832934216D01832A6
:10266800934213D01832934210D0183293420DD0AF
:10267800183293420AD01832934207D01832934244
:1026880004D01A6822F00A021A6003E01A6822F0DD
:1026980014021A60002384F83430012384F835309A
:1026A800E36B002B3FF408AF2046984704E7082562
:1026B80005FA01F108423FF4FFAE17F0080F3FF4A6
:1026C800FBAE7ABB274A93422CD01832934229D0CA
:1026D8001832934226D01832934223D018329342AC
:1026E80020D0183293421DD002F55672934219D069
:1026F8001832934216D01832934213D018329342AC
:1027080010D0183293420DD0183293420AD01832A2
:10271800934207D01832934204D01A6822F00E026E
:102728001A6003E01A6822F01C021A60E36D03F0D5
:102738001F03012202FA03F373606265002384F821
:10274800343084F83520E36C002B3FF4B5AE2046D6
:102758009847B1E61C540258085402582800024011
:102768001000024040000240406D7047F0B583B051
:1027780000233BE0092600E0002606FA0EF6354362
:1027880002346F4E46F824506E4C2568D44305EA4F
:1027980004064F6817F4803F01D042EA0506694DE8
:1027A8002E606E6804EA06054F6817F4003F01D0F2
:1027B80042EA0605634E75604FF0B0452D6804EA9D
:1027C80005064F6817F4801F01D042EA05064FF04E
:1027D800B0452E606D682C404E6816F4001F01D07D
:1027E80042EA05044FF0B042546001330A6832FAF5
:1027F80003F400F0A38001259D402A40F5D04C68E1
:10280800122C18BF022C12D14FEAD30E0EF1080E6B
:1028180050F82E4003F00706B6000F27B74024EA09
:1028280007040F6907FA06F6344340F82E40066895
:102838004FEA430E032404FA0EF4E44326404F689B
:1028480007F0030707FA0EF73E4306604E68771E47
:10285800112E18BF012F01D9122E0FD186682640DC
:10286800CF6807FA0EF73E438660466826EA0505F4
:102878004E68C6F300169E4035434560C5682C4037
:102888008D6805FA0EF52C43C4604C6814F0805F1F
:10289800ABD02D4CD4F8F45045F00205C4F8F450F0
:1028A800D4F8F44004F002040194019C9C08A61C8E
:1028B800234D55F8265003F003064FEA860E0F26DF
:1028C80006FA0EF625EA0605204FB8423FF454AF43
:1028D8001F4EB04222D006F58066B04220D006F5E1
:1028E8008066B0421ED006F58066B0421CD006F560
:1028F8008066B0421AD006F58066B04218D006F558
:102908008066B04216D006F58066B04214D006F54F
:102918008066B0423FF42EAF0A262EE701262CE748
:1029280002262AE7032628E7042626E7052624E7C1
:10293800062622E7072620E708261EE703B0F0BD93
:102948000004005880000058004402580000025853
:10295800000402580369194201D100207047012080
:10296800704712B90904816170478161704700009E
:10297800F8B50668346A04F00F07C4F34343C4F398
:102988000A14022B2ED16CB307EB8702D300034441
:10299800596C39B305462246304605F06FF8BA003F
:1029A8003A44D3002B445A6C22445A64DA6C2244C9
:1029B800DA6406EB4713D3F810150B4A0A408AB1BC
:1029C800D3F8002522F0804242F00042C3F80025E7
:1029D800BB00D919CA002A4492F8503083F0010389
:1029E80082F85030F8BD00BF0000F81FF0B585B080
:1029F8009DF828509DF82C60BDF8307090F8B842CA
:102A0800012C41D0012480F8B8424FEA810E8E444F
:102A18004FEACE0404444FF0000E84F83DE084F8F9
:102A28003830A4F8407084F8391084F83F6002F018
:102A38007F0E84F83AE012F0800F1BD101EB810E73
:102A48004FEACE0404444FF0000E84F83BE00446FD
:102A580001EB810E4FEACE00204480F83C500297EB
:102A680001960095206805F011F9002384F8B83222
:102A780005B0F0BD01EB810E4FEACE0404444FF0DF
:102A8800010E84F83BE0E2E70220F1E790F8B83263
:102A9800012B01D10220704710B50446012380F8AC
:102AA800B832006805F079F9002084F8B80210BD42
:102AB800002845D0F0B58BB00646046890F8B932C6
:102AC800002B38D0032386F8B932E36B13F4807FE8
:102AD80001D100233361306804F078FF344654F89C
:102AE80010EB6D460FCC0FC50FCC0FC594E8030053
:102AF80085E80300371D97E80E00704604F01AFFBA
:102B08000121306804F068FF344654F810EB6D4634
:102B18000FCC0FC50FCC0FC594E8030085E8030060
:102B280097E80E00704605F027F8012386F8B932B9
:102B380000200BB0F0BD80F8B83208F0E5F9C1E725
:102B480001207047F8B59DF81870BDF820608D0019
:102B58000D44EC00044484F83B2084F83F308FB9DE
:102B68008D000D44EC000444032584F842509DF880
:102B7800245084F83D50032B00F29580DFE803F0E1
:102B88000A8C2E5D01EB8105EC000444022584F8D3
:102B98004250F0E7012F08BF002A40F0848036B980
:102BA80001EB8102D3000344012283F8512001EB99
:102BB8008102D300034493F851303BB901EB810201
:102BC800D3000344002283F842206CE001EB810229
:102BD800D3000344022283F8422064E0B2B901EB37
:102BE8008102D300034493F851303BB901EB8102D1
:102BF800D3000344002283F8422054E001EB810211
:102C0800D3000344022283F842204CE001EB810206
:102C1800D300034493F850303BB901EB8102D30051
:102C28000344002283F842203DE001EB8102D300F7
:102C38000344022283F8422035E0B2B901EB810255
:102C4800D300034493F851303BB901EB8102D30020
:102C58000344002283F8422025E001EB8102D300DF
:102C68000344022283F842201DE001EB8102D300D5
:102C7800034493F850303BB901EB8102D30003447D
:102C8800002283F842200EE001EB8102D3000344C6
:102C9800022283F8422006E001EB8102D3000344BC
:102CA800002283F842208A005418E3000344079C5A
:102CB8005C649E64002483F85C40DC6483F839100B
:102CC80083F85D401144CB0003F13801027C0144D4
:102CD800006805F0DDF8F8BD30B583B00546046836
:102CE800D4F840340193D4F840340093009B23F087
:102CF8002E030093019B13F0020F07D0019B13F0E2
:102D0800010F25D1009B43F002030093019B13F0B0
:102D1800080F10D0009B43F008030093019B13F0A9
:102D2800040F2DD0AB69022B15D0EB68012B22D0F4
:102D3800284608F050F9019B13F0200F03D0009BA0
:102D480043F020030093009BC4F8403403B030BD27
:102D580008F034F9D6E7019B03F4C023B3F5802FBC
:102D680004D00121286804F0A5FEE1E702212868C3
:102D780004F0A0FEDCE74EF66022C4F80424D7E78E
:102D8800284608F02EF9D6E7F8B506460D46076836
:102D980007EB411707F5A064A36813F0040F37D0B9
:102DA8000423A360E36843F00203E360A36813F419
:102DB800007F63D1A36813F0010F00F088803369A6
:102DC8004BB1AA002A44D30033449A6C2169C1F359
:102DD8001201521ADA64AA002A44D30033440122A9
:102DE80083F85D2000219965A26093F83F30022B9B
:102DF80018BF8B424ED0032B57D0AB005919CA00CD
:102E0800324492F8503083F0010382F85030F8BD14
:102E1800A36813F0200F02D02023A360C6E7A3689D
:102E280013F0080F17D1A36813F4806FBED0E368BE
:102E380043F00203E360006804F0AFFF1023A360CF
:102E480005EB8502D3003344082283F85D204FF454
:102E58008063A360AAE7E36843F00203E36001EB41
:102E68008102D3000344052283F85D201023A36068
:102E78000823A360006804F090FF97E7E36843F035
:102E88000203E3602946306804F087FF4FF40073BB
:102E9800A360F8BDE36843F00203E36029463068A5
:102EA80004F07BFF1023A360A7E7D7F8003543F0B1
:102EB8000053C7F8003505EB8502D30033440122DF
:102EC80083F85C202946304608F084F895E7A36823
:102ED80013F0020F62D0E36823F00203E36005EB0E
:102EE8008502D300334493F85D30012B20D0052BA5
:102EF80032D0082B18BF062B3ED1AA002A44D30093
:102F080033449A6D01329A65032A2DD9AA002A44BE
:102F1800D300334400229A65042283F85C20D7F852
:102F2800003523F0804343F00043C7F8003506E03E
:102F380005EB8502D3003344012283F85C20022389
:102F4800A36005EB8502D300334493F85C2029463F
:102F5800304608F03FF8F8BD05EB8502D30033444E
:102F6800052283F85C20EAE705EB8502D3003344A9
:102F7800022283F85C20D2E7032BE0D105EB85021F
:102F8800D3003344022283F85C20D7F8003523F0BD
:102F9800804343F00043C7F80035D0E7A36813F037
:102FA800800F1AD1A36813F0100F15D005EB850216
:102FB800D300334493F83F30032B26D0022B18BF9D
:102FC800002B07D105EB8502D300334400229A6514
:102FD80033694BB31023A360F8BDE36843F00203E1
:102FE800E360AB005919CA003244916D0131916513
:102FF8002B44DA003244062382F85D3029463068D3
:1030080004F0CBFE8023A360F8BD05EB8502D30056
:10301800334400229A65E36843F00203E3602946DB
:10302800306804F0BAFED5E705EB8502D3003344D7
:10303800032283F85D20E36843F00203E360294636
:10304800306804F0AAFEC5E7F8B5036803EB41133E
:1030580003F5A064A26812F0040F11D10E460546CC
:10306800A26812F0200F26D02023A36001EB810272
:10307800D3001A46034493F83D30012B07D0F8BD1E
:103088000423A360E36843F00203E360F8BD8B0008
:103098000244002182F83D103344DA00024402233E
:1030A80082F85C30E36843F00203E360314600686D
:1030B80004F073FEF8BDA26812F0400F34D1A26884
:1030C80012F4007F4AD1A26812F0010F51D1A26810
:1030D80012F0080F62D1A26812F0100F6FD08A00A8
:1030E8000A44D300034400229A65032283F85D2032
:1030F80093F83D306BB901EB8102D300034493F898
:103108003C3033B901EB8102D3000344012283F838
:103118003D20E36843F00203E3603146286804F089
:103128003CFE1023A360F8BD8B005918CA00024466
:10313800042182F85D10012182F83D103344DA0041
:10314800024400239365E36843F00203E3603146D9
:10315800006804F022FE4023A360F8BDE36843F052
:103168000203E360006804F018FE4FF40073A360E4
:10317800F8BD8F007A18D300034400229A65E368EB
:1031880043F00203E360006804F007FE0123A36034
:10319800B919C800284480F85D30F8BD0823A36039
:1031A800E36843F00203E360006804F0F6FD06EB11
:1031B8008601C8002844052380F85D30F8BDA26860
:1031C80012F0800F3AD1A26812F4806F47D1A2683A
:1031D80012F0020F3FF453AFE26822F00202E260FD
:1031E80001EB8101CA001146024492F85D20012AD0
:1031F80049D0032A68D0042A6ED0052A74D0082A38
:1032080018BF062A4AD1B1003144CA000244916D60
:103218000131916503296FD9B1003144CA000244D4
:1032280000219165042182F85C10D3F8002522F072
:10323800804242F00042C3F800252FE0E36843F0E3
:103248000203E360006804F0A8FD06EB8601CB00EA
:103258002B44062283F85D208023A360F8BDE36831
:1032680043F00203E360006804F097FD1023A360B5
:103278004FF48063A36006EB8601CB002B44082241
:1032880083F85D20F8BD0B460344012283F85C20D7
:1032980093F83F30023BDBB293420CD90223A36080
:1032A80006EB8602D3002B4493F85C20314628466F
:1032B80007F090FEE3E60B46034493F8512082F0B2
:1032C800010283F85120E9E706EB8602D3000344A4
:1032D800022283F85C20E1E706EB8602D300034470
:1032E800022283F85C20D9E706EB8602D300034468
:1032F800052283F85C20D1E706EB8601CA00024468
:10330800022182F85C1090E7F8B504460568284663
:1033180004F0CCFB012800D0F8BD206804F0C2FB03
:103328000028F9D0206804F0BDFB10F4001F03D07A
:1033380023684FF400125A61206804F0B3FB10F4BC
:10334800801F03D023684FF480125A61206804F06C
:10335800A9FB10F0806F03D023684FF080625A6198
:10336800206804F09FFB10F0020F02D023680222AD
:103378005A61206804F096FB10F0005F08D02368BB
:103388004FF000525A61D5F8403413F0010F28D09D
:10339800206804F087FB10F0807F2AD1206804F0B1
:1033A80081FB10F0080F28D1206804F07BFB10F097
:1033B800007F29D1206804F075FB10F0100F49D068
:1033C8000123002BA8D02268936923F0100393618E
:1033D8002046FFF7CDFA2268936943F01003936102
:1033E8009AE7204607F0F0FD0121206804F062FB0F
:1033F800CEE72046FFF770FCD0E7204607F0D8FD5F
:10340800236808225A61CFE7206804F0C1FC074608
:10341800002604E0F1B22046FFF716FE0136A36845
:103428009E4212D206F00F0327FA03F313F0010F9E
:10343800F4D005EB4613D3F8003513F4004FE9D068
:10344800F1B22046FFF7A0FCE8E723684FF00072CE
:103458005A61AFE70023B4E738B590F8B832012BCA
:1034680001D1022038BD0446012580F8B852006811
:1034780004F0A6FA2946206804F05BFB002084F8D3
:10348800B80238BD90F8B832012B01D1022070473C
:1034980010B50446012380F8B832006804F0A4FD92
:1034A800002084F8B80210BD08B5006804F022FBBB
:1034B80008BD01EB8101CB00184490F85C0070470F
:1034C80001EB8101CB001844C06C704708B5006857
:1034D80004F0D7FB08BD08B5006804F0C7FB08BDB9
:1034E80003689A6912F0020F01D000229A620368F9
:1034F8009A6912F0010F03D19A6942F001029A61A8
:10350800704770B4039D066870686C0D04F480649D
:1035180044F07F7444F4583444F47F7444F0030452
:1035280020EA0400C1F3090141EA02411943294391
:103538000843706070BC704770B504460D46164667
:1035480003689B6913F0100F1CD023689A6912F066
:10355800200F19D1B5F1FF3FF7D0FCF72FFF801BE3
:10356800854201D3002DF0D1636C43F020036364DE
:10357800202384F84130002384F8423084F8403016
:10358800012070BD002070BD1022DA61236820255B
:10359800DD612046FFF7A4FF2268536823F0FF731C
:1035A80023F48B3323F4FF7323F001035360636C1C
:1035B80043F00403636484F84150002384F84230E4
:1035C80084F84030012070BD70B504460D4616469B
:1035D80023689B6913F0020F1DD132462946204605
:1035E800FFF7AAFFC8B9B5F1FF3FF1D0FCF7E6FE37
:1035F800801B854201D3002DEAD1636C43F0200380
:103608006364202384F84130002384F8423084F82E
:103618004030012070BD002070BD012070BDF8B59C
:1036280005460F4616461C462B689B6937EA030376
:103638000CBF01230023B34218D1B4F1FF3FF3D0EC
:10364800FCF7BCFE069BC01A844201D3002CEBD1C8
:103658006B6C43F020036B64202385F84130002312
:1036680085F8423085F840300120F8BD0020F8BDCB
:1036780070B505460C4616462B689B6913F0200F5B
:103688001AD1324621462846FFF756FFB0B9FCF753
:1036980095FE801B844201D3002CEDD16B6C43F066
:1036A80020036B64202385F84130002385F84230DD
:1036B80085F84030012070BD002070BD012070BD2C
:1036C800002857D010B5044690F84130002B41D05F
:1036D800242384F841302268136823F0010313601F
:1036E8002268636823F0706313612268936823F487
:1036F80000439360E368012B31D02268A36843F448
:1037080004439360E368022B2FD0226851681A4B58
:103718000B4353602268D36823F40043D3602268C4
:10372800236961690B43A16943EA0123D3602268D5
:10373800E369216A0B4313602268136843F00103AD
:10374800136000206064202384F84130206384F8EB
:10375800420010BD80F8403006F034FBB8E722681C
:10376800A36843F400439360CCE723684FF40062F6
:103778005A60CAE701207047008000022DE9F04333
:1037880083B090F84150EDB2202D04D002231846A2
:1037980003B0BDE8F08390F84040012C01D102232A
:1037A800F5E7984617460D4604464FF0010980F89C
:1037B8004090FCF703FE0646009019234A464FF452
:1037C80000412046FFF72BFF002840F08980212385
:1037D80084F84130102384F8423000236364676220
:1037E800A4F82A806363638D9BB2FF2B0AD9FF225A
:1037F80022853F4B00934FF0807329462046FFF700
:1038080080FE18E0628D92B22285394B00934FF00A
:103818000073D2B229462046FFF773FE0BE0628D93
:1038280092B22285002300934FF00073D2B229464A
:103838002046FFF766FE638D9BB2002B33D03246DD
:103848000A992046FFF7C0FE00284BD12368626A18
:1038580012789A62636A01336362638D9BB2013B9B
:103868009BB26385238D013B9BB22385628D92B207
:10387800002AE0D0002BDED100960A9B002280218E
:103888002046FFF7CCFE78BB638D9BB2FF2BC6D9D1
:10389800FF222285002300934FF08073294620469B
:1038A800FFF72FFEC7E732460A992046FFF7E0FEEA
:1038B8000346D8B922682021D1612068426822F0E5
:1038C800FF7222F48B3222F4FF7222F0010242606E
:1038D80084F84110002284F8422084F8402056E7FA
:1038E800012354E7012352E7012350E701234EE760
:1038F8000020008090F84130DBB2202B01D002205C
:10390800704790F84030012B20D0012380F84030D8
:10391800242380F841300268136823F00103136000
:103928000268136823F4805313600268136819430C
:1039380011600268136843F001031360202380F8C4
:103948004130002380F84030184670470220704705
:1039580090F84130DBB2202B01D00220704790F85C
:103968004030012B1ED0012380F84030242380F8FA
:1039780041300268136823F001031360026813687A
:1039880023F4706343EA012111600268136843F06D
:1039980001031360202380F84130002380F8403071
:1039A8001846704702207047124BDB6813F0040F6B
:1039B80007D1104BDB6803F00703834201D00120D5
:1039C800704710B50B4AD36823F007031843D0603B
:1039D800FCF7F4FC0446074B5B6813F4005F07D15F
:1039E800FCF7ECFC001BB0F57A7FF4D9032010BD7E
:1039F800002010BD00480258024AD36843F0807383
:103A0800D360704700480258002800F0CB8238B5D0
:103A18000446036813F0010F36D0A94A136903F06E
:103A28003803926A102B26D0182B20D06368B3F580
:103A3800803F4FD0002B53D1A14B1A6822F480321B
:103A48001A601A6822F480221A606368002B5ED01C
:103A5800FCF7B4FC05469A4B1B6813F4003F13D1DE
:103A6800FCF7ACFC401B6428F5D9032038BD02F0F4
:103A78000302022ADAD1924B1B6813F4003F03D0E9
:103A88006368002B00F09082236813F0020F7DD04A
:103A98008B4A1369926A13F038034AD0182B45D021
:103AA800E368002B00F0B88085490A6822F0190203
:103AB80013430B60FCF782FC0546814B1B6813F02F
:103AC800040F40F09180FCF779FC401B0228F4D9E0
:103AD800032038BD7A4A136843F480331360B4E78F
:103AE800B3F5A02F09D0764B1A6822F480321A60F9
:103AF8001A6822F480221A60A7E7714B1A6842F408
:103B080080221A601A6842F480321A609DE7FCF736
:103B180055FC05466A4B1B6813F4003FB4D0FCF70C
:103B28004DFC401B6428F5D9032038BD12F0030F63
:103B3800B6D1634B1B6813F0040F03D0E368002B66
:103B480000F034825E4A136823F01903E1680B43DE
:103B58001360FCF733FC0546594B1B6813F0040F40
:103B680006D1FCF72BFC401B0228F5D9032038BDF1
:103B7800FCF73EFC41F2030398422CD8504A5368A4
:103B880023F47C33216943EA01335360236813F03B
:103B9800100F71D04A4A136903F03803926A082B50
:103BA80052D0182B4CD0E369002B00F0A380444A74
:103BB800136843F080031360FCF700FC0546404B94
:103BC8001B6813F4807F7DD1FCF7F8FB401B0228AB
:103BD800F5D9032038BD3A4A536823F0FE432169DA
:103BE80043EA01635360D1E7FCF702FC41F20303A7
:103BF800984208D8324A536823F47C33216943EA4F
:103C080001335360C2E72E4A536823F0FE4321690B
:103C180043EA01635360B9E7294A136823F00103B3
:103C28001360FCF7CBFB0546254B1B6813F0040F0C
:103C3800ACD0FCF7C3FB401B0228F5D9032038BDE4
:103C480002F00302012AAED11D4B1B6813F4807FDA
:103C580004D0E369802B01D0012038BDFCF7C8FBF4
:103C680041F20303984222D8154A536823F0F843D7
:103C7800216A43EA81635360236813F0080F61D017
:103C88006369002B4AD00E4A536F43F00103536710
:103C9800FCF794FB05460A4B5B6F13F0020F51D1FA
:103CA800FCF78CFB401B0228F5D9032038BD044AD9
:103CB800D36823F07C53216A43EA0163D360DBE7CE
:103CC80000440258FCF794FB41F20303984208D8D9
:103CD800AE4A536823F0F843216A43EA816353608C
:103CE800CAE7AA4AD36823F07C53216A43EA0163EE
:103CF800D360C1E7A54A136823F080031360FCF77B
:103D08005DFB0546A14B1B6813F4807FB4D0FCF71C
:103D180055FB401B0228F5D9032038BD9B4A536F39
:103D280023F001035367FCF749FB0546974B5B6F8C
:103D380013F0020F06D0FCF741FB401B0228F5D90F
:103D4800032038BD236813F0200F29D0A3699BB145
:103D58008E4A136843F480531360FCF72FFB054623
:103D68008A4B1B6813F4005F1AD1FCF727FB401B32
:103D78000228F5D9032038BD844A136823F48053F8
:103D88001360FCF71BFB0546804B1B6813F4005FB0
:103D980006D0FCF713FB401B0228F5D9032038BDD9
:103DA800236813F0040F21D1636A002B00F000810F
:103DB800764A126902F03802182A00F0FB80022BBA
:103DC80075D0724A136823F080731360FCF7F6FA13
:103DD80004466E4B1B6813F0007F00F0E180FCF78F
:103DE800EDFA001B0228F4D9032038BD684A13688D
:103DF80043F480731360FCF7E1FA0546644B1B68D3
:103E080013F4807F06D1FCF7D9FA401B6428F5D952
:103E1800032038BDA368012B1CD00BBB5B4B1A6F6A
:103E280022F001021A671A6F22F004021A67A368C7
:103E380063B3FCF7C3FA0546544B1B6F13F0020F2C
:103E4800B2D1FCF7BBFA401B41F288339842F3D950
:103E5800032038BD4D4A136F43F001031367E6E7AB
:103E6800052B09D0494B1A6F22F001021A671A6F05
:103E780022F004021A67DAE7444B1A6F42F0040290
:103E88001A671A6F42F001021A67D0E7FCF796FA30
:103E980005463E4B1B6F13F0020F85D0FCF78EFAD8
:103EA800401B41F288339842F3D9032038BD374A82
:103EB800136823F080731360FCF780FA0546334BD0
:103EC8001B6813F0007F06D0FCF778FA401B022825
:103ED800F5D9032038BD2D4B996A2E4A0A40A16AAC
:103EE800E06A41EA00110A439A62226B013AC2F37E
:103EF8000802616B0139490289B20A43A16B013991
:103F0800090401F4FE010A43E16B0139090601F0D5
:103F1800FE410A431A63DA6A22F00102DA62596B37
:103F28001D4A0A40A16C42EAC1025A63DA6A22F0C9
:103F38000C02216C0A43DA62DA6A22F00202616C2E
:103F48000A43DA62DA6A42F48032DA62DA6A42F4FE
:103F58000032DA62DA6A42F48022DA62DA6A42F01D
:103F68000102DA621A6842F080721A60FCF726FAD7
:103F78000446064B1B6813F0007F0FD1FCF71EFAAE
:103F8800001B0228F5D9032038BD00BF00440258A1
:103F9800004802580CFCFFFF0700FFFF002038BD57
:103FA800002038BD01207047012038BD012038BDF0
:103FB800002038BD012038BD734B1B6903F038035E
:103FC800102B00F0DF80182B11D00BB16F48704711
:103FD8006D4B1B6813F0200F01D16D4870476A4B79
:103FE8001868C0F3C1006A4B23FA00F0704710B498
:103FF800654A916A01F00301906AC0F30510D46A1A
:1040080004F00104536BC3F3CC0303FB04F307EE82
:10401800903AF8EE677A002800F09480012966D07B
:10402800F9B1022900F0918007EE100AF8EE476A0C
:104038009FED586A86EE267A534B1B6BC3F3080331
:1040480006EE903AF8EE666A9FED536A67EE867A56
:1040580076EEA77AF7EE006A77EEA67A27EE277A49
:1040680061E0494B1B6813F0200F23D046490A68CA
:10407800C2F3C102464BD34007EE103AF8EE476A46
:1040880007EE100AB8EE476A86EE867A0B6BC3F322
:10409800080306EE903AF8EE666A9FED3F6A67EE0F
:1040A800867A76EEA77AF7EE006A77EEA67A27EE9A
:1040B800277A38E007EE100AF8EE476A9FED376A6C
:1040C80086EE267A304B1B6BC3F3080306EE903A54
:1040D800F8EE666A9FED306A67EE867A76EEA77A22
:1040E800F7EE006A77EEA67A27EE277A1BE007EE4E
:1040F800100AF8EE476A9FED276A86EE267A224B69
:104108001B6BC3F3080306EE903AF8EE666A9FED60
:10411800226A67EE867A76EEA77AF7EE006A77EE7D
:10412800A67A27EE277A184B1B6BC3F34623013375
:1041380007EE903AF8EE677AC7EE276AFCEEE67A61
:1041480017EE900A5DF8044B704707EE100AF8EE78
:10415800476A9FED136A86EE267A0B4B1B6BC3F3F7
:10416800080306EE903AF8EE666A9FED0B6A67EE72
:10417800867A76EEA77AF7EE006A77EEA67A27EEC9
:10418800277AD0E7074870470044025800093D00E5
:104198000090D0030024744A000000390024744CB5
:1041A80020BCBE4B40787D01002800F02B8170B503
:1041B8000446964B1B6803F00F038B420CD2934ABC
:1041C800136823F00F030B431360136803F00F0306
:1041D800994201D0012070BD236813F0040F0CD060
:1041E80022698B4B9B6903F070039A4205D9884872
:1041F800836923F070031A438261236813F0080F60
:104208000CD06269824BDB6903F070039A4205D9CE
:104218007F48C36923F070031A43C261236813F00F
:10422800100F0CD0A2697A4BDB6903F4E0639A4261
:1042380005D97748C36923F4E0631A43C261236848
:1042480013F0200F0CD0E269714B1B6A03F0700366
:104258009A4205D96E48036A23F070031A43026232
:10426800236813F0020F0CD0E268694B9B6903F0D6
:104278000F039A4205D96648836923F00F031A434E
:1042880082610D46236813F0010F41D0604A93699B
:1042980023F47063A1680B4393616368022B23D0F6
:1042A800032B27D0012B2CD0594A126812F0040F87
:1042B80000F0AA8056490A6922F0070213430B61ED
:1042C800FCF77CF80646524B1B6903F0380362681A
:1042D800B3EBC20F1CD0FCF771F8801B41F2883396
:1042E8009842F0D9032070BD126812F4003FE1D162
:1042F800012070BD464A126812F0007FDAD1012011
:1043080070BD434A126812F4807FD3D1012070BD7A
:10431800236813F0020F0CD0E2683D4B9B6903F051
:104328000F039A4205D23A498B6923F00F031A43C7
:104338008A61364B1B6803F00F039D420CD2334A47
:10434800136823F00F032B431360136803F00F0364
:104358009D4201D0012070BD236813F0040F0CD0DA
:1043680022692B4B9B6903F070039A4205D22849B6
:104378008B6923F070031A438A61236813F0080FCE
:104388000CD06269224BDB6903F070039A4205D2B4
:104398001F49CB6923F070031A43CA61236813F0DD
:1043A800100F0CD0A2691A4BDB6903F4E0639A4240
:1043B80005D21749CB6923F4E0631A43CA6123681D
:1043C80013F0200F0CD0E269114B1B6A03F0700345
:1043D8009A4205D20E490B6A23F070031A430A6207
:1043E800FFF7EAFD0A4B9B69C3F30323094AD35C31
:1043F80003F01F03D840084B1860084B1868FBF7F8
:104408007DFF70BD01207047012070BD0020005263
:10441800004402587CE30008240200200400002025
:1044280008B501F013FA064B9B6903F00F03054A20
:10443800D35C03F01F03D840034B186008BD00BFCE
:10444800004402587CE3000828020020404B9B6A85
:1044580003F00303032B79D070B50E4605463C4A9A
:10446800136823F080631360FBF7A8FF0446384BFA
:104478001B6813F0006F06D0FBF7A0FF001B022893
:10448800F5D9032070BD324B9A6A22F47C32296830
:1044980042EA01329A626A68013AC2F30802A968DC
:1044A8000139490289B20A43E9680139090401F46A
:1044B800FE010A4329690139090601F0FE410A4350
:1044C8009A63DA6A22F0C00269690A43DA62DA6A30
:1044D80022F02002A9690A43DA62DA6A22F010029D
:1044E800DA62D96B1B4A0A40E96942EAC102DA6317
:1044F800DA6A42F01002DA62C6B91A46DB6A43F495
:104508000023D362124A136843F080631360FBF7F9
:1045180055FF04460E4B1B6813F0006F14D1FBF7D0
:104528004DFF001B0228F5D9032070BD012E05D0D0
:10453800074AD36A43F40013D362E3E7044AD36A11
:1045480043F48013D362DDE7002070BD012070477B
:10455800004402580700FFFF404B9B6A03F0030327
:10456800032B79D070B50E4605463C4A136823F0F4
:1045780080531360FBF722FF0446384B1B6813F087
:10458800005F06D0FBF71AFF001B0228F5D90320AD
:1045980070BD324B9A6A22F07C72296842EA015255
:1045A8009A626A68013AC2F30802A96801394902A5
:1045B80089B20A43E9680139090401F4FE010A4392
:1045C80029690139090601F0FE410A431A64DA6AC9
:1045D80022F4406269690A43DA62DA6A22F40072F4
:1045E800A9690A43DA62DA6A22F48072DA62596CDB
:1045F8001B4A0A40E96942EAC1025A64DA6A42F48B
:104608008072DA62C6B91A46DB6A43F48003D36261
:10461800124A136843F080531360FBF7CFFE044639
:104628000E4B1B6813F0005F14D1FBF7C7FE001B8D
:104638000228F5D9032070BD012E05D0074AD36A98
:1046480043F08073D362E3E7044AD36A43F4000378
:10465800D362DDE7002070BD012070470044025896
:104668000700FFFFF8B50446036813F0006F2BD06E
:10467800436EB3F5801F19D010D9B3F5001F1BD0B6
:10468800B3F5401F1ED1002565BB9B4A136D23F46B
:104698004013616E0B4313652E4617E093B9964A93
:1046A800D36A43F40033D3620025EDE702210430D6
:1046B800FFF7CCFE0546E7E702212430FFF74CFF61
:1046C8000546E1E70125DFE700263546236813F4B0
:1046D800807F27D0636D042B21D8DFE803F0051312
:1046E800190A0A002E46F1E7834AD36A43F40033D5
:1046F800D362B5B9804A136D23F00703616D0B438C
:1047080013650FE00021201DFFF7A0FE0546F0E726
:10471800002104F12400FFF71FFF0546E9E7012502
:10472800E7E72E46236813F4007F29D0A36D802B7A
:104738001ED008D873B1402B0AD10021201DFFF7E5
:1047480085FE05460BE0C02B09D0B3F5807F06D067
:10475800012504E0684AD36A43F40033D36275B98B
:10476800654A136D23F4E073A16D0B43136507E0ED
:10477800002104F12400FFF7EFFE0546EFE72E467F
:10478800236813F4806F2ED0D4F8A430B3F5800FCB
:1047980021D009D883B1B3F5001F0BD10021201D0A
:1047A800FFF754FE05460CE0B3F5C00F09D0B3F58A
:1047B800000F06D0012504E04F4AD36A43F40033C2
:1047C800D3627DB94C4A936D23F46003D4F8A410E6
:1047D8000B43936507E0002104F12400FFF7BCFEBA
:1047E8000546EEE72E46236813F4006F2ED0D4F862
:1047F800A830B3F1007F21D009D883B1B3F1807F0D
:104808000BD10021201DFFF721FE05460CE0B3F176
:10481800407F09D0B3F1806F06D0012504E0364A05
:10482800D36A43F40033D3627DB9334A936D23F0DE
:10483800E063D4F8A8100B43936507E0002104F166
:104848002400FFF789FE0546EEE72E46236813F09D
:10485800007F20D0A36C102B08D004D9202B13D0B4
:10486800302B08D000E033B1012504E0224AD36A96
:1048780043F40033D3626DB91F4AD36C23F030037D
:10488800A16C0B43D36406E00221201DFFF7DEFD77
:104898000546F0E72E46236813F4805F2FD0E36DBA
:1048A800B3F5005F20D009D883B1B3F5805F0BD191
:1048B8000021201DFFF7CAFD05460CE0B3F5405F57
:1048C80009D0B3F5804F06D0012504E00A4AD36A1F
:1048D80043F40033D3628DB9074A136D23F4E043E0
:1048E800E16D0B4313650AE0002104F12400FFF792
:1048F80033FE0546EFE700BF004402582E46236802
:1049080013F4005F29D0236EB3F5003F1DD011D8F2
:104918003BB1B3F5803F16D10121201DFFF796FD6D
:104928000546CDB9974A136D23F4E023216E0B4356
:10493800136512E0B3F5802FF3D0B3F5A02FF0D0B4
:10494800B3F5403FEDD00125EBE7012104F1240048
:10495800FFF702FE0546E4E72E46236813F4804F6E
:104968002BD0D4F8AC30B3F1005F1ED012D83BB1D5
:10497800B3F1805F17D10121201DFFF767FD0546C0
:10498800D5B9804A936D23F0E043D4F8AC100B43BB
:10499800936512E0B3F1804FF2D0B3F1A04FEFD09E
:1049A800B3F1405FECD00125EAE7012104F12400CE
:1049B800FFF7D2FD0546E3E72E46236813F4004FC0
:1049C8001ED0E36EB3F1805F05D0B3F1005F10D065
:1049D80033B1012504E06B4AD36A43F40033D36250
:1049E8006DB9684A136D23F04053E16E0B431365AC
:1049F80006E00121201DFFF729FD0546F0E72E46B8
:104A0800236813F0807F1DD0636C032B17D8DFE871
:104A180003F0070210075B4AD36A43F40033D362FA
:104A28007DB9584AD36C23F00303616C0B43D364FC
:104A380008E00221201DFFF709FD0546F0E70125E2
:104A4800EEE72E46236813F4800F1FD1236813F076
:104A5800010F00F09E80A36F282B00F29080DFE802
:104A680003F07E8E8E8E8E8E8E8E798E8E8E8E8EAC
:104A78008E8E878E8E8E8E8E8E8E7E8E8E8E8E8E65
:104A88008E8E7E8E8E8E8E8E8E8E7E003E4A136821
:104A980043F480731360FBF791FC07463A4B1B689D
:104AA80013F4807F05D1FBF789FCC01B6428F5D976
:104AB8000325002D4AD1334B1B6FD4F8B020534047
:104AC80013F4407F0CD02F4B1A6F22F44072196FE9
:104AD80041F480311967196F21F4803119671A6719
:104AE800D4F8B030B3F5807F15D08DBBD4F8B03092
:104AF80003F44072B2F5407F1ED0224A136923F4B2
:104B08007C5313611F490B6FD4F8B020C2F30B021A
:104B180013430B679AE7FBF751FC0746194B1B6FCA
:104B280013F0020FE1D1FBF749FCC01B41F28833B7
:104B38009842F3D90325D8E71248026922F47C5237
:104B4800124901EA131313430361DBE72E467DE79D
:104B58002E467BE70121201DFFF778FC0546BDB9ED
:104B6800084A536D23F03803A16F0B43536510E0D7
:104B7800012104F12400FFF7EFFC0546EFE70125CA
:104B8800EDE700BF0044025800480258CFFFFF007D
:104B98002E46236813F0020F1FD0636F052B19D818
:104BA800DFE803F00803110808080121201DFFF7BA
:104BB8004DFC054685B9A84A536D23F00703616F7C
:104BC8000B43536509E0012104F12400FFF7C4FCFD
:104BD8000546EFE70125EDE72E46236813F0040F9D
:104BE80021D0D4F89030052B1AD8DFE803F0080359
:104BF800120808080121201DFFF728FC05468DB979
:104C0800954A936D23F00703D4F890100B439365EE
:104C180009E0012104F12400FFF79EFC0546EEE7B8
:104C28000125ECE72E46236813F0200F2BD0D4F88B
:104C38008C30B3F1005F1ED012D83BB1B3F1805F66
:104C480017D10021201DFFF701FC0546D5B9824A7E
:104C5800536D23F0E043D4F88C100B43536512E0F6
:104C6800B3F1804FF2D0B3F1A04FEFD0B3F1405F72
:104C7800ECD00125EAE7022104F12400FFF76CFCDF
:104C88000546E3E72E46236813F0400F2BD0D4F8EF
:104C98009830B3F5006F1ED012D83BB1B3F5806FD2
:104CA80017D10021201DFFF7D1FB0546D5B96A4A67
:104CB800936D23F4E053D4F898100B43936512E0F6
:104CC800B3F5805FF2D0B3F5A05FEFD0B3F5406FD6
:104CD800ECD00125EAE7022104F12400FFF73CFCAF
:104CE8000546E3E72E46236813F0800F2BD0D4F84F
:104CF8009C30B3F5804F1ED012D83BB1B3F5005F9E
:104D080017D10021201DFFF7A1FB0546D5B9524A4E
:104D1800936D23F46043D4F89C100B43936512E021
:104D2800B3F5004FF2D0B3F5204FEFD0B3F5C04F35
:104D3800ECD00125EAE7022104F12400FFF70CFC7E
:104D48000546E3E72E46236813F0080F0AD0D4F887
:104D58008030B3F5805F23D03F494A6D22F440523A
:104D680013434B65236813F0100F0AD0D4F894301E
:104D7800B3F5807F1DD038498A6D22F44072134301
:104D88008B65236813F4002F33D0D4F8A030B3F523
:104D9800803F26D0B3F5003F19D09BB1012516E01E
:104DA800022104F12400FFF7D7FB0028DAD00126FE
:104DB800D8E7022104F12400FFF7CEFB0028E0D059
:104DC8000126DEE70021201DFFF740FB05467DB9DF
:104DD800214A936D23F44033D4F8A0100B43936514
:104DE80007E0022104F12400FFF7B6FB0546EEE7D1
:104DF8002E46236813F4802F23D0D4F88430B3F5DB
:104E0800001F16D0B3F5401F09D0B3F5801F01D09D
:104E1800012504E0104AD36A43F40033D3627DB914
:104E28000D4A536D23F44013D4F884100B43536593
:104E380007E0012104F12400FFF78EFB0546EEE7A9
:104E48002E46236813F4803F1DD0E36C33B1B3F5CD
:104E5800803F11D0012506E000440258414AD36A38
:104E680043F40033D3626DB93E4AD36C23F48033E4
:104E7800E16C0B43D36406E00221201DFFF7E6FA3C
:104E88000546F0E72E46236813F0005F0FD123682C
:104E980013F4003F26D0E36FB3F5807F13D00FD90A
:104EA800B3F5007F14D0B3F5407F0AD110E002219A
:104EB80004F12400FFF750FB0028E8D00126E6E7BC
:104EC80033B1012504E0274AD36A43F40033D3629F
:104ED8003DB9244A536D23F44073E16F0B43536586
:104EE80000E02E46236813F4801F06D01D4A136D78
:104EF80023F00043216F0B431365236813F0805F91
:104F080007D0184A136923F48043D4F8B4100B432C
:104F18001361236813F4001F06D0124A136D23F09F
:104F28008073A16E0B431365236813F0804F09D07B
:104F38000C4B1A6922F400421A611A69D4F8B810A5
:104F48000A431A612368002B03DB06B101263046A9
:104F5800F8BD044AD36C23F04053216D0B43D3644E
:104F6800F3E700BF0044025830B477498C6A8A6A74
:104F7800C2F30532CD6A05F01005CB6BC3F3CC0341
:104F880003FB05F3002A00F0DA8004F0030407EEBF
:104F9800903AF8EE677A012C66D0FCB1022C00F04A
:104FA800B18007EE102AB8EE477A9FED686AC6EE20
:104FB800076A654B9B6BC3F3080307EE103AB8EE1C
:104FC800477A9FED636A67EE867A77EE277AB7EEBF
:104FD800007A77EE877A66EEA76A61E05A4B1B681B
:104FE80013F0200F23D0584C2168C1F3C101594B4D
:104FF800CB4007EE103AB8EE477A06EE902AB8EEA4
:10500800666AC7EE066AA36BC3F3080307EE103A95
:10501800B8EE477A9FED4E6A67EE867A77EE277A82
:10502800B7EE007A77EE877A66EEA76A38E007EE81
:10503800102AB8EE477A9FED486AC6EE076A424BD7
:105048009B6BC3F3080307EE103AB8EE477A9FED5F
:10505800406A67EE867A77EE277AB7EE007A77EEBF
:10506800877A66EEA76A1BE007EE102AB8EE477A41
:105078009FED366AC6EE076A334B9B6BC3F3080392
:1050880007EE103AB8EE477A9FED316A67EE867AF6
:1050980077EE277AB7EE007A77EE877A66EEA76A18
:1050A800294A936BC3F3462307EE103AB8EE477AC2
:1050B800B7EE006A37EE067AC6EE877AFCEEE77A34
:1050C800C0ED007A936BC3F3064307EE103AB8EECF
:1050D800477A37EE067AC6EE877AFCEEE77AC0EDB5
:1050E800017A936BC3F3066307EE903AF8EE677A9A
:1050F80077EE867A86EEA77ABCEEC77A80ED027ADA
:1051080030BC704707EE102AB8EE477A9FED136A55
:10511800C6EE076A0C4B9B6BC3F3080307EE103A05
:10512800B8EE477A9FED0A6A67EE867A77EE277AB5
:10513800B7EE007A77EE877A66EEA76AB0E70023C3
:10514800036043608360DBE7004402580024744A2C
:10515800000000390090D0030024744C20BCBE4BE2
:1051680030B477498C6A8A6AC2F30552CD6A05F46D
:1051780080754B6CC3F3CC0303FB05F3002A00F0E6
:10518800DA8004F0030407EE903AF8EE677A012C0F
:1051980066D0FCB1022C00F0B18007EE102AB8EE00
:1051A800477A9FED686AC6EE076A654B1B6CC3F3C6
:1051B800080307EE103AB8EE477A9FED636A67EE88
:1051C800867A77EE277AB7EE007A77EE877A66EEF8
:1051D800A76A61E05A4B1B6813F0200F23D0584C84
:1051E8002168C1F3C101594BCB4007EE103AB8EE24
:1051F800477A06EE902AB8EE666AC7EE066A236C0E
:10520800C3F3080307EE103AB8EE477A9FED4E6AEB
:1052180067EE867A77EE277AB7EE007A77EE877AA6
:1052280066EEA76A38E007EE102AB8EE477A9FEDD7
:10523800486AC6EE076A424B1B6CC3F3080307EEC5
:10524800103AB8EE477A9FED406A67EE867A77EEB5
:10525800277AB7EE007A77EE877A66EEA76A1BE0C0
:1052680007EE102AB8EE477A9FED366AC6EE076A4F
:10527800334B1B6CC3F3080307EE103AB8EE477ABA
:105288009FED316A67EE867A77EE277AB7EE007A75
:1052980077EE877A66EEA76A294A136CC3F346232A
:1052A80007EE103AB8EE477AB7EE006A37EE067A9C
:1052B800C6EE877AFCEEE77AC0ED007A136CC3F38A
:1052C800064307EE103AB8EE477A37EE067AC6EE8E
:1052D800877AFCEEE77AC0ED017A136CC3F30663B4
:1052E80007EE903AF8EE677A77EE867A86EEA77A36
:1052F800BCEEC77A80ED027A30BC704707EE102A00
:10530800B8EE477A9FED136AC6EE076A0C4B1B6C22
:10531800C3F3080307EE103AB8EE477A9FED0A6A1E
:1053280067EE867A77EE277AB7EE007A77EE877A95
:1053380066EEA76AB0E70023036043608360DBE79B
:10534800004402580024744A000000390090D00339
:105358000024744C20BCBE4B30B477498C6A8A6AEE
:10536800C2F30512CD6A05F001054B6BC3F3CC03FC
:1053780003FB05F3002A00F0DA8004F0030407EECB
:10538800903AF8EE677A012C66D0FCB1022C00F056
:10539800B18007EE102AB8EE477A9FED686AC6EE2C
:1053A800076A654B1B6BC3F3080307EE103AB8EEA8
:1053B800477A9FED636A67EE867A77EE277AB7EECB
:1053C800007A77EE877A66EEA76A61E05A4B1B6827
:1053D80013F0200F23D0584C2168C1F3C101594B59
:1053E800CB4007EE103AB8EE477A06EE902AB8EEB0
:1053F800666AC7EE066A236BC3F3080307EE103A22
:10540800B8EE477A9FED4E6A67EE867A77EE277A8E
:10541800B7EE007A77EE877A66EEA76A38E007EE8D
:10542800102AB8EE477A9FED486AC6EE076A424BE3
:105438001B6BC3F3080307EE103AB8EE477A9FEDEB
:10544800406A67EE867A77EE277AB7EE007A77EECB
:10545800877A66EEA76A1BE007EE102AB8EE477A4D
:105468009FED366AC6EE076A334B1B6BC3F308031E
:1054780007EE103AB8EE477A9FED316A67EE867A02
:1054880077EE277AB7EE007A77EE877A66EEA76A24
:10549800294A136BC3F3462307EE103AB8EE477A4E
:1054A800B7EE006A37EE067AC6EE877AFCEEE77A40
:1054B800C0ED007A136BC3F3064307EE103AB8EE5B
:1054C800477A37EE067AC6EE877AFCEEE77AC0EDC1
:1054D800017A136BC3F3066307EE903AF8EE677A26
:1054E80077EE867A86EEA77ABCEEC77A80ED027AE6
:1054F80030BC704707EE102AB8EE477A9FED136A62
:10550800C6EE076A0C4B1B6BC3F3080307EE103A91
:10551800B8EE477A9FED0A6A67EE867A77EE277AC1
:10552800B7EE007A77EE877A66EEA76AB0E70023CF
:10553800036043608360DBE7004402580024744A38
:10554800000000390090D0030024744C20BCBE4BEE
:1055580000B58BB0B0F5807F19D0B0F5007F45D08D
:10556800B0F5806F76D0B0F5006F00F0AA80B0F586
:10557800805F00F0DD80B0F5002F00F00D81B0F500
:10558800803F00F0318100200BB05DF804FBA04B98
:105598001B6D03F00703042B00F23881DFE803F0EA
:1055A800050A0F0314009B48EEE707A8FFF7D4FE8F
:1055B8000898E9E704A8FFF7D7FC0498E4E701A8EE
:1055C800FFF7CEFD0198DFE7914BDB6C13F04053FA
:1055D80001D19148D8E7B3F1805F00F02181B3F1A0
:1055E800005F01D00020CFE78C48CDE7884B1B6DCA
:1055F80003F4E073802B1DD008D8B3B1402B40F0E2
:10560800118104A8FFF7B0FC0498BDE7C02B0AD0AD
:10561800B3F5807F40F006817D4BDB6C13F040537F
:105628000DD17D48B0E77B48AEE707A8FFF794FEA9
:105638000898A9E701A8FFF793FD0198A4E7B3F13B
:10564800805F00F0F180B3F1005F01D000209BE79C
:10565800724899E76E4B9B6D03F46003B3F5800FB6
:105668001FD009D8C3B1B3F5001F40F0DF8004A8EC
:10567800FFF77AFC049887E7B3F5C00F0AD0B3F5B3
:10568800000F40F0D380624BDB6C13F040530DD118
:10569800614879E75F4877E707A8FFF75DFE089854
:1056A80072E701A8FFF75CFD01986DE7B3F1805F31
:1056B80000F0BE80B3F1005F01D0002064E75748D6
:1056C80062E7534B9B6D03F0E063B3F1007F1FD09B
:1056D80009D8C3B1B3F1807F40F0AC8004A8FFF7CC
:1056E80043FC049850E7B3F1407F0AD0B3F1806FD0
:1056F80040F0A080464BDB6C13F040530DD1464878
:1057080042E7444840E707A8FFF726FE08983BE72A
:1057180001A8FFF725FD019836E7B3F1805F00F097
:105728008B80B3F1005F01D000202DE73B482BE7C9
:10573800374B1B6D03F4E043B3F5005F1DD008D869
:10574800B3B1B3F5805F79D104A8FFF70DFC0498D5
:105758001AE7B3F5405F09D0B3F5804F6ED12C4BF3
:10576800DB6C13F040530DD12B480DE729480BE7AC
:1057780007A8FFF7F1FD089806E701A8FFF7F0FC76
:10578800019801E7B3F1805F5AD0B3F1005F01D00F
:105798000020F9E62148F7E61D4B9B6D03F44033E2
:1057A800B3F5803F0AD0B3F5003F0CD00BB1002011
:1057B800EAE604A8FFF7D8FB0498E5E601A8FFF796
:1057C800CFFC0398E0E6124BDB6C13F0405301D199
:1057D8001148D9E6B3F1805F34D0B3F1005F01D04E
:1057E8000020D1E60D48CFE6094BDB6C13F480337B
:1057F80002D033B90020C7E607A8FFF7ADFD089827
:10580800C2E604A8FFF7B0FB0698BDE60020BBE699
:10581800004402580080BB000090D00340787D010E
:105828000948B1E60020AFE60748ADE60020ABE640
:105838000548A9E60020A7E60348A5E60020A3E658
:105848000148A1E600489FE600093D0008B5FEF7BB
:10585800B3FB064B9B69C3F30323054AD35C03F0F0
:105868001F03D840034B186008BD00BF004402580E
:105878007CE3000824020020D0B110B50446437A26
:1058880093B1022363722268136823F020036168CE
:105898000B4313602268136843F004031360012369
:1058A80063720020E06010BD037204F0A1FCE8E719
:1058B80001207047037A012B2BD070B50D460446A2
:1058C80001230372437ADBB2012B03D001200023AA
:1058D800237270BD02234372FAF770FD06462368EF
:1058E8005A6812F0010F0DD1FAF768FD801B0228E3
:1058F800F5D901206072E36843F00203E3600023F6
:10590800237270BD9B6823612B60012363720020A2
:10591800DDE70220704770B4044600206064E0644C
:105928006068022818BF002816D1002020654FF4AF
:105938008030E0654FF6FF7060670020A06623673F
:1059480013F0010F4CD151B1022913D84FF4003094
:1059580020660020606607E001202065E7E7002058
:1059680020664FF480256566032A34D8DFE802F004
:1059780004161F290120F7E78025A5645B085D014F
:1059880065651B01A3654023E366022929D1012A25
:1059980023D0022A25D10823A36622E08025A56406
:1059A8005B089E0166655B01A365E566EDE7C025BA
:1059B800A5645B089D0165655B01A3658023E366BB
:1059C800E3E7E025A5645B089D0165655B01A365C8
:1059D8008023E366D9E70120D7E71023A366D8E739
:1059E800012070BC704730B400244464C464446827
:1059F800022C18BF002C1BD1012404650024C465A7
:105A08004FF4003505664FF48025456684660367C4
:105A18004FF6FF74446703290DD004290FD10121E3
:105A280081650021032A29D8DFE802F00B141A2126
:105A380000240465E2E70D2181650021F2E70121D8
:105A4800F0E7802282641B0143654023C366084651
:105A580030BC7047802282645B014365C266F6E70A
:105A6800C02282645B0143658023C366EFE7E022BE
:105A780082645B0143658023C366E8E70121E6E7AA
:105A880001290AD00123426C082A08D04268023A48
:105A9800012A0CD943F0040070470923F3E7426850
:105AA800012A18BF032AF1D143F01003EEE743F0AF
:105AB800600070470E4B1B680E4AA2FB03231B0BAA
:105AC8009B0001680A6822F480320A603BB1013BFE
