:020000040800F2
:1000000000000220D9B6000859AD00085BAD000819
:100010005DAD00085FAD000861AD000800000000A4
:1000200000000000000000000000000063AD0008B8
:1000300065AD00080000000067AD000869AD00086C
:1000400029B7000829B7000829B7000829B7000810
:1000500029B7000829B7000829B7000829B7000800
:1000600029B7000829B7000829B7000871AD0008B2
:1000700081AD000891AD000829B7000829B7000834
:1000800029B7000829B70008A1AD000829B7000862
:1000900029B7000829B7000829B7000829B70008C0
:1000A00029B7000829B7000829B7000829B70008B0
:1000B00029B7000829B7000829B7000829B70008A0
:1000C00029B7000829B7000829B7000829B7000890
:1000D00029B7000829B7000829B7000829B7000880
:1000E00029B7000829B700080000000029B7000858
:1000F00029B7000829B7000829B7000829B7000860
:1001000029B7000829B7000829B7000829B700084F
:1001100029B7000829B7000829B7000829B700083F
:1001200029B7000829B7000829B7000829B700082F
:1001300029B7000829B7000829B7000829B700081F
:1001400000000000000000000000000000000000AF
:1001500029B7000829B7000829B7000829B70008FF
:1001600029B7000829B7000829B7000829B70008EF
:1001700029B7000829B7000829B7000800000000C7
:1001800029B7000829B7000829B7000829B70008CF
:1001900029B7000829B7000829B7000829B70008BF
:1001A00029B7000829B7000829B7000829B70008AF
:1001B00029B7000829B7000829B7000829B700089F
:1001C00029B7000829B7000829B7000829B700088F
:1001D00029B7000829B7000829B7000829B700087F
:1001E00029B7000829B7000829B7000829B700086F
:1001F00029B7000829B7000829B7000829B700085F
:1002000029B7000829B7000829B7000829B700084E
:1002100029B7000829B7000829B7000829B700083E
:1002200029B7000829B7000829B700080000000016
:1002300029B7000829B700080000000029B7000806
:1002400029B7000829B7000829B7000829B700080E
:1002500029B7000829B7000829B7000829B70008FE
:1002600029B7000829B7000829B7000829B70008EE
:1002700029B7000829B7000829B7000800000000C6
:1002800029B7000829B7000829B7000800000000B6
:080290000000000029B700087E
:1002980010B5054C237833B9044B13B10448AFF3B8
:1002A80000800123237010BD1C0000200000000006
:1002B80084B7000808B5034B1BB103490348AFF3E3
:1002C800008008BD000000002000002084B700085E
:1002D80053B94AB9002908BF00281CBF4FF0FF31A5
:1002E8004FF0FF3000F072B9ADF1080C6DE904CEA3
:1002F80000F006F8DDF804E0DDE9022304B07047F9
:100308002DE9F047089E04468846002B4BD18A42C7
:10031800154667D9B2FA82F24AB1C2F1200701FA4A
:1003280002F320FA07F7954047EA030894404FEA9A
:10033800154E230CB8FBFEF71FFA85FC0EFB178839
:1003480043EA084307FB0CF1994209D9EB1807F176
:10035800FF3080F01B81994240F21881023F2B4404
:100368005B1AA4B2B3FBFEF00EFB103344EA03445D
:1003780000FB0CFCA44509D92C1900F1FF3380F0CF
:100388000781A44540F2048102382C4440EA074022
:10039800A4EB0C0400271EB1D4400023C6E9004397
:1003A8003946BDE8F0878B4209D9002E00F0EB8072
:1003B8000027C6E9000138463946BDE8F087B3FA98
:1003C80083F7002F47D18B4202D3824200F2FA8092
:1003D800841A61EB030301209846002EE0D0C6E999
:1003E8000048DDE702B9FFDEB2FA82F2002A40F0E7
:1003F8008F80491B4FEA154E1FFA85F80127B1FB7C
:10040800FEFC230C0EFB1C1143EA014308FB0CF114
:10041800994207D9EB180CF1FF3002D2994200F249
:10042800CD808446591AA3B2B1FBFEF00EFB10141E
:1004380043EA044408FB00F8A04507D92C1900F149
:10044800FF3302D2A04500F2B6801846A4EB080498
:1004580040EA0C409FE7C7F1200CBB4022FA0CFE93
:100468004EEA030E01FA07F420FA0CF521FA0CF310
:100478004FEA1E482543B3FBF8F92C0C08FB193347
:100488001FFA8EFA44EA034309FB0AF49C4202FA73
:1004980007F200FA07F10BD91EEB030309F1FF304D
:1004A80080F087809C4240F28480A9F1020973445D
:1004B8001B1BADB2B3FBF8F008FB103345EA03444D
:1004C80000FB0AFAA24508D91EEB040400F1FF3329
:1004D8006BD2A24569D90238744440EA0940A0FBAE
:1004E8000289A4EB0A044C45C2464B4654D351D06A
:1004F800002E69D0B1EB0A0564EB030404FA0CFC86
:10050800FD40FC404CEA0505C6E90054002747E7D2
:10051800C2F1200320FA03F7954001FA02F021FA0C
:1005280003F34FEA154E3843010CB3FBFEF71FFAED
:1005380085F80EFB173341EA034107FB08F38B42AA
:1005480004FA02F407D9691807F1FF3C2FD28B424D
:100558002DD9023F2944CB1A81B2B3FBFEF00EFB22
:10056800103341EA034100FB08F38B4207D96918AD
:1005780000F1FF3C17D28B4215D902382944C91A19
:1005880040EA07473BE73746304609E70746E7E6CC
:100598001846FBE64145ABD2B8EB020A69EB0E02FE
:1005A80001381346A4E76046E9E7184695E7674629
:1005B800D1E781467CE702382C4447E7ACF1020CCE
:1005C8002B442FE7384608E73746E9E6704700BF6F
:1005D800104B1B780BB90120704710B504464FF437
:1005E8007A70B0FBF3F30C4A1068B0FBF3F001F03B
:1005F8008DF868B90F2C01D901200AE000222146A4
:100608004FF0FF3001F042F8024B5C60002000E040
:10061800012010BD000000201400002010B50320A8
:1006280001F022F802F056FF0F498B69C3F3032348
:100638000E4AD35C03F01F03D8400D4B18608B693A
:1006480003F00F03D35C03F01F03D840094B186075
:100658000020FFF7BDFF10B10124204610BD04465D
:100668000AF064FBF9E700BF00440258C8B7000865
:100678001400002018000020034B1B78034A11685F
:100688000B441360704700BF000000207400002076
:10069800014B1868704700BF7400002038B5044645
:1006A800FFF7F6FF0546B4F1FF3F02D0044B1B7875
:1006B8001C44FFF7EDFF401BA042FAD338BD00BF32
:1006C80000000020014B1868000C70470010005C07
:1006D80008B5806B09F0D4FE08BD7047704700006C
:1006E800F8B5044603681D685E68A649A64A9342A1
:1006F80018BF8B4240D1A54B9F6807F01F0715F024
:10070800020F10D016F0020F0DD0636D13F0100F0A
:1007180003D1636D43F400636365204600F0E6FE91
:10072800236802221A6015F0040F02D016F0040F95
:1007380005D115F0080F4FD016F0080F4CD0636D97
:1007480013F0100F03D1636D43F4007363652368DE
:10075800DA6812F4406F39D18B4A93420ED01A46A8
:1007680093420ED0052F14BF002101214FB141B98A
:10077800092F06D0D26805E0854BBDE7A2F5807247
:10078800EEE7DA6812F4005F20D11A6812F0080F59
:100798001CD09A6812F0040F10D15A6822F00C028B
:1007A8005A60636D23F480736365636D13F4805F2F
:1007B8000CD1636D43F00103636507E0636D43F09B
:1007C80010036365A36D43F00103A365204609F098
:1007D80033FE23680C221A6015F0200F02D016F0A1
:1007E800200F05D115F0400F63D016F0400F60D0F0
:1007F800636D13F0100F03D1636D43F40053636509
:100808002368DA6C12F4C07F19D10121DA6812F476
:10081800406F16D101205C4A934214D01A46934285
:1008280014D0062F14BF4FF0000C4FF0010C6FB11D
:10083800BCF1000F0AD1072F08D0D26807E00021C9
:10084800E4E70020E7E7A2F58072E8E7DA6831B963
:1008580012F0007F27D130B312F4005F23D119685A
:1008680011F0400F1FD012F4001F1CD19A6812F02B
:10087800080F10D15A6822F060025A60636D23F4A1
:1008880080536365636D13F4807F0CD1636D43F00F
:100898000103636507E0636D43F010036365A36DAF
:1008A80043F00103A365204600F01CFE2368602284
:1008B8001A6015F0800F02D016F0800F36D115F4AB
:1008C800807F02D016F4807F3BD115F4007F02D0E0
:1008D80016F4007F41D115F0100F20D016F0100F3C
:1008E8001DD0236B6BB1002F45D023682549264ABC
:1008F800934218BF8B423CD1244B9B6813F4404F62
:100908000AD0636D43F480636365A36D43F002030B
:10091800A3652046FFF7E2FE236810221A6015F44B
:10092800806F02D016F4806F34D1F8BD636D43F444
:10093800803363652046FFF7D0FE236880221A6063
:10094800BDE7636D43F400336365204600F0CCFDDA
:1009580023684FF480721A60B7E7636D43F480230D
:100968006365204600F0C1FD23684FF400721A60E9
:10097800B1E7074BC1E72368DB6813F0030FCBD05F
:10098800BFE700BF002002400021024000230240D0
:1009980000630258636D43F480436365A36D43F0BD
:1009A8000803A36523684FF480621A60204600F0AC
:1009B8009AFDBAE708B5836B5A6D12F0500F31D122
:1009C8005A6D42F400725A651A68116811F0080FDE
:1009D80014D0D16811F4406F20D1D26812F4005FAE
:1009E8001CD15A6D22F480725A655A6D12F4805FD8
:1009F80014D15A6D42F001025A650FE0D26812F024
:100A0800030F0BD15A6D22F480725A655A6D12F495
:100A1800805F03D15A6D42F001025A65184609F009
:100A28000BFD08BD5A6D12F0100F03D1DB6CDB6CA7
:100A38009847F6E71846FFF751FEF2E708B5806BCE
:100A4800436D43F040034365836D43F004038365BE
:100A5800FFF744FE08BD0000F0B482B00022019206
:100A680090F85020012A00F03B820346012280F8CA
:100A780050200468A26812F004020AD0426D42F0C5
:100A8800200242650120002283F8502002B0F0BC09
:100A980070470868C0F31305002D50D1C0F3846077
:100AA80001258540E0692843E0611F684E680D68AC
:100AB8003037300A800000F00C003C5806F01F0662
:100AC8004FF01F0C0CFA06FC24EA0C04C5F38465ED
:100AD800B5402C433C501868846814F0040F37D094
:100AE8000124856815F0080F34D001252C4365D101
:100AF8000F688C6800F11405780E800000F004007F
:100B08002E58C7F304574FF0070C0CFA07FC26EAD7
:100B18000C06BC4034432C50A948006800F07040D3
:100B2800B0F1805F18D01C68E06810F0100F67D132
:100B38004869E468C4F382046400A04013E090FAB2
:100B4800A0F0B0FA80F000F01F0001258540A9E769
:100B58000024C6E70025C9E748691C68E468C4F3AF
:100B680082046400A0400D69042D57D01F680E68E8
:100B7800603757F8254004F0004406F0F846304343
:100B8800204347F8250018680E694C7E012C3FD099
:100B98001546603050F8264024F000442C4340F8B5
:100BA80026401D680C69087E012834D0286920F485
:100BB800F04004F01F04A24002432A6118688268CA
:100BC80012F0010F40F088810A68CD68D0F8C04063
:100BD800C2F3130624EA060405F01806794DF54019
:100BE8002A40C2F313022243C0F8C020C868764ADC
:100BF800904247D00A68002AC0F2E880002042E705
:100C08004869E468A40804F004046400A040AAE762
:100C18004FF00045BDE74FF40062C7E71868026E61
:100C280002F0F8420C68B2EB846F1CD01868426E70
:100C380002F0F8420C68B2EB846F19D01868826E23
:100C480002F0F8420C68B2EB846F16D01868C26ED6
:100C580002F0F8420C68B2EB846FAFD1C26E22F09A
:100C68000042C266AAE7026E22F000420266DDE791
:100C7800426E22F000424266E0E7826E22F00042B5
:100C88008266E3E71D680A68C2F3130696BB900EF6
:100C9800013000F01F0009288CBF00200120002827
:100CA80052D09EBB940E0134A40604F0F844B6BB9F
:100CB800900E013000F01F070120B8400443C6BB66
:100CC800920E013202F01F0202EB42021205224389
:100CD8008C681435500E800000F004002E58C2F3C2
:100CE80004520727974026EA070604FA02F232431D
:100CF8002A507FE792FAA2F0B0FA80F0013000F0B3
:100D08001F0009288CBF00200120C8E792FAA2F42E
:100D1800B4FA84F40134A40604F0F844C7E792FA5C
:100D2800A2F0B0FA80F0013000F01F070120B840AF
:100D3800C4E792FAA2F2B2FA82F2013202F01F027A
:100D480002EB42021205C2E7CEB9940E0134A406A2
:100D580004F0F844E6B9900E013000F01F070120B6
:100D6800B8400443F6B9900E013000F01F0000EBC4
:100D780040021E3A120542F000722243A8E792FA96
:100D8800A2F4B4FA84F40134A40604F0F844E1E7C8
:100D980092FAA2F0B0FA80F0013000F01F070120AB
:100DA800B840DEE792FAA2F0B0FA80F0013000F025
:100DB8001F0000EB40021E3A120542F00072DCE709
:100DC8000010005CFFFF0F000000FF47196845484E
:100DD800454CA14218BF81420CBF0120002021D1FF
:100DE800424DAC6804F0E07610B33E48806810F0DD
:100DF800010F19D001203C4FBF6817F0010F15D023
:100E0800012738430CBF0120002000285ED0384855
:100E1800824218D03748824236D03748824244D07E
:100E2800002030E6354DDCE70020E4E70027E8E75E
:100E38003348806810F0010F03D0012080F00100D2
:100E4800E3E70020FAE714F4000FE3D12C4A9142BB
:100E580001D0002017E646F40002A96821F0E071ED
:100E68000A43AA60274A126892092749A1FB02127D
:100E780092095200019202E0019A013A0192019A04
:100E8800002AF9D10020FEE514F0807FC5D11C4A64
:100E9800914201D00020F6E546F08072A96821F061
:100EA800E0710A43AA600020EDE514F4800F15D123
:100EB800134A914201D00020E5E546F48002A96872
:100EC80021F0E0710A43AA600020DCE55A6D42F087
:100ED80020025A650120D6E50020D4E50020D2E59D
:100EE8000220D3E5002002400021024000230240F6
:100EF800000084CB000052C70000B8CF006302583E
:100F08000060025814000020632D3E0538B50368C0
:100F18009A6812F0010F52D199682A4A114209D0F1
:100F2800436D43F010034365836D43F0010383650C
:100F3800012045E004469968234A0A4042F001022C
:100F48009A60FFF7A5FB054623682049204A93428B
:100F580018BF8B420DD102F50072926802F01F0291
:100F68001B498B4207D0194699420CD05AB1002030
:100F780026E0184AF1E7A1F58071F5E7FFF788FB4D
:100F8800401B02280FD823681A6812F0010F14D1E9
:100F98009A6812F0010FF1D199680B4A0A4042F0A1
:100FA80001029A60EAE7636D43F010036365A36D7D
:100FB80043F00103A365012002E0002000E00020C7
:100FC80038BD00BF3F000080C0FFFF7F0020024007
:100FD8000021024000630258F8B504683D4E3E4DBA
:100FE800AC4218BFB4421ED105F50075AD6805F0D6
:100FF8001F05A46814F0040F67D190F85040012C25
:1010080066D0012380F85030052D14BF0024012438
:10101800002D08BF1C4644B9092D06D0002380F8CE
:101028005030012352E02D4DE0E716460F460446A6
:10103800FFF76CFF0346002843D1626D284B13402D
:1010480043F4807363652368234A934233D01A4676
:10105800934200D01DB9636D23F480136365636DFB
:1010680013F4805F2AD0A36D23F00603A365E36C15
:101078001C4ADA63E36C1C4A1A64E36C1B4ADA64A0
:1010880023681C221A60002384F8503022685368B1
:1010980043F010035360216833463A464031E06C10
:1010A80000F0C2FE034621688868114A024042F0F7
:1010B80004028A600AE0A2F58072C9E70023A365EA
:1010C800D5E7002284F8502000E002231846F8BD36
:1010D8000223FBE70020024000210240006302587F
:1010E800FEF0FFFFBD090008D9060008450A000800
:1010F800C0FFFF7F38B5054603685149514A9342FE
:1011080018BF8B4223D1504B9B6813F4403F14BF48
:10111800012300234BB302F011FC04466B68B3F5BE
:10112800003F1CD0B3F5403F1DD0B3F5803F16D02B
:10113800FFF7C8FA41F20303984256D8434B9C4242
:101148004DD92A68936843F48073936038BD404B47
:101158009B6813F4403F14BF01230023DAE71B0CFC
:10116800B4FBF3F4E4E78408E2E74FF4002003F06B
:10117800CFFC04466B68B3F5C01F16D00BD9B3F586
:10118800101F28D01DD8B3F5E01F22D0B3F5001FDB
:10119800CED14409CCE7B3F5402F06D00AD8B3F531
:1011A800802F02D0B3F5002FC2D19B0C5B00B4FB9B
:1011B800F3F4BDE7B3F5801FF7D0B3F5A01FB7D19F
:1011C800F3E7B3F5201F08D0B3F5301FB0D1040AF8
:1011D800AEE70409ACE78409AAE7C409A8E72A68C6
:1011E800936823F480739360B0E76408194B9C42BA
:1011F8000FD9194B2344194A934210D9184B234449
:10120800184A934213D92A68936843F44073936049
:101218009CE72A68936823F44073936096E72A68EA
:10122800936823F4407343F4807393608EE72A68CD
:10123800936823F4407343F40073936086E700BF18
:10124800002002400021024000230240002D31010D
:1012580000630258105E5F00EFA1A0FF0F5E5F0001
:10126800DF4341FF1FBCBE0030B583B000230193AC
:10127800002800F01C810446436DE3B123689A6896
:1012880012F0005F03D099688A4A0A409A6023687E
:101298009A6812F0805F1BD19968874A0A4042F029
:1012A80080529A60854B1B689B09854AA2FB0323E1
:1012B8009B09019309E008F07BFA0023A36584F8F1
:1012C8005030DBE7019B013B0193019B002BF9D1D7
:1012D80023689A6812F0805F40F09D80626D42F04A
:1012E80010026265A26D42F00102A26501259A68AA
:1012F80012F0040F00F091800121626D12F0100FBE
:1013080040F0CD80002940F0CA80626D22F48172DD
:1013180042F0020262659A6812F0010F21D1694910
:10132800694A934218BF8B420CBF012300237AD12C
:101338008A6812F0010F72D001226349896811F09E
:10134800010F6ED001210A430CBF0122002242B1D5
:10135800002B73D05D4963688A6822F47C121343BA
:101368008B60FFF7AFF941F20303984202D9A368F3
:10137800102B65D0627D236B43EA4233A268134386
:10138800227F43EA0243227F012A64D0626A22B1A3
:1013980002F47872A16A0A4313432168C8684C4A68
:1013A80002401343CB6023689A6812F0040F57D0A9
:1013B80001219A6812F0080F54D001220A431BD168
:1013C800217DE26A42EA8131D868424A02400A43F2
:1013D800DA6094F83830012B46D02268136923F07C
:1013E800010313612268136923F07043616B0B4397
:1013F80013612046FFF77EFEE368012B46D0226882
:10140800136B23F00F031363636D23F0030343F09F
:101418000103636548E0002569E700216DE70022C4
:101428008BE700218FE72C4A926812F0010F03D056
:10143800012282F001028AE70022FAE727498AE7B7
:10144800617D226B42EA41321343227F43EA024321
:1014580043F00C0397E7226A013A43EA424395E7CF
:101468000021A6E70022A9E7206802691C4B134067
:10147800E26B511E226C42EA0142616C0A43A16C84
:101488000A43134343F001030361ABE721680B6B85
:1014980023F00F03A269013A13430B63B4E7636DAA
:1014A80043F0100363650125284603B030BD0125CC
:1014B800FAE700BFC0FFFF5FC0FFFF6F1400002006
:1014C800632D3E0500200240002102400023024017
:1014D80003C0F0FFFCBFFFFF006002580063025822
:1014E8001EF800FC7047704770477047704700004F
:1014F80090F85020012A00F0AA8030B49AB0034630
:10150800012280F8502002685248824243D00020CD
:1015180001900198002842D0806810F0040F47D04D
:101528000124906810F0040F40F08280002C7FD1D5
:10153800484C4948824218BFA2423BD100F500708E
:101548000A68002A47D0826822F440424C68224345
:1015580082601A683F4D404CA24218BFAA422FD160
:10156800AA6812F0010F27D001243B4A926812F0B2
:10157800010F23D0012222430CBF01220022002A9E
:1015880061D08468354A22400C68896821430A433F
:101598008260002051E000F580700190B9E75A6D33
:1015A80042F020025A65002283F85020012047E0CB
:1015B8000024B6E72A48C3E70024D6E70022DAE782
:1015C800284A926812F0010F03D0012282F001022A
:1015D800D5E70022FAE7816821F440418160196863
:1015E8001C4D1D4CA14218BFA94217D1A96811F082
:1015F800010F11D001241849896811F0010F00D09A
:10160800012222430CBF01220022F2B18168134A51
:101618000A408260002010E01446ECE7114989680E
:1016280011F0010F00D00122B2FA82F25209ECE760
:101638005A6D42F020025A650120002283F850209A
:101648001AB030BC70470020F7E70020F5E7022009
:10165800704700BF0020024000210240E0F0FFFF79
:1016680000630258006002580649CB6823F4E0631F
:101678001B041B0C000200F4E0600343024A1A43F7
:10168800CA60704700ED00E00000FA0530B4154B61
:10169800DB68C3F30223C3F10704042C28BF042426
:1016A8001D1D062D14D9033B4FF0FF3505FA04F430
:1016B80021EA0401994005FA03F322EA03031943D6
:1016C800002807DB0901C9B2074B195430BC704721
:1016D8000023E9E700F00F000901C9B2034B1954D0
:1016E800F4E700BF00ED00E000E400E014ED00E0E6
:1016F800002807DB00F01F02400901239340024A3B
:1017080042F82030704700BF00E100E00138B0F136
:10171800807F0AD2064B5860064AF02182F82310CF
:101728000020986007221A6070470120704700BFA8
:1017380010E000E000ED00E0BFF35F8F044A536A59
:1017480023F480335362034B00225A60704700BF72
:1017580000ED00E090ED00E040F00100054B58601E
:10176800054A536A43F480335362BFF34F8FBFF384
:101778006F8F704790ED00E000ED00E04278134B6A
:101788009A60037823B9114B0022DA601A61704716
:1017980043680E4AD360017BC37A1B0643EA017390
:1017A800817A43EAC143417B43EA8143817B43EA2F
:1017B8004143C17B43EA0143417A43EA0123017A69
:1017C80043EA410301780B431361704790ED00E051
:1017D800F0B4876D446E856E6560C46E14B1046F95
:1017E800456F656004683C4E3C4DAC4218BFB4423E
:1017F80052D01835AC424FD01835AC424CD01835C1
:10180800AC4249D01835AC4246D01835AC4243D02A
:101818001835AC4240D005F55675AC423CD0183569
:10182800AC4239D01835AC4236D01835AC4233D03A
:101838001835AC4230D01835AC422DD01835AC42F2
:101848002AD01835AC4227D0254E264DAC4218BFB9
:10185800B44211D0244DAC420ED01435AC420BD05A
:101868001435AC4208D01435AC4205D01435AC421E
:1018780002D01435AC4223D1C46D04F01F050124F5
:10188800AC407C60046863608368402B1FD00368A9
:1018980099600368DA6013E0C46D04F01F053F2403
:1018A800AC40BC6005682C6824F480242C60046873
:1018B80063608368402B05D0036899600368DA6029
:1018C800F0BC704703689A600368D960F8E703685A
:1018D8009A600368D960F3E71000024028000240CC
:1018E800085402581C5402583054025802682849B7
:1018F800284B9A4218BF8A422FD018339A422CD0CC
:1019080018339A4229D018339A4226D018339A426B
:1019180023D018339A4220D018339A421DD003F5A9
:1019280056739A4219D018339A4216D018339A42ED
:1019380013D018339A4210D018339A420DD0183366
:101948009A420AD018339A4207D018339A4204D0E0
:1019580022F0FF028265806D704710B4D3B2103B4D
:101968000D49A1FB03131B0903F007010B4C615C34
:10197800C165032B06D80A4B13408365806D5DF85B
:10198800044B7047064B134004338365F6E700BFEA
:101998001000024028000240ABAAAAAA9CB700087F
:1019A80000FCFFFF83699BB9836A012B0AD01BB136
:1019B800022B01D000207047C36A13F0807F2ED11C
:1019C80000207047C36AB3F1C07F2AD00020704757
:1019D800B3F5005F06D0836A022B2AD9032B16D0F1
:1019E80000207047836A032B03D8DFE803F01C0448
:1019F8001C0A00207047C36A13F0807F15D10020AD
:101A08007047C36AB3F1C07F11D000207047C36A22
:101A180013F0807F01D0012070470020704701201B
:101A2800704701207047012070470120704701204E
:101A3800704701207047000003682249224A9342F8
:101A480018BF8B4228D01432934225D014329342C7
:101A580022D0143293421FD0143293421CD0143235
:101A6800934219D01432934216D0DAB2103A174979
:101A7800A1FB0212120916491944A8291FD9154BAE
:101A880013449B000366144B436602F01F020123B4
:101A980003FA02F282667047DBB2083B0F4AA2FBE8
:101AA80003231B090E4A1A44920002660D4A426635
:101AB80003F01F03012202FA03F38366704708321A
:101AC800DDE700BF085402581C540258ABAAAAAA62
:101AD800F0FBFDBF0082001080080240CDCCCCCCCA
:101AE800009600168058025801794A1E072A2CD8F9
:101AF80030B40368154D164CA34218BFAB4218D03A
:101B08001434A34215D01434A34212D01434A3427F
:101B18000FD01434A3420CD01434A34209D0143487
:101B2800A34206D00B4B0B449B00C3660A4B0367CA
:101B380005E00A4B0B449B00C366094B036701236E
:101B480003FA02F2426730BC7047704708540258E3
:101B58001C5402583F820010400902403F9600166C
:101B68004059025870B50446FEF792FD002C00F06B
:101B7800448105462368A249A24A934218BF8B4272
:101B88000CBF0122002250D030318B424DD0183189
:101B98008B424AD018318B4247D018318B4244D0FF
:101BA80018318B4241D018318B423ED001F5567125
:101BB8008B423AD018318B4237D018318B4234D00F
:101BC80018318B4231D018318B422ED018318B42CC
:101BD8002BD018318B4228D018318B4225D08A4916
:101BE8008A4A934218BF8B4200F0BF80884A9342CA
:101BF80000F0BB801432934200F0B7801432934255
:101C080000F0B3801432934200F0AF801432934254
:101C180000F0AB801432934200F0A7804023636544
:101C2800032384F8353001204AE0002184F8341079
:101C3800022184F835107ABB764A93422CD01832A8
:101C4800934229D01832934226D01832934223D097
:101C58001832934220D0183293421DD002F55672A2
:101C6800934219D01832934216D01832934213D0A7
:101C78001832934210D0183293420DD01832934242
:101C88000AD01832934207D01832934204D01A6807
:101C980022F001021A6003E01A6822F001021A60B9
:101CA80023681A6812F0010F0BD0FEF7F1FC401BF5
:101CB8000528F5D920236365032384F835300120EE
:101CC80070BD1A6854481040A168E2680A43216947
:101CD8000A4361690A43A1690A43E1690A43216A1F
:101CE8000A430243616A042934D01A602668756978
:101CF80025F00705636A1D43042B07D1A36A1D431A
:101D0800E36A1BB12046FFF74DFE40BB75612046D4
:101D1800FFF7ECFDE36D03F01F023F239340836060
:101D28002046FFF789FEA368802B59D0236E2279BD
:101D38001A60636EA26E5A606368013B072B52D922
:101D48000023E3662367636700206065012384F846
:101D58003530B5E7E16A206B01430A43C5E7402304
:101D68006365012084F83500AAE7002284F834204E
:101D7800022284F835201A6828491140A268402AAE
:101D880006D0802A01D0002203E04FF4804200E010
:101D98001022E06842EAD002206942EAD002606973
:101DA80042EAD002A06942EAD002E06942EAD002DF
:101DB800206A42EA10120A431A602268184B134438
:101DC800184AA2FB03231B099B00E3652046FFF783
:101DD8008DFDE36D03F01F020123934043609FE7ED
:101DE80000236360A2E72046FFF77EFEE36E002231
:101DF8001A60236F626F5A60A6E7012060E700BF90
:101E08001000024028000240085402581C5402588E
:101E180030540258400002403F8010FE0F00FEFF81
:101E2800F8ABFDA7CDCCCCCC002800F0F48070B581
:101E3800044690F83400012800F0EF80012084F86F
:101E4800340094F83500C0B2012807D0002384F884
:101E580034304FF400636365012070BD022084F8BC
:101E680035000020606520686D4E6E4DA84218BF91
:101E7800B0422FD01835A8422CD01835A84229D006
:101E88001835A84226D01835A84223D01835A842BC
:101E980020D01835A8421DD005F55675A84219D08E
:101EA8001835A84216D01835A84213D01835A842BC
:101EB80010D01835A8420DD01835A8420AD01835C8
:101EC800A84207D01835A84204D0056825F00105B6
:101ED800056003E0056825F0010505602046FFF769
:101EE80077FC23684E494F4A934218BF8B4238D03B
:101EF8001832934235D01832934232D01832934276
:101F08002FD0183293422CD01832934229D018324D
:101F1800934226D002F55672934222D01832934249
:101F28001FD0183293421CD01832934219D018325D
:101F3800934216D01832934213D01832934210D0DD
:101F4800183293420DD01A6822F00E0242F00A02AB
:101F58001A60236C93B12268136843F0040313607A
:101F68000CE01A6822F01E0242F016021A60236C76
:101F780023B12268136843F008031360236E1A68BC
:101F880012F4803F03D01A6842F480721A60E36E3C
:101F98001BB11A6842F480721A6023682049214AEA
:101FA800934218BF8B4230D0183293422DD018324A
:101FB80093422AD01832934227D01832934224D021
:101FC8001832934221D0183293421ED002F556722D
:101FD80093421AD01832934217D01832934214D031
:101FE8001832934211D0183293420ED018329342CD
:101FF8000BD01832934208D01832934205D01A6891
:1020080042F001021A60002027E71A6842F0010234
:102018001A60002021E70120704702201DE700BF59
:102028001000024028000240F0B583B004460023A7
:102038000193A24B1D68A24BA3FB0535AD0A876D22
:102048003E68D7F800C003689E499F48834218BF7E
:102058008B420CBF0120002061D09C4A93425ED085
:10206800183293425BD01832934258D018329342B8
:1020780055D01832934252D0183293424FD002F5BD
:10208800567293424BD01832934248D0183293423A
:1020980045D01832934242D0183293423FD018327A
:1020A80093423CD01832934239D01832934236D0FA
:1020B8008749884A934218BF8B4212D0864A934276
:1020C8000FD0143293420CD01432934209D01432F8
:1020D800934206D01432934203D01432934240F014
:1020E80062821A68E16D01F01F010420884010EA3D
:1020F8000C0F00F0A88212F0040F00F0A4827860A0
:1021080012F4004F00F05B8212F4803F40F05182DD
:10211800A36C002B00F047822046984743E2E26D0B
:1021280002F01F0108228A40324241D070BB674A40
:1021380093422BD01832934228D01832934225D09C
:102148001832934222D0183293421FD01832934249
:102158001CD002F55672934218D01832934215D00B
:102168001832934212D0183293420FD01832934249
:102178000CD01832934209D01832934206D0183244
:10218800934203D01A68C2F3C00202E01A68C2F38D
:1021980080026AB11A6822F004021A60E36D03F043
:1021A8001F0208239340BB60636D43F0010363651E
:1021B800E26D02F01F0226FA02F313F0010F37D086
:1021C8002368404840498B4218BF83422CD01831BD
:1021D8008B4229D018318B4226D018318B4223D01C
:1021E80018318B4220D018318B421DD018318B42C8
:1021F8001AD001F556718B4216D018318B4213D084
:1022080018318B4210D018318B420DD018318B42C7
:102218000AD018318B4207D018318B4204D01831BC
:102228008B4201D01B6803E05B6913F0800F3BD140
:10223800E36D03F01F03042202FA03F3334251D083
:102248002268204820498A4218BF824246D0183165
:102258008A4243D018318A4240D018318A423DD050
:1022680018318A423AD018318A4237D018318A4216
:1022780034D001F556718A4230D018318A422DD0B7
:1022880018318A422AD018318A4227D018318A4216
:1022980024D018318A4221D018318A421ED01831F0
:1022A8008A421BD013681DE0012303FA02F2BA60C8
:1022B800636D43F002036365BAE700BF14000020B2
:1022C800B5814E1B10000240280002404000024029
:1022D800085402581C54025830540258126812F01C
:1022E800020F3DD1E36D03F01F03102202FA03F33E
:1022F80033425FD022689B489B498A4218BF82427A
:1023080034D018318A4231D018318A422ED018314F
:102318008A422BD018318A4228D018318A4225D0D7
:1023280018318A4222D001F556718A421ED01831DE
:102338008A421BD018318A4218D018318A4215D0E7
:1023480018318A4212D018318A420FD018318A4285
:102358000CD018318A4209D01268C2F3800208E012
:10236800BB60636D43F004036365BBE71268C2F3A7
:10237800C002FAB1BB6023681A6812F4802F0DD02E
:102388001B6813F4002F04D1236C9BB12046984797
:1023980010E0A36C73B1204698470BE01A6812F45A
:1023A800807F03D11A6822F008021A60236C0BB1EF
:1023B80020469847E36D03F01F03202202FA03F337
:1023C800334200F08E802268664867498A4218BF07
:1023D80082422ED018318A422BD018318A4228D016
:1023E80018318A4225D018318A4222D018318A42BF
:1023F8001FD018318A421CD001F556718A4218D074
:1024080018318A4215D018318A4212D018318A42BE
:102418000FD018318A420CD018318A4209D01831AD
:102428008A4206D018318A4203D01268C2F34002A9
:1024380002E01268C2F30012002A52D0BB6094F87E
:102448003530DBB2042B0ED023681A6812F4802FC3
:1024580035D01B6813F4002F2CD1636C002B40D0AF
:10246800204698473DE02268136823F0160313605E
:102478002268536923F080035361236CB3B1226847
:10248800136823F008031360E36D03F01F023F2372
:102498009340BB60002384F83430012384F835303E
:1024A800236D002B7FD0204698477CE0A36C002B3F
:1024B800E5D1E9E7E36BA3B12046984711E01A6834
:1024C80012F4807F09D11A6822F010021A600023E2
:1024D80084F83430012384F83530E36B0BB120469F
:1024E8009847636D002B5ED0636D13F0010F56D0D3
:1024F800042384F8353023681A491B4A934218BFCD
:102508008B4233D01832934230D0183293422DD0B8
:10251800183293422AD01832934227D01832934265
:1025280024D01832934221D002F5567293421DD01E
:10253800183293421AD01832934217D01832934265
:1025480014D01832934211D0183293420ED0183258
:1025580093420BD01832934208D01A6822F0010235
:102568001A6007E010000240280002401A6822F0B2
:1025780001021A60019B01330193AB4204D823681E
:102588001B6813F0010FF5D1002384F83430236859
:102598001B6813F0010F08D0032384F83530E36C6F
:1025A8000BB12046984703B0F0BD012384F83530BD
:1025B800F5E7236C002BF6D020469847F3E712F096
:1025C800200F35D123686449644A934218BF8B426F
:1025D8002AD01832934227D01832934224D0183286
:1025E800934221D0183293421ED0183293421BD006
:1025F8001832934218D002F55672934214D018320A
:10260800934211D0183293420ED0183293420BD015
:102618001832934208D01832934205D018329342A8
:1026280002D01832934209D11A6822F008021A60BF
:10263800236C002BB7D020469847B4E71A6822F0DD
:1026480004021A60F4E70220884010EA0C0F60D0F8
:1026580012F0020F5DD0786012F4004F0ED012F421
:10266800803F05D1636C002B9DD0204698479AE7A0
:10267800E36B002B97D02046984794E712F0200F81
:102688003BD123683449354A934218BF8B422AD03C
:102698001832934227D01832934224D018329342EA
:1026A80021D0183293421ED0183293421BD01832D0
:1026B800934218D002F55672934214D018329342BE
:1026C80011D0183293420ED0183293420BD01832E0
:1026D800934208D01832934205D01832934202D060
:1026E8001832934210D11A6822F014021A6000239B
:1026F80084F83430012384F83530E36B002B3FF441
:1027080052AF204698474EE71A6822F00A021A602C
:10271800EDE7082000FA01F111EA0C0F3FF443AF8E
:1027280012F0080F3FF43FAF1A6822F00E021A6049
:10273800E36D03F01F03012202FA03F37B60626575
:10274800002384F8343084F83520E36C002B3FF400
:102758002AAF2046984726E710000240280002408A
:10276800406D7047F0B482B000233AE0092400E0DD
:102778000024B4403C4302356F4E46F825406F4C68
:102788002568D44304EA05064F6817F4803F01D052
:1027980042EA0506694D2E606E6804EA06054F6830
:1027A80017F4003F01D042EA0605644E75604FF009
:1027B800B0452D6804EA05064F6817F4801F01D05C
:1027C80042EA05064FF0B0452E606D682C404E6811
:1027D80016F4001F01D042EA05044FF0B0425460DD
:1027E80001330A6832FA03F400F0A28001249C4005
:1027F8002240F5D04D68122D18BF022D10D1DE08E9
:10280800083650F826C003F00705AF000F25BD4075
:102818002CEA050C0D69BD4045EA0C0540F8265028
:1028280006685F000325BD40ED4305EA060C4E68C7
:1028380006F00306BE4046EA0C0606604E6806F13E
:10284800FF3C112E18BFBCF1010F01D9122E11D176
:10285800866805EA060CCE68BE4046EA0C06866025
:10286800466826EA040C4E68C6F300149C4044EA05
:102878000C044460C46825408C68BC402C43C46088
:102888004C6814F0805FABD02D4CD4F8F45045F070
:102898000205C4F8F450D4F8F44004F0020401949A
:1028A800019C9D08AE1C244C54F8267003F00304C8
:1028B800A6000F24B44027EA0407224CA0423FF4A4
:1028C80057AF04F58064A04222D004F58064A0428A
:1028D80020D004F58064A0421ED004F58064A04294
:1028E8001CD004F58064A0421AD004F58064A0428C
:1028F80018D004F58064A04216D004F58064A04284
:1029080014D004F58064A0423FF430AF0A2430E7C5
:1029180001242EE702242CE703242AE7042428E7CD
:10292800052426E7062424E7072422E7082420E7CD
:1029380002B0F0BC704700BF000400588000005887
:1029480000440258000002580369194201D10020CE
:1029580070470120704712B909048161704781618D
:102968007047002845D0F0B58BB00646046890F84B
:10297800B932002B38D0032386F8B932E36B13F44D
:10298800807F01D100233361306806F00FFD3446A3
:1029980054F810CB6D460FCC0FC50FCC0FC594E87B
:1029A800030085E80300371D97E80E00604606F02F
:1029B800B7FC0121306806F0FFFC344654F810CB10
:1029C8006D460FCC0FC50FCC0FC594E8030085E802
:1029D800030097E80E00604606F050FD012386F8D4
:1029E800B93200200BB0F0BD80F8B83208F0C2FC54
:1029F800C1E70120704703689A6912F0020F01D0FD
:102A080000229A6203689A6912F0010F03D19A6949
:102A180042F001029A61704770B4039E05686868C5
:102A2800740D04F4806444F07F7444F4583444F41E
:102A38007F7444F0030420EA0400C1F3090141EA69
:102A48000241194331430143696070BC704770B556
:102A580004460D46164603689B6913F0100F1CD0F8
:102A680023689A6912F0200F19D1B5F1FF3FF7D00A
:102A7800FDF70EFE801BA84201D8002DF0D1636C33
:102A880043F020036364202384F84130002384F852
:102A9800423084F84030012020E000201EE010225F
:102AA800DA6123682025DD612046FFF7A4FF22684C
:102AB800536823F0FF7323F48B3323F4FF7323F05D
:102AC80001035360636C43F00403636484F841506A
:102AD800002384F8423084F84030012070BD70B57E
:102AE80004460D46164623689B6913F0020F1DD154
:102AF800324629462046FFF7AAFFC8B9B5F1FF3F7D
:102B0800F1D0FDF7C5FD801BA84201D8002DEAD100
:102B1800636C43F020036364202384F8413000236E
:102B280084F8423084F84030012000E0002070BD75
:102B38000120FCE7F8B505460F4616461C462B68EB
:102B48009B6937EA03030CBF01230023B34218D162
:102B5800B4F1FF3FF3D0FDF79BFD069BC01AA042DE
:102B680001D8002CEBD16B6C43F020036B6420235D
:102B780085F84130002385F8423085F8403001203F
:102B880000E00020F8BD70B505460C4616462B68D7
:102B98009B6913F0200F1AD1324621462846FFF7C9
:102BA80056FFB0B9FDF774FD801BA04201D8002C78
:102BB800EDD16B6C43F020036B64202385F8413022
:102BC800002385F8423085F84030012070BD002090
:102BD800FCE70120FAE70000002857D010B50446AA
:102BE80090F84130002B41D0242384F841302268EA
:102BF800136823F0010313606368226823F070638D
:102C080013612268936823F400439360E368012BFF
:102C180031D0A368226843F404439360E368022B2D
:102C28002FD0226851681A4B0B4353602268D3682F
:102C380023F40043D360236962691343A1692268BE
:102C480043EA0123D360E369216A22680B431360D6
:102C58002268136843F00103136000206064202396
:102C680084F84130206384F8420010BD80F8403079
:102C780007F0A8FBB8E7A368226843F40043936011
:102C8800CCE723684FF400625A60CAE70120704716
:102C9800008000022DE9F04383B090F84150EDB276
:102CA800202D40F0A48090F84040012C00F0A48032
:102CB800984617460E4604464FF0010980F84090A2
:102CC800FDF7E6FC0546009019234A464FF40041FB
:102CD8002046FFF72FFF002840F09080212384F83A
:102CE8004130102384F84230002363646762A4F8FB
:102CF8002A806363638D9BB2FF2B0AD9FF2222854A
:102D0800424B00934FF0807331462046FFF784FE14
:102D180018E0628D92B222853C4B00934FF000730D
:102D2800D2B231462046FFF777FE0BE0628D92B2B1
:102D38002285002300934FF00073D2B2314620461B
:102D4800FFF76AFE638D9BB2002B33D02A460A999F
:102D58002046FFF7C4FE002852D1626A2368127821
:102D68009A62636A01336362638D013B9BB2638538
:102D7800238D013B9BB22385628D92B2002AE1D05C
:102D8800002BDFD100950A9B002280212046FFF707
:102D9800D1FE002836D1638D9BB2FF2BC6D9FF2206
:102DA8002285002300934FF0807331462046FFF7B9
:102DB80033FEC7E72A460A992046FFF7E4FE034692
:102DC80010BB22682021D1612068426822F0FF727E
:102DD80022F48B3222F4FF7222F00102426084F85E
:102DE8004110002284F8422084F8402000E00223A9
:102DF800184603B0BDE8F0830223F9E70123F7E79B
:102E08000123F5E70123F3E70123F1E70020008020
:102E180090F84130DBB2202B24D190F84030012BC0
:102E280022D0012380F84030242380F84130026802
:102E3800136823F0010313600268136823F48053B6
:102E4800136002681368194311600268136843F03D
:102E580001031360202380F84130002380F84030BC
:102E680018467047022070470220704790F841309A
:102E7800DBB2202B22D190F84030012B20D0012347
:102E880080F84030242380F841300268136823F02A
:102E9800010313600268136823F4706343EA012195
:102EA80011600268136843F001031360202380F85F
:102EB8004130002380F840301846704702207047A0
:102EC80002207047124BDB6813F0040F07D1104B38
:102ED800DB6803F00703834201D00120704710B577
:102EE8000B4AD36823F007031843D060FDF7D0FBE3
:102EF8000446074B5B6813F4005F07D1FDF7C8FB76
:102F0800001BB0F57A7FF4D9032000E0002010BD43
:102F180000480258024AD36843F08073D360704770
:102F280000480258002800F0CB8238B504460368F0
:102F380013F0010F25D0A94A136903F03803926AE8
:102F4800102B15D0182B0FD06368B3F5803F3FD0F6
:102F5800002B53D1A14B1A6822F480321A601A68E8
:102F680022F480221A6038E002F00302022AEBD130
:102F78009A4B1B6813F4003F03D06368002B00F0E2
:102F8800A182236813F0020F00F08E80934A136920
:102F9800926A13F038035AD0182B55D0E368002BE7
:102FA80000F0C8808D490A6822F0190213430B60AB
:102FB800FDF76EFB0546894B1B6813F0040F40F0C4
:102FC800A180FDF765FB401B0228F4D903207EE2AF
:102FD800824A136843F48033136063682BB3FDF7A8
:102FE80057FB05467D4B1B6813F4003FC9D1FDF71D
:102FF8004FFB401B6428F5D9032068E2B3F5A02FE6
:1030080009D0764B1A6822F480321A601A6822F4C2
:1030180080221A60E1E7714B1A6842F480221A6034
:103028001A6842F480321A60D7E7FDF731FB05468B
:103038006A4B1B6813F4003FA3D0FDF729FB401B24
:103048006428F5D9032042E212F0030FA6D1634B9E
:103058001B6813F0040F03D0E368002B00F03482E0
:103068005E4A136823F01903E1680B431360FDF708
:103078000FFB0546594B1B6813F0040F06D1FDF7EB
:1030880007FB401B0228F5D9032020E2FDF71AFBB5
:1030980041F2030398422CD8504A536823F47C33F6
:1030A800216943EA01335360236813F0100F71D08C
:1030B8004A4A136903F03803926A082B52D0182B36
:1030C8004CD0E369002B00F0A380444A136843F016
:1030D80080031360FDF7DCFA0546404B1B6813F4C8
:1030E800807F7DD1FDF7D4FA401B0228F5D9032053
:1030F800EDE13A4A536823F0FE43216943EA01634C
:103108005360D1E7FDF7DEFA41F20303984208D88D
:10311800324A536823F47C33216943EA013353600C
:10312800C2E72E4A536823F0FE43216943EA01634C
:103138005360B9E7294A136823F001031360FDF7C8
:10314800A7FA0546254B1B6813F0040FACD0FDF712
:103158009FFA401B0228F5D90320B8E102F00302C8
:10316800012AAED11D4B1B6813F4807F04D0E3699C
:10317800802B01D00120AAE1FDF7A4FA41F2030354
:10318800984222D8154A536823F0F843216A43EA43
:1031980081635360236813F0080F61D06369002BC3
:1031A8004AD00E4A536F43F001035367FDF770FA94
:1031B80005460A4B5B6F13F0020F51D1FDF768FA11
:1031C800401B0228F5D9032081E1044AD36823F083
:1031D8007C53216A43EA0163D360DBE70044025869
:1031E800FDF770FA41F20303984208D8AE4A5368D3
:1031F80023F0F843216A43EA81635360CAE7AA4A85
:10320800D36823F07C53216A43EA0163D360C1E7A2
:10321800A54A136823F080031360FDF739FA0546C1
:10322800A14B1B6813F4807FB4D0FDF731FA401B23
:103238000228F5D903204AE19B4A536F23F0010382
:103248005367FDF725FA0546974B5B6F13F0020F9E
:1032580006D0FDF71DFA401B0228F5D9032036E1F8
:10326800236813F0200F29D0A3699BB18E4A1368F5
:1032780043F480531360FDF70BFA05468A4B1B682D
:1032880013F4005F1AD1FDF703FA401B0228F5D9A1
:1032980003201CE1844A136823F480531360FDF76C
:1032A800F7F90546804B1B6813F4005F06D0FDF75D
:1032B800EFF9401B0228F5D9032008E1236813F031
:1032C800040F21D1636A002B00F00081764A12694D
:1032D80002F03802182A00F0FB80022B75D0724ADF
:1032E800136823F080731360FDF7D2F904466E4B20
:1032F8001B6813F0007F00F0E180FDF7C9F9001B9F
:103308000228F4D90320E2E0684A136843F4807382
:103318001360FDF7BDF90546644B1B6813F4807F05
:1033280006D1FDF7B5F9401B6428F5D90320CEE096
:10333800A368012B0AD00BBB5B4B1A6F22F001026A
:103348001A671A6F22F004021A6704E0564A136FCC
:1033580043F001031367A36833B3FDF799F90546F2
:10336800514B1B6F13F0020FACD1FDF791F9401BC5
:1033780041F288339842F3D90320A8E0052B09D0FD
:10338800494B1A6F22F001021A671A6F22F00402E1
:103398001A67E0E7444B1A6F42F004021A671A6F83
:1033A80042F001021A67D6E7FDF772F905463E4B6F
:1033B8001B6F13F0020F85D0FDF76AF9401B41F22D
:1033C80088339842F3D9032081E0374A136823F001
:1033D80080731360FDF75CF90546334B1B6813F0E7
:1033E800007F06D0FDF754F9401B0228F5D90320C9
:1033F8006DE02D4B996A2E4A0A40A16AE06A41EABB
:1034080000110A439A62226B013AC2F30802616B07
:103418000139490289B20A43A16B0139090401F44F
:10342800FE010A43E16B0139090601F0FE410A4336
:103438001A63DA6A22F00102DA62596B1D4A0A40FD
:10344800A16C42EAC1025A63DA6A22F00C02216CCA
:103458000A43DA62DA6A22F00202616C0A43DA622B
:10346800DA6A42F48032DA62DA6A42F40032DA6204
:10347800DA6A42F48022DA62DA6A42F00102DA6237
:103488001A6842F080721A60FDF702F90446064B8A
:103498001B6813F0007F0FD1FDF7FAF8001B022814
:1034A800F5D9032013E000BF004402580048025831
:1034B8000CFCFFFF0700FFFF002008E0002006E0EB
:1034C80001207047012002E0012000E0002038BD03
:1034D8000120FCE7724B1B6903F03803102B00F046
:1034E800DB80182B10D00BB16E4870476C4B1B68F3
:1034F80013F0200F00F0D280694B1868C0F3C100A8
:10350800694B23FA00F07047654A916A01F003019C
:10351800906AC0F30510D36A03F00103526BC2F33B
:10352800CC0203FB02F307EE903AF8EE677A002824
:1035380000F0B580012966D0F9B1022900F08F802A
:1035480007EE100AF8EE476A9FED586A86EE267A6B
:10355800534B1B6BC3F3080306EE903AF8EE666A0A
:103568009FED536A67EE867A76EEA77AF7EE006AE1
:1035780077EEA67A27EE277A61E0494B1B6813F0AD
:10358800200F23D046490A68C2F3C102464BD340F4
:1035980007EE103AF8EE476A07EE100AB8EE476AE7
:1035A80086EE867A0B6BC3F3080306EE903AF8EEC4
:1035B800666A9FED3F6A67EE867A76EEA77AF7EE3F
:1035C800006A77EEA67A27EE277A38E007EE100A27
:1035D800F8EE476A9FED376A86EE267A304B1B6B0A
:1035E800C3F3080306EE903AF8EE666A9FED306A78
:1035F80067EE867A76EEA77AF7EE006A77EEA67A15
:1036080027EE277A1BE007EE100AF8EE476A9FEDCF
:10361800276A86EE267A224B1B6BC3F3080306EE55
:10362800903AF8EE666A9FED226A67EE867A76EE41
:10363800A77AF7EE006A77EEA67A27EE277A184B74
:103648001B6BC3F34623013307EE903AF8EE677A13
:10365800C7EE276AFCEEE67A17EE900A704707EE87
:10366800100AF8EE476A9FED146A86EE267A0C4B2C
:103678001B6BC3F3080306EE903AF8EE666A9FEDFB
:103688000C6A67EE867A76EEA77AF7EE006A77EE2E
:10369800A67A27EE277AD2E708487047024870478B
:1036A8000044025800093D000090D0030024744AE9
:1036B800000000390024744C20BCBE4B40787D01CA
:1036C800002800F02C810346974A126802F00F0286
:1036D8008A420CD29448026822F00F020A43026020
:1036E800026802F00F028A4201D00120704770B5CB
:1036F8001A6812F0040F0CD018698C4A926902F00B
:103708007002904205D9894CA26922F070021043D8
:10371800A0611A6812F0080F0CD05869834AD26960
:1037280002F07002904205D9804CE26922F07002E2
:103738001043E0611A6812F0100F0CD098697B4AA8
:10374800D26902F4E062904205D9784CE26922F429
:10375800E0621043E0611A6812F0200F0CD0D869BB
:10376800724A126A02F07002904205D96F4C226ABE
:1037780022F07002104320621A6812F0020F0CD077
:10378800D8686A4A926902F00F02904205D9674CDC
:10379800A26922F00F021043A0611C460D461B6867
:1037A80013F0010F41D0614A936923F47063A16853
:1037B8000B4393616368022B0AD0032B27D0012B9C
:1037C8002CD05A4A126812F0040F06D10120A5E045
:1037D800126812F4003F00F0A48054490A6922F0EC
:1037E800070213430B61FCF753FF06464F4B1B6957
:1037F80003F038036268B3EBC20F16D0FCF748FF3A
:10380800801B41F288339842F0D9032086E0474A6A
:10381800126812F0007FE0D101207FE0434A12686D
:1038280012F4807FD9D1012078E0236813F0020FC9
:103838000CD0E2683D4B9B6903F00F039A4205D216
:103848003A498B6923F00F031A438A61364B1B6888
:1038580003F00F03AB420CD9334A136823F00F036C
:103868002B431360136803F00F03AB4201D0012010
:1038780054E0236813F0040F0CD022692B4B9B698A
:1038880003F070039A4205D228498B6923F070032C
:103898001A438A61236813F0080F0CD06269234B1E
:1038A800DB6903F070039A4205D22049CB6923F003
:1038B80070031A43CA61236813F0100F0CD0A26971
:1038C8001A4BDB6903F4E0639A4205D21749CB69C6
:1038D80023F4E0631A43CA61236813F0200F0CD065
:1038E800E269124B1B6A03F070039A4205D20F4932
:1038F8000B6A23F070031A430A62FFF7EBFD0B4BC8
:103908009B69C3F303230A4AD35C03F01F03D8401F
:10391800084B1860084B1868FCF75AFE70BD012068
:1039280070470120FAE700BF002000520044025807
:10393800C8B70008140000200400002008B501F0F2
:103948006DFA064B9B6903F00F03054AD35C03F03D
:103958001F03D840034B186008BD00BF004402583D
:10396800C8B700081800002008B5FFF7E7FF054BA7
:10397800DB69C3F30213044AD35C03F01F03D84086
:1039880008BD00BF00440258C8B7000808B5FFF7D3
:10399800D5FF054BDB69C3F30223044AD35C03F06C
:1039A8001F03D84008BD00BF00440258C8B700082C
:1039B800404B9B6A03F00303032B79D070B50E4686
:1039C80004463C4A136823F080631360FCF760FEEA
:1039D8000546384B1B6813F0006F06D0FCF758FEFD
:1039E800401B0228F5D9032070BD324B9A6A22F495
:1039F8007C32216842EA01329A626268013AC2F373
:103A08000802A1680139490289B20A43E16801390B
:103A1800090401F4FE010A4321690139090601F08C
:103A2800FE410A439A63DA6A22F0C00261690A43D6
:103A3800DA62DA6A22F02002A1690A43DA62DA6AF3
:103A480022F01002DA62D96B1B4A0A40E16942EAA5
:103A5800C102DA63DA6A42F01002DA62C6B91A46BB
:103A6800DB6A43F40023D362124A136843F080638D
:103A78001360FCF70DFE04460E4B1B6813F0006F35
:103A880014D1FCF705FE001B0228F5D90320ABE78B
:103A9800012E05D0074AD36A43F40013D362E3E743
:103AA800044AD36A43F48013D362DDE700209BE71E
:103AB80001207047004402580700FFFF404B9B6AF3
:103AC80003F00303032B79D070B50E4604463C4A35
:103AD800136823F080531360FCF7DAFD0546384B72
:103AE8001B6813F0005F06D0FCF7D2FD401B0228CC
:103AF800F5D9032070BD324B9A6A22F07C72216896
:103B080042EA01529A626268013AC2F30802A16865
:103B18000139490289B20A43E1680139090401F40B
:103B2800FE010A4321690139090601F0FE410A43F1
:103B38001A64DA6A22F4406261690A43DA62DA6A6C
:103B480022F40072A1690A43DA62DA6A22F4807206
:103B5800DA62596C1B4A0A40E16942EAC1025A64B6
:103B6800DA6A42F48072DA62C6B91A46DB6A43F44A
:103B78008003D362124A136843F080531360FCF742
:103B880087FD04460E4B1B6813F0005F14D1FCF749
:103B98007FFD001B0228F5D90320ABE7012E05D0D5
:103BA800074AD36A43F08073D362E3E7044AD36ACF
:103BB80043F40003D362DDE700209BE70120704750
:103BC800004402580700FFFFF8B50446036813F0E5
:103BD800006F2BD0436EB3F5801F18D007D9B3F50B
:103BE800001F1DD0B3F5401F2ED1002506E05BBB9A
:103BF800934AD36A43F40033D3620025904A136D85
:103C080023F44013616E0B431365002610E0022174
:103C18000430FFF7CDFE0546002DEFD02E4607E015
:103C280002212430FFF74AFF0546F5E7002635460E
:103C3800236813F4807F17D0636D042B32D8DFE834
:103C480003F006242A0B0B0001263546F0E77C4AD0
:103C5800D36A43F40033D3623DBB794A136D23F032
:103C68000703616D0B431365236813F4007F33D09A
:103C7800A36D802B44D01AD80BB3402B1CD1002144
:103C8800201DFFF795FE05461EE00021201DFFF7C9
:103C98008FFE0546E0E7002104F12400FFF70EFF40
:103CA8000546D9E701263546DEE72E46DCE7C02B78
:103CB8000AD0B3F5807F07D0012635460CE0604A6C
:103CC800D36A43F40033D3620DBB5D4A136D23F40A
:103CD800E073A16D0B431365236813F4806F2FD035
:103CE800D4F8A430B3F5800F3ED012D8D3B1B3F5D1
:103CF800001F14D10021201DFFF75AFE054616E0CB
:103D0800002104F12400FFF7D9FE0546DCE72E4622
:103D1800E2E7B3F5C00F0AD0B3F5000F07D00126CC
:103D280035460DE0464AD36A43F40033D36215BBE7
:103D3800434A936D23F46003D4F8A4100B439365AE
:103D4800236813F4006F2FD0D4F8A830B3F1007FA4
:103D580037D012D8D3B1B3F1807F14D10021201D00
:103D6800FFF726FE054616E0002104F12400FFF7C0
:103D7800A5FE0546DBE72E46E2E7B3F1407F0AD011
:103D8800B3F1806F07D0012635460DE02C4AD36A7F
:103D980043F40033D362DDB9294A936D23F0E0631D
:103DA800D4F8A8100B439365236813F0007F2AD03A
:103DB800A36C102B12D00DD9202B1DD0302B12D074
:103DC80009E0002104F12400FFF778FE0546E2E748
:103DD8002E46E9E73BB10126354614E0184AD36A76
:103DE80043F40033D3626DB9154AD36C23F0300322
:103DF800A16C0B43D36406E00221201DFFF7D8FD18
:103E08000546F0E72E46236813F4805F27D0E36D5C
:103E1800B3F5005F3ED009D8A3B1B3F5805F0BD1ED
:103E28000021201DFFF7C4FD054610E0B3F5405FF3
:103E38000DD0B3F5804F0AD0012635460FE000BFFC
:103E480000440258934AD36A43F40033D36245BB13
:103E5800904A136D23F4E043E16D0B431365236827
:103E680013F4005F33D0236EB3F5003F27D01AD880
:103E78003BB1B3F5803F1FD10121201DFFF798FD0D
:103E880005461DBB834A136D23F4E023216E0B43C3
:103E980013651CE0002104F12400FFF70FFE05461E
:103EA800D5E72E46DBE7B3F5802FEAD0B3F5A02F90
:103EB800E7D0B3F5403FE4D00126354607E00121BD
:103EC80004F12400FFF7FAFD0546DAE72E462368D9
:103ED80013F4804F2CD0D4F8AC30B3F1005F1FD06E
:103EE80012D83BB1B3F1805F17D10121201DFFF734
:103EF8005FFD0546DDB9674A936D23F0E043D4F8CA
:103F0800AC100B43936513E0B3F1804FF2D0B3F1DB
:103F1800A04FEFD0B3F1405FECD00126354607E063
:103F2800012104F12400FFF7C9FD0546E2E72E460A
:103F3800236813F4004F1FD0E36EB3F1805F06D0FF
:103F4800B3F1005F11D03BB10126354614E0514A68
:103F5800D36A43F40033D3626DB94E4A136D23F02C
:103F68004053E16E0B43136506E00121201DFFF766
:103F78001FFD0546F0E72E46236813F0807F1ED00C
:103F8800636C032B17D8DFE803F007021007414AD8
:103F9800D36A43F40033D36285B93E4AD36C23F025
:103FA8000303616C0B43D36409E00221201DFFF772
:103FB800FFFC0546F0E70126354600E02E4623685B
:103FC80013F4800F1FD1236813F0010F00F09E80B7
:103FD800A36F282B00F29680DFE803F08494949472
:103FE800949494947F949494949494948D949494A5
:103FF8009494949484949494949494948494949499
:10400800949494948400244A136843F4807313604E
:10401800FCF73EFB0746204B1B6813F4807F05D155
:10402800FCF736FBC01B6428F5D90325002D50D1B9
:10403800184B1B6FD4F8B020534013F4407F0CD0BA
:10404800144B1A6F22F44072196F41F480311967CA
:10405800196F21F4803119671A67D4F8B030B3F5B5
:10406800807F1BD0002D36D1D4F8B03003F44072D5
:10407800B2F5407F23D0074A136923F47C531361B8
:1040880004490B6FD4F8B020C2F30B0213430B673B
:1040980099E700BF0044025800480258FCF7F8FAB4
:1040A8000746AA4B1B6F13F0020FDBD1FCF7F0FA9F
:1040B800C01B41F288339842F3D90325D2E7A348BD
:1040C800026922F47C52A24901EA131313430361E3
:1040D800D6E72E4677E72E4675E70121201DFFF724
:1040E80067FC05468DB9994A536D23F03803A16FD3
:1040F8000B4353650AE0012104F12400FFF7DEFCBD
:104108000546EFE70126354600E02E46236813F002
:10411800020F20D0636F052B19D8DFE803F00803DE
:10412800110808080121201DFFF742FC05468DB93A
:10413800864A536D23F00703616F0B4353650AE00A
:10414800012104F12400FFF7B9FC0546EFE7012639
:10415800354600E02E46236813F0040F22D0D4F829
:104168009030052B1AD8DFE803F008031208080876
:104178000121201DFFF71CFC054695B9734A936D74
:1041880023F00703D4F890100B4393650AE001214C
:1041980004F12400FFF792FC0546EEE701263546B8
:1041A80000E02E46236813F0200F2CD0D4F88C3072
:1041B800B3F1005F1FD012D83BB1B3F1805F17D1C4
:1041C8000021201DFFF7F4FB0546DDB95F4A536D5A
:1041D80023F0E043D4F88C100B43536513E0B3F19C
:1041E800804FF2D0B3F1A04FEFD0B3F1405FECD0E5
:1041F8000126354607E0022104F12400FFF75EFCA2
:104208000546E2E72E46236813F0400F2CD0D4F879
:104218009830B3F5006F1FD012D83BB1B3F5806F5B
:1042280017D10021201DFFF7C3FB0546DDB9474A1A
:10423800936D23F4E053D4F898100B43936513E07F
:10424800B3F5805FF2D0B3F5A05FEFD0B3F5406F60
:10425800ECD00126354607E0022104F12400FFF7DF
:104268002DFC0546E2E72E46236813F0800F2CD07C
:10427800D4F89C30B3F5804F1FD012D83BB1B3F5BA
:10428800005F17D10021201DFFF792FB0546DDB91D
:104298002E4A936D23F46043D4F89C100B43936526
:1042A80013E0B3F5004FF2D0B3F5204FEFD0B3F5DC
:1042B800C04FECD00126354607E0022104F1240066
:1042C800FFF7FCFB0546E2E72E46236813F0080FCC
:1042D8000AD0D4F88030B3F5805F24D01B494A6DEA
:1042E80022F4405213434B65236813F0100F0AD091
:1042F800D4F89430B3F5807F1ED014498A6D22F427
:10430800407213438B65236813F4002F39D0D4F817
:10431800A030B3F5803F2CD0B3F5003F1FD0CBB110
:10432800012635462DE0022104F12400FFF7C6FBE3
:104338000028D9D00126D7E7022104F12400FFF78D
:10434800BDFB0028DFD00126DDE700BF004402588E
:10435800CFFFFF000021201DFFF72AFB05467DB98E
:10436800644A936D23F44033D4F8A0100B4393654B
:1043780007E0022104F12400FFF7A0FB0546EEE761
:104388002E46236813F4802F24D0D4F88430B3F554
:10439800001F17D0B3F5401F0AD0B3F5801F02D015
:1043A8000126354616E0534AD36A43F40033D362F4
:1043B8007DB9504A536D23F44013D4F884100B434D
:1043C800536507E0012104F12400FFF777FB054658
:1043D800EEE72E46236813F4803F14D0E36C2BB12C
:1043E800B3F5803F23D0012635460CE0414AD36A15
:1043F80043F40033D36205BB3E4AD36C23F48033C5
:10440800E16C0B43D364236813F0005F17D1236872
:1044180013F4003F2DD0E36FB3F5807F1BD017D97D
:10442800B3F5007F1CD0B3F5407F12D118E002210C
:10443800201DFFF7BDFA0546DDE72E46E3E702211A
:1044480004F12400FFF73AFB0028E0D00126DEE75C
:1044580033B101260DE0274AD36A43F40033D3620F
:10446800002D3DD1234A536D23F44073E16F0B4374
:104478005365236813F4801F06D01E4A136D23F07A
:104488000043216F0B431365236813F0805F07D047
:10449800184A136923F48043D4F8B4100B4313610A
:1044A800236813F4001F06D0124A136D23F080739B
:1044B800A16E0B431365236813F0804F09D00D4B91
:1044C8001A6922F400421A611A69D4F8B8100A432A
:1044D8001A612368002B05DB06B101263046F8BDBA
:1044E8002E46C6E7034AD36C23F04053216D0B4395
:1044F800D364F1E70044025808B5FFF71FFA054BEB
:104508001B6AC3F30213044AD35C03F01F03D840A9
:1045180008BD00BF00440258C8B7000810B4784965
:104528008C6A8A6AC2F30532CB6A03F01003C96B3E
:10453800C1F3CC0103FB01F3002A00F0DB8004F097
:10454800030407EE903AF8EE677A012C66D0FCB1C6
:10455800022C00F0B28007EE102AB8EE477A9FEDE1
:10456800696AC6EE076A664B9B6BC3F3080307EEDE
:10457800103AB8EE477A9FED646A67EE867A77EE6E
:10458800277AB7EE007A77EE877A66EEA76A61E057
:104598005B4B1B6813F0200F23D0594C2168C1F3E3
:1045A800C1015A4BCB4007EE103AB8EE477A06EEF7
:1045B800902AB8EE666AC7EE066AA36BC3F30803CF
:1045C80007EE103AB8EE477A9FED4F6A67EE867AA3
:1045D80077EE277AB7EE007A77EE877A66EEA76AE3
:1045E80038E007EE102AB8EE477A9FED496AC6EE22
:1045F800076A434B9B6BC3F3080307EE103AB8EE08
:10460800477A9FED416A67EE867A77EE277AB7EEAA
:10461800007A77EE877A66EEA76A1BE007EE102A23
:10462800B8EE477A9FED376AC6EE076A344B9B6B44
:10463800C3F3080307EE103AB8EE477A9FED326AE3
:1046480067EE867A77EE277AB7EE007A77EE877A82
:1046580066EEA76A2A4A936BC3F3462307EE103A1D
:10466800B8EE477AB7EE006A37EE067AC6EE877A72
:10467800FCEEE77AC0ED007A936BC3F3064307EECE
:10468800103AB8EE477A37EE067AC6EE877AFCEE2D
:10469800E77AC0ED017A936BC3F3066307EE903AAD
:1046A800F8EE677A77EE867A86EEA77ABCEEC77A56
:1046B80080ED027A5DF8044B704707EE102AB8EED9
:1046C800477A9FED146AC6EE076A0D4B9B6BC3F3DE
:1046D800080307EE103AB8EE477A9FED0B6A67EECB
:1046E800867A77EE277AB7EE007A77EE877A66EEE3
:1046F800A76AAFE70023036043608360DAE700BF7F
:10470800004402580024744A000000390090D00385
:104718000024744C20BCBE4B10B478498C6A8A6A59
:10472800C2F30552CB6A03F48073496CC1F3CC0120
:1047380003FB01F3002A00F0DB8004F0030407EE1A
:10474800903AF8EE677A012C66D0FCB1022C00F0A2
:10475800B28007EE102AB8EE477A9FED696AC6EE76
:10476800076A664B1B6CC3F3080307EE103AB8EEF2
:10477800477A9FED646A67EE867A77EE277AB7EE16
:10478800007A77EE877A66EEA76A61E05B4B1B6872
:1047980013F0200F23D0594C2168C1F3C1015A4BA3
:1047A800CB4007EE103AB8EE477A06EE902AB8EEFC
:1047B800666AC7EE066A236CC3F3080307EE103A6D
:1047C800B8EE477A9FED4F6A67EE867A77EE277ADA
:1047D800B7EE007A77EE877A66EEA76A38E007EEDA
:1047E800102AB8EE477A9FED496AC6EE076A434B2E
:1047F8001B6CC3F3080307EE103AB8EE477A9FED37
:10480800416A67EE867A77EE277AB7EE007A77EE16
:10481800877A66EEA76A1BE007EE102AB8EE477A99
:104828009FED376AC6EE076A344B1B6CC3F3080367
:1048380007EE103AB8EE477A9FED326A67EE867A4D
:1048480077EE277AB7EE007A77EE877A66EEA76A70
:104858002A4A136CC3F3462307EE103AB8EE477A98
:10486800B7EE006A37EE067AC6EE877AFCEEE77A8C
:10487800C0ED007A136CC3F3064307EE103AB8EEA6
:10488800477A37EE067AC6EE877AFCEEE77AC0ED0D
:10489800017A136CC3F3066307EE903AF8EE677A71
:1048A80077EE867A86EEA77ABCEEC77A80ED027A32
:1048B8005DF8044B704707EE102AB8EE477A9FED73
:1048C800146AC6EE076A0D4B1B6CC3F3080307EEA8
:1048D800103AB8EE477A9FED0B6A67EE867A77EE64
:1048E800277AB7EE007A77EE877A66EEA76AAFE79F
:1048F8000023036043608360DAE700BF0044025886
:104908000024744A000000390090D0030024744C3D
:1049180020BCBE4B10B478498C6A8A6AC2F305126F
:10492800CB6A03F00103496BC1F3CC0103FB01F32C
:10493800002A00F0DB8004F0030407EE903AF8EE5A
:10494800677A012C66D0FCB1022C00F0B28007EE29
:10495800102AB8EE477A9FED696AC6EE076A664B79
:104968001B6BC3F3080307EE103AB8EE477A9FEDC6
:10497800646A67EE867A77EE277AB7EE007A77EE82
:10498800877A66EEA76A61E05B4B1B6813F0200F1D
:1049980023D0594C2168C1F3C1015A4BCB4007EED3
:1049A800103AB8EE477A06EE902AB8EE666AC7EE75
:1049B800066A236BC3F3080307EE103AB8EE477A8A
:1049C8009FED4F6A67EE867A77EE277AB7EE007A20
:1049D80077EE877A66EEA76A38E007EE102AB8EE17
:1049E800477A9FED496AC6EE076A434B1B6BC3F3D0
:1049F800080307EE103AB8EE477A9FED416A67EE72
:104A0800867A77EE277AB7EE007A77EE877A66EEBF
:104A1800A76A1BE007EE102AB8EE477A9FED376ABF
:104A2800C6EE076A344B1B6BC3F3080307EE103A54
:104A3800B8EE477A9FED326A67EE867A77EE277A84
:104A4800B7EE007A77EE877A66EEA76A2A4A136B82
:104A5800C3F3462307EE103AB8EE477AB7EE006A7A
:104A680037EE067AC6EE877AFCEEE77AC0ED007A72
:104A7800136BC3F3064307EE103AB8EE477A37EEE6
:104A8800067AC6EE877AFCEEE77AC0ED017A136BF8
:104A9800C3F3066307EE903AF8EE677A77EE867A04
:104AA80086EEA77ABCEEC77A80ED027A5DF8044BF1
:104AB800704707EE102AB8EE477A9FED146AC6EEE3
:104AC800076A0D4B1B6BC3F3080307EE103AB8EEE9
:104AD800477A9FED0B6A67EE867A77EE277AB7EE0C
:104AE800007A77EE877A66EEA76AAFE7002303605D
:104AF80043608360DAE700BF004402580024744A28
:104B0800000000390090D0030024744C20BCBE4B38
:104B180000B58BB0B0F5807F17D0B0F5007F44D0DA
:104B2800B0F5806F74D0B0F5006F00F0A780B0F5D5
:104B3800805F00F0D980B0F5002F00F00781B0F554
:104B4800803F00F0298100200CE0A34B1B6D03F08F
:104B58000703042B00F23281DFE803F0070C11038E
:104B680016009E480BB05DF804FB07A8FFF7D2FEBD
:104B78000898F7E704A8FFF7D1FC0498F2E701A822
:104B8800FFF7CAFD0198EDE7934BDB6C13F0405338
:104B980000F01681B3F1805F00F01481B3F1005F7B
:104BA80001D00020DEE78E48DCE78B4B1B6D03F459
:104BB800E073802B25D008D8F3B1402B40F0048156
:104BC80004A8FFF7ABFC0498CCE7C02B12D0B3F5D0
:104BD800807F40F0F980804BDB6C13F0405300F08D
:104BE800F580B3F1805F00F0F380B3F1005F0DD082
:104BF8000020B7E77948B5E707A8FFF78BFE0898C4
:104C0800B0E701A8FFF788FD0198ABE77448A9E76A
:104C1800714B9B6D03F46003B3F5800F27D009D85F
:104C280003B3B3F5001F40F0D58004A8FFF776FC66
:104C3800049897E7B3F5C00F12D0B3F5000F40F012
:104C4800C980654BDB6C13F0405300F0CF80B3F1A3
:104C5800805F00F0CD80B3F1005F0DD0002081E7C8
:104C68005E487FE707A8FFF755FE08987AE701A88E
:104C7800FFF752FD019875E7594873E7564B9B6D4E
:104C880003F0E063B3F1007F27D009D803B3B3F191
:104C9800807F40F0AF8004A8FFF740FC049861E7EC
:104CA800B3F1407F12D0B3F1806F40F0A3804A4B3C
:104CB800DB6C13F0405300F09F80B3F1805F00F08D
:104CC8009D80B3F1005F0DD000204BE7434849E7D2
:104CD80007A8FFF71FFE089844E701A8FFF71CFD87
:104CE80001983FE73E483DE73B4B1B6D03F4E0432B
:104CF800B3F5005F23D008D8E3B1B3F5805F7FD167
:104D080004A8FFF70BFC04982CE7B3F5405F0FD01D
:104D1800B3F5804F74D1304BDB6C13F0405371D036
:104D2800B3F1805F70D0B3F1005F0DD0002019E7B8
:104D38002A4817E707A8FFF7EDFD089812E701A82A
:104D4800FFF7EAFC01980DE725480BE7224B9B6D1E
:104D580003F44033B3F5803F0AD0B3F5003F0CD0DD
:104D68000BB10020FEE604A8FFF7D8FB0498F9E68B
:104D780001A8FFF7D1FC0398F4E6174BDB6C13F09E
:104D8800405343D0B3F1805F42D0B3F1005F01D00C
:104D98000020E7E61248E5E60F4BDB6C13F480339E
:104DA80002D033B90020DDE607A8FFF7B3FD089865
:104DB800D8E604A8FFF7B2FB0698D3E60020D1E6B0
:104DC8000848CFE60848CDE60020CBE60548C9E606
:104DD8000548C7E60020C5E6004402580080BB002D
:104DE80040787D010090D00300093D000948B9E6EC
:104DF8000948B7E60020B5E60648B3E60648B1E636
:104E08000020AFE60348ADE60348ABE60148A9E653
:104E18000148A7E60090D00300093D0008B5FEF759
:104E280059FB064B9B69C3F30323054AD35C03F084
:104E38001F03D840034B186008BD00BF0044025848
:104E4800C8B7000814000020D0B110B50446437A52
:104E580093B1022363722268136823F02003616808
:104E68000B4313602268136843F0040313600123A3
:104E780063720020E06010BD037205F0D3FCE8E720
:104E880001207047037A012B2BD070B50D460446DC
:104E980001230372437ADBB2012B03D001200023E4
:104EA800237270BD02234372FBF7F2FB06462368A8
:104EB8005A6812F0010F0DD1FBF7EAFB801B02289C
:104EC800F5D901206072E36843F00203E360002330
:104ED8002372E6E79B6823612B600123637200203D
:104EE800DDE70220704770B4044600206064E06487
:104EF8006568022D14BF00200120002D08BF012085
:104F0800B0B1002020654FF48030E0654FF6FF70A7
:104F180060670020A066236713F0010F4CD151B1E0
:104F2800022913D84FF4003020660020606607E09D
:104F380001202065E7E7002020664FF4802565669C
:104F4800032A34D8DFE802F004161F290120F7E706
:104F58008025A5645B085D0165651B01A365402389
:104F6800E366022929D1012A23D0022A25D1082360
:104F7800A36622E08025A5645B089E0166655B0147
:104F8800A365E566EDE7C025A5645B089D01656539
:104F98005B01A3658023E366E3E7E025A5645B087E
:104FA8009D0165655B01A3658023E366D9E7012060
:104FB800D7E71023A366D8E7012070BC704730B448
:104FC80000244464C4644568022D14BF00240124ED
:104FD800002D08BF0124DCB1012404650024C46548
:104FE8004FF4003505664FF48025456684660367EF
:104FF8004FF6FF74446703290DD004290FD101210E
:1050080081650021032A29D8DFE802F00B141A2150
:1050180000240465E2E70D2181650021F2E7012102
:10502800F0E7802282641B0143654023C36608467B
:1050380030BC7047802282645B014365C266F6E734
:10504800C02282645B0143658023C366EFE7E022E8
:1050580082645B0143658023C366E8E70121E6E7D4
:1050680001290AD00123426C082A08D04268023A72
:10507800012A0CD943F0040070470923F3E742687A
:10508800012A18BF032AF1D143F01003EEE743F0D9
:10509800600070470E4B1B680E4AA2FB03231B0BD4
:1050A8009B0001680A6822F480320A603BB1013B28
:1050B8000268126812F4803FF8D100207047D0F8D7
:1050C800943043F04003C0F894300320704700BF89
:1050D800140000201BECCB952DE9F041002800F0CE
:1050E800C0810446FBF7EEFA94F83830012B18D04B
:1050F8002368B249B24A934218BF8B4223D001F5C4
:10510800806102F58062934218BF8B4238D001F566
:10511800806102F58062934218BF8B4232D1A94E5A
:1051280012E02368A549A84A8B4218BF934240F071
:105138009C816368012B01D0012593E1636C002BEE
:10514800D6D001258EE1A14E94F89130E3B12046E6
:10515800FFF7A0FF0546002840F08981022384F864
:105168009130E368012B17D0022B13D00022A368DB
:10517800013B042B12D8DFE803F02513161B20008F
:10518800934EE1E7934EDFE784F89030204605F030
:105198009DFBDCE72022EAE71022E8E7002713E07E
:1051A8004FF4006710E042F001024FF400670BE093
:1051B80042F002024FF4006706E042F003024FF4A7
:1051C800006701E04FF480673260236A002B43D008
:1051D80023687A497A4A934218BF8B4200F0C58007
:1051E800002023687C497D4A934218BF8B4200F017
:1051F800C18023687A497B4A934218BF8B4200F0EA
:10520800BE802268704B9A4200F0BE802268764BBE
:105218009A4200F0BE80A369B3F5002F00F0BE806B
:10522800A36AB3F1806F00F0C380012300EB800014
:105238004100226A03FB02F31B02B1FBF3F16B4B43
:10524800A3FB0123DB08636203EB830042008A1A95
:10525800082A01D9013363626268022A14BF002355
:105268000123002A08BF0123002B00F0C780236D0B
:10527800012B00F09F804FF40078FBF723FAB0F57C
:10528800005FC0F0C48022681168594B0B4013605E
:1052980021680A686368606C0343A06C0343E06C90
:1052A800034343EA08033B43E06A0343606903435B
:1052B800A0690343606A43EA0053A06A0343206974
:1052C800034313430B60226851684A4B0B405360F9
:1052D80021684A68E369206B0343606B0343134307
:1052E8004B6022689168444B0B4093602068826849
:1052F800636D013B616E0B43E16D0B43216E0B4304
:10530800A16D013943EA0123134383602268D368FE
:1053180023F47D6323F00F031B041B0CD360206868
:10532800C268A36EE16E0B43616F43EA0143216FCC
:10533800013943EA01231343C36023681F49224A02
:10534800934218BF8B4207D1736C23F00103736437
:1053580094F83830012B79D00023C4F89430012216
:1053680084F8912084F890307CE04FF48070FFF747
:10537800CFFB36E74FF40070FFF7CAFB39E74FF46D
:105388000070FFF7C5FB3CE74FF48060FFF7C0FBF8
:105398003CE74FF40060FFF7BBFB3CE700EB800005
:1053A8004100226A636D03FB02F3B1FBF3F146E7A8
:1053B80002233BE74FF000085FE700BF04580140B5
:1053C800245801400060014004540058005801402E
:1053D800005C014000540058045C0140245C01401A
:1053E800046001402460014024540058CDCCCCCC4A
:1053F80010C005F0F01FFFFF0080F8FF236D012BA0
:1054080002D04FF0000838E74FF4007835E72268FB
:105418001168184B0B40136021680A686368606C58
:105428000343A06C0343E06C034343EA08033B4394
:10543800E76A3B4367693B43A0690343606A43EA01
:105448000053A06A034313430B603CE7236CE26BF1
:10545800013A43EA02137364736C43F00103736403
:105468007AE701252846BDE8F0810125FAE70125FC
:10547800F8E700BF10C005F810B50446042911D894
:10548800DFE801F00303030808002046FFF72BFDBF
:1054980020B110BD2046FFF792FDF9E72046FFF73F
:1054A8001BFEF6E70120F4E7F8B504460E4615465C
:1054B800FBF7EEF8B5FA85F35B09002E08BF012368
:1054C800002B65D1074694F89130DBB2012B62D1ED
:1054D80094F89030012B60D0012384F89030A667AF
:1054E800A4F87C50A4F87E500023C4F8943012220B
:1054F80084F89120D4F8802029491164D4F88020B8
:105508002849D163D4F880202749D164D4F8802071
:1055180013652268B4F87C301C32A16FD4F880007F
:10552800FCF782FC054610BB00212046FFF798FDDA
:1055380022681369184310612268136843F4003322
:10554800136023685A6912F4E02F15D1FBF7A0F80D
:10555800C01BB0F57A7FF4D9D4F8943043F04003F7
:10556800C4F89430002384F89030032511E0002318
:1055780084F8903001250CE01A6812F4803F03D1BA
:105588001A6842F480321A60002384F8903000E0F0
:1055980001252846F8BD0225FBE70225F9E700BFEB
:1055A800C3560008895600081157000838B5144634
:1055B800B2FA82F25209002908BF0122002A51D109
:1055C80090F89130DBB2012B4FD190F89030012B3D
:1055D8004DD023460446012280F89020A167A0F808
:1055E8007C30A0F87E300023C0F89430222280F866
:1055F8009120D0F884201F491164D0F884201E49D6
:10560800D163D0F884201D49D164D0F88420136573
:105618000168B0F87C30826F1C31D0F88400FCF748
:1056280003FC0546C8B923681A6812F4803F03D101
:105638001A6842F480321A6000212046FFF710FDF4
:1056480022681369184310612268136843F4003311
:105658001360002384F8903005E0002384F890302C
:10566800012500E00125284638BD0225FBE7022573
:10567800F9E700BF07570008CD5600081157000882
:1056880010B5846BC369B3F5807F12D00021A4F8EC
:105698007E102268136823F4003313602046FFF756
:1056A800DFFC2268136923EA00001061012384F8F3
:1056B8009130204604F04BFB10BD08B5806B04F018
:1056C80047FB08BD10B5846BC369B3F5807F12D062
:1056D8002268136823F4003313600021A4F87E10B5
:1056E8002046FFF7BDFC2268136923EA0000106119
:1056F800012384F89130204604F02CFB10BD08B536
:10570800806B04F03FFB08BD10B5846BFDF728F8EB
:10571800022816D0D4F8943043F08003C4F89430AB
:105728002268136823F4003313602046FFF7B2FCA5
:10573800012384F891300023A4F87E30204604F039
:1057480005FB10BD2DE9F04186B004460D46FAF779
:105758009FFF80460021206803F0CFFA10F0007FF9
:1057680067D14021206803F0E3FB064610B1A36B24
:10577800A36360E0A16C0904206803F0C1FC06463D
:1057880010B1A36BA36356E04FF0FF33009340239F
:1057980001936023029302230393002304930123BC
:1057A80005936946206803F0B1FB206803F067FDA4
:1057B800064688B1A36BA3633DE0206803F076FA40
:1057C80045F8040B0137072FF7D9FAF761FFA0EB6B
:1057D8000800B0F1FF3F32D023685A6B12F4957F6E
:1057E80005D15B6B13F4004FEFD03746EBE75A6BEC
:1057F80012F0080F26D15A6B12F0020F24D15B6BFE
:1058080013F0200F22D12068436B13F4805F0DD072
:1058180003F04CFA45F8040BFAF73AFFA0EB08003E
:10582800B0F1FF3FEFD14FF0004604E0084B83632F
:1058380001E04FF40066304606B0BDE8F0814FF055
:105848000046F8E70826F6E70226F4E72026F2E7FE
:105858003A0F00182DE9F04188B004460F46FAF7D0
:1058680017FF06460023009301930821206803F0E0
:105878005FFB054618B1284608B0BDE8F081A16C69
:105888000904206803F03CFC05460028F3D14FF0DA
:10589800FF330293082303933023049302230593D1
:1058A800002306930123079302A9206803F02EFB27
:1058B800206803F06DFC05460028DCD1804605E031
:1058C800FAF7E6FE801BB0F1FF3F48D02068426B34
:1058D80040F22A531A4210D1436B13F4002FEFD130
:1058E800B8F1000FECD103F0E1F90090206803F063
:1058F800DDF9019008F10108E2E7436B13F0080FA6
:1059080024D1436B13F0020F23D1436B13F0200F04
:1059180022D1144B8363019A130203F47F0343EAF1
:105928000263110A01F47F410B4343EA12633B60AF
:10593800009A130203F47F0343EA0263110A01F495
:105948007F410B4343EA12637B6094E70825856334
:1059580091E7022585638EE7202585638BE74FF065
:10596800004588E73A0F001810B582B004460021B8
:1059780000910191006803F0C0F910F0007F16D182
:1059880069462046FFF766FF034690B9019B13F46A
:10599800802F11D0A16C0904206803F0B1FB0346E5
:1059A80038B90221206803F0DAFB034601E04FF41E
:1059B8000063184602B010BD4FF08063F9E710B5D8
:1059C80082B00446002100910191006803F095F926
:1059D80010F0007F16D169462046FFF73BFF0346CB
:1059E80090B9019B13F4803F11D0A16C0904206881
:1059F80003F086FB034638B90021206803F0AFFBAB
:105A0800034601E04FF40063184602B010BD4FF0A2
:105A18008063F9E770B581B10D460446816C0904CD
:105A2800006803F013FC064608B1304670BD00213B
:105A3800206803F062F92860F7E74FF00066F4E7A2
:105A48002DE9F04786B004460D4690461E46FAF703
:105A58001FFE6DB1074694F83430DBB2012B0DD030
:105A6800A36B43F00053A363012006B0BDE8F087A1
:105A7800A36B43F00063A3630120F6E70023A3634D
:105A880008EB0603626D93421BD8032384F8343075
:105A980023680022DA62E36B012B01D04FEA482821
:105AA8004FF40071206803F043FA034678B1226886
:105AB80069499163A06B1843A063012084F83400FE
:105AC800D3E7A36B43F00073A3630120CDE74FF046
